{
  "_format": "hh-sol-artifact-1",
  "contractName": "Void2122Corporation",
  "sourceName": "contracts/Corporation.sol",
  "abi": [
    {
      "inputs": [],
      "name": "InvalidLoots",
      "type": "error"
    },
    {
      "inputs": [],
      "name": "Unauthorized",
      "type": "error"
    },
    {
      "anonymous": false,
      "inputs": [
        {
          "indexed": true,
          "internalType": "address",
          "name": "account",
          "type": "address"
        },
        {
          "indexed": true,
          "internalType": "address",
          "name": "operator",
          "type": "address"
        },
        {
          "indexed": false,
          "internalType": "bool",
          "name": "approved",
          "type": "bool"
        }
      ],
      "name": "ApprovalForAll",
      "type": "event"
    },
    {
      "anonymous": false,
      "inputs": [
        {
          "components": [
            {
              "internalType": "uint256",
              "name": "id",
              "type": "uint256"
            },
            {
              "internalType": "address",
              "name": "owner",
              "type": "address"
            },
            {
              "internalType": "string",
              "name": "name",
              "type": "string"
            },
            {
              "internalType": "string",
              "name": "description",
              "type": "string"
            },
            {
              "internalType": "string",
              "name": "image",
              "type": "string"
            },
            {
              "internalType": "string",
              "name": "animation",
              "type": "string"
            },
            {
              "internalType": "bool",
              "name": "active",
              "type": "bool"
            }
          ],
          "indexed": false,
          "internalType": "struct ICorporation.Corporation",
          "name": "",
          "type": "tuple"
        }
      ],
      "name": "CorporationCreated",
      "type": "event"
    },
    {
      "anonymous": false,
      "inputs": [
        {
          "components": [
            {
              "internalType": "uint256",
              "name": "id",
              "type": "uint256"
            },
            {
              "internalType": "address",
              "name": "owner",
              "type": "address"
            },
            {
              "internalType": "string",
              "name": "name",
              "type": "string"
            },
            {
              "internalType": "string",
              "name": "description",
              "type": "string"
            },
            {
              "internalType": "string",
              "name": "image",
              "type": "string"
            },
            {
              "internalType": "string",
              "name": "animation",
              "type": "string"
            },
            {
              "internalType": "bool",
              "name": "active",
              "type": "bool"
            }
          ],
          "indexed": false,
          "internalType": "struct ICorporation.Corporation",
          "name": "",
          "type": "tuple"
        }
      ],
      "name": "CorporationDisbanded",
      "type": "event"
    },
    {
      "anonymous": false,
      "inputs": [
        {
          "indexed": false,
          "internalType": "uint8",
          "name": "version",
          "type": "uint8"
        }
      ],
      "name": "Initialized",
      "type": "event"
    },
    {
      "anonymous": false,
      "inputs": [
        {
          "indexed": false,
          "internalType": "address",
          "name": "",
          "type": "address"
        }
      ],
      "name": "MemberAdded",
      "type": "event"
    },
    {
      "anonymous": false,
      "inputs": [
        {
          "indexed": false,
          "internalType": "address",
          "name": "",
          "type": "address"
        }
      ],
      "name": "MemberRemoved",
      "type": "event"
    },
    {
      "anonymous": false,
      "inputs": [
        {
          "indexed": true,
          "internalType": "address",
          "name": "operator",
          "type": "address"
        },
        {
          "indexed": true,
          "internalType": "address",
          "name": "from",
          "type": "address"
        },
        {
          "indexed": true,
          "internalType": "address",
          "name": "to",
          "type": "address"
        },
        {
          "indexed": false,
          "internalType": "uint256[]",
          "name": "ids",
          "type": "uint256[]"
        },
        {
          "indexed": false,
          "internalType": "uint256[]",
          "name": "values",
          "type": "uint256[]"
        }
      ],
      "name": "TransferBatch",
      "type": "event"
    },
    {
      "anonymous": false,
      "inputs": [
        {
          "indexed": true,
          "internalType": "address",
          "name": "operator",
          "type": "address"
        },
        {
          "indexed": true,
          "internalType": "address",
          "name": "from",
          "type": "address"
        },
        {
          "indexed": true,
          "internalType": "address",
          "name": "to",
          "type": "address"
        },
        {
          "indexed": false,
          "internalType": "uint256",
          "name": "id",
          "type": "uint256"
        },
        {
          "indexed": false,
          "internalType": "uint256",
          "name": "value",
          "type": "uint256"
        }
      ],
      "name": "TransferSingle",
      "type": "event"
    },
    {
      "anonymous": false,
      "inputs": [
        {
          "indexed": false,
          "internalType": "string",
          "name": "value",
          "type": "string"
        },
        {
          "indexed": true,
          "internalType": "uint256",
          "name": "id",
          "type": "uint256"
        }
      ],
      "name": "URI",
      "type": "event"
    },
    {
      "inputs": [
        {
          "internalType": "uint256",
          "name": "_corporationId",
          "type": "uint256"
        },
        {
          "internalType": "address",
          "name": "_member",
          "type": "address"
        }
      ],
      "name": "addOrRemoveMember",
      "outputs": [],
      "stateMutability": "nonpayable",
      "type": "function"
    },
    {
      "inputs": [
        {
          "internalType": "address",
          "name": "account",
          "type": "address"
        },
        {
          "internalType": "uint256",
          "name": "id",
          "type": "uint256"
        }
      ],
      "name": "balanceOf",
      "outputs": [
        {
          "internalType": "uint256",
          "name": "",
          "type": "uint256"
        }
      ],
      "stateMutability": "view",
      "type": "function"
    },
    {
      "inputs": [
        {
          "internalType": "address[]",
          "name": "accounts",
          "type": "address[]"
        },
        {
          "internalType": "uint256[]",
          "name": "ids",
          "type": "uint256[]"
        }
      ],
      "name": "balanceOfBatch",
      "outputs": [
        {
          "internalType": "uint256[]",
          "name": "",
          "type": "uint256[]"
        }
      ],
      "stateMutability": "view",
      "type": "function"
    },
    {
      "inputs": [
        {
          "internalType": "uint256",
          "name": "tokenId",
          "type": "uint256"
        },
        {
          "internalType": "uint256",
          "name": "quantity",
          "type": "uint256"
        }
      ],
      "name": "burn",
      "outputs": [],
      "stateMutability": "nonpayable",
      "type": "function"
    },
    {
      "inputs": [
        {
          "internalType": "uint256[]",
          "name": "ids",
          "type": "uint256[]"
        },
        {
          "internalType": "uint256[]",
          "name": "amounts",
          "type": "uint256[]"
        }
      ],
      "name": "burnBatch",
      "outputs": [],
      "stateMutability": "nonpayable",
      "type": "function"
    },
    {
      "inputs": [],
      "name": "contractName",
      "outputs": [
        {
          "internalType": "string",
          "name": "",
          "type": "string"
        }
      ],
      "stateMutability": "view",
      "type": "function"
    },
    {
      "inputs": [],
      "name": "corporationIds",
      "outputs": [
        {
          "internalType": "uint256",
          "name": "",
          "type": "uint256"
        }
      ],
      "stateMutability": "view",
      "type": "function"
    },
    {
      "inputs": [
        {
          "internalType": "uint256",
          "name": "",
          "type": "uint256"
        }
      ],
      "name": "corporations",
      "outputs": [
        {
          "internalType": "uint256",
          "name": "id",
          "type": "uint256"
        },
        {
          "internalType": "address",
          "name": "owner",
          "type": "address"
        },
        {
          "internalType": "string",
          "name": "name",
          "type": "string"
        },
        {
          "internalType": "string",
          "name": "description",
          "type": "string"
        },
        {
          "internalType": "string",
          "name": "image",
          "type": "string"
        },
        {
          "internalType": "string",
          "name": "animation",
          "type": "string"
        },
        {
          "internalType": "bool",
          "name": "active",
          "type": "bool"
        }
      ],
      "stateMutability": "view",
      "type": "function"
    },
    {
      "inputs": [
        {
          "components": [
            {
              "internalType": "uint256",
              "name": "id",
              "type": "uint256"
            },
            {
              "internalType": "address",
              "name": "owner",
              "type": "address"
            },
            {
              "internalType": "string",
              "name": "name",
              "type": "string"
            },
            {
              "internalType": "string",
              "name": "description",
              "type": "string"
            },
            {
              "internalType": "string",
              "name": "image",
              "type": "string"
            },
            {
              "internalType": "string",
              "name": "animation",
              "type": "string"
            },
            {
              "internalType": "bool",
              "name": "active",
              "type": "bool"
            }
          ],
          "internalType": "struct ICorporation.Corporation",
          "name": "_corporation",
          "type": "tuple"
        }
      ],
      "name": "createCorporation",
      "outputs": [],
      "stateMutability": "nonpayable",
      "type": "function"
    },
    {
      "inputs": [
        {
          "components": [
            {
              "internalType": "uint256",
              "name": "id",
              "type": "uint256"
            },
            {
              "internalType": "address",
              "name": "owner",
              "type": "address"
            },
            {
              "internalType": "string",
              "name": "name",
              "type": "string"
            },
            {
              "internalType": "string",
              "name": "description",
              "type": "string"
            },
            {
              "internalType": "string",
              "name": "image",
              "type": "string"
            },
            {
              "internalType": "string",
              "name": "animation",
              "type": "string"
            },
            {
              "internalType": "bool",
              "name": "active",
              "type": "bool"
            }
          ],
          "internalType": "struct ICorporation.Corporation",
          "name": "_corporation",
          "type": "tuple"
        }
      ],
      "name": "disbandCorporation",
      "outputs": [],
      "stateMutability": "nonpayable",
      "type": "function"
    },
    {
      "inputs": [
        {
          "internalType": "address",
          "name": "player",
          "type": "address"
        }
      ],
      "name": "getPlayerCorporation",
      "outputs": [
        {
          "internalType": "string",
          "name": "",
          "type": "string"
        }
      ],
      "stateMutability": "view",
      "type": "function"
    },
    {
      "inputs": [],
      "name": "initialize",
      "outputs": [],
      "stateMutability": "nonpayable",
      "type": "function"
    },
    {
      "inputs": [
        {
          "internalType": "address",
          "name": "account",
          "type": "address"
        },
        {
          "internalType": "address",
          "name": "operator",
          "type": "address"
        }
      ],
      "name": "isApprovedForAll",
      "outputs": [
        {
          "internalType": "bool",
          "name": "",
          "type": "bool"
        }
      ],
      "stateMutability": "view",
      "type": "function"
    },
    {
      "inputs": [
        {
          "internalType": "address",
          "name": "to",
          "type": "address"
        },
        {
          "internalType": "uint256",
          "name": "id",
          "type": "uint256"
        },
        {
          "internalType": "uint256",
          "name": "amount",
          "type": "uint256"
        }
      ],
      "name": "mint",
      "outputs": [],
      "stateMutability": "nonpayable",
      "type": "function"
    },
    {
      "inputs": [
        {
          "internalType": "address",
          "name": "to",
          "type": "address"
        },
        {
          "internalType": "uint256[]",
          "name": "ids",
          "type": "uint256[]"
        },
        {
          "internalType": "uint256[]",
          "name": "amounts",
          "type": "uint256[]"
        }
      ],
      "name": "mintBatch",
      "outputs": [],
      "stateMutability": "nonpayable",
      "type": "function"
    },
    {
      "inputs": [],
      "name": "name",
      "outputs": [
        {
          "internalType": "string",
          "name": "",
          "type": "string"
        }
      ],
      "stateMutability": "pure",
      "type": "function"
    },
    {
      "inputs": [],
      "name": "royalties_recipient",
      "outputs": [
        {
          "internalType": "address",
          "name": "",
          "type": "address"
        }
      ],
      "stateMutability": "view",
      "type": "function"
    },
    {
      "inputs": [],
      "name": "royaltyAmount",
      "outputs": [
        {
          "internalType": "uint256",
          "name": "",
          "type": "uint256"
        }
      ],
      "stateMutability": "view",
      "type": "function"
    },
    {
      "inputs": [
        {
          "internalType": "uint256",
          "name": "salePrice",
          "type": "uint256"
        }
      ],
      "name": "royaltyInfo",
      "outputs": [
        {
          "internalType": "address",
          "name": "",
          "type": "address"
        },
        {
          "internalType": "uint256",
          "name": "",
          "type": "uint256"
        }
      ],
      "stateMutability": "view",
      "type": "function"
    },
    {
      "inputs": [
        {
          "internalType": "address",
          "name": "from",
          "type": "address"
        },
        {
          "internalType": "address",
          "name": "to",
          "type": "address"
        },
        {
          "internalType": "uint256[]",
          "name": "ids",
          "type": "uint256[]"
        },
        {
          "internalType": "uint256[]",
          "name": "amounts",
          "type": "uint256[]"
        },
        {
          "internalType": "bytes",
          "name": "data",
          "type": "bytes"
        }
      ],
      "name": "safeBatchTransferFrom",
      "outputs": [],
      "stateMutability": "nonpayable",
      "type": "function"
    },
    {
      "inputs": [
        {
          "internalType": "address",
          "name": "from",
          "type": "address"
        },
        {
          "internalType": "address",
          "name": "to",
          "type": "address"
        },
        {
          "internalType": "uint256",
          "name": "id",
          "type": "uint256"
        },
        {
          "internalType": "uint256",
          "name": "amount",
          "type": "uint256"
        },
        {
          "internalType": "bytes",
          "name": "data",
          "type": "bytes"
        }
      ],
      "name": "safeTransferFrom",
      "outputs": [],
      "stateMutability": "nonpayable",
      "type": "function"
    },
    {
      "inputs": [
        {
          "internalType": "address",
          "name": "operator",
          "type": "address"
        },
        {
          "internalType": "bool",
          "name": "approved",
          "type": "bool"
        }
      ],
      "name": "setApprovalForAll",
      "outputs": [],
      "stateMutability": "nonpayable",
      "type": "function"
    },
    {
      "inputs": [
        {
          "internalType": "address payable",
          "name": "_recipient",
          "type": "address"
        },
        {
          "internalType": "uint256",
          "name": "_royaltyPerCent",
          "type": "uint256"
        }
      ],
      "name": "setRoyalties",
      "outputs": [],
      "stateMutability": "nonpayable",
      "type": "function"
    },
    {
      "inputs": [
        {
          "internalType": "bytes4",
          "name": "interfaceId",
          "type": "bytes4"
        }
      ],
      "name": "supportsInterface",
      "outputs": [
        {
          "internalType": "bool",
          "name": "",
          "type": "bool"
        }
      ],
      "stateMutability": "view",
      "type": "function"
    },
    {
      "inputs": [
        {
          "internalType": "address",
          "name": "_admin",
          "type": "address"
        }
      ],
      "name": "toggleAdmin",
      "outputs": [],
      "stateMutability": "nonpayable",
      "type": "function"
    },
    {
      "inputs": [
        {
          "internalType": "uint256",
          "name": "tokenId",
          "type": "uint256"
        }
      ],
      "name": "uri",
      "outputs": [
        {
          "internalType": "string",
          "name": "",
          "type": "string"
        }
      ],
      "stateMutability": "view",
      "type": "function"
    },
    {
      "inputs": [
        {
          "internalType": "address",
          "name": "recipient",
          "type": "address"
        }
      ],
      "name": "withdraw",
      "outputs": [],
      "stateMutability": "nonpayable",
      "type": "function"
    }
  ],
  "bytecode": "0x608060405234801561001057600080fd5b50613d3c806100206000396000f3fe608060405234801561001057600080fd5b50600436106101b85760003560e01c806383ca4b6f116100f9578063cef6d36811610097578063d81d0a1511610071578063d81d0a1514610414578063e985e9c514610427578063f242432a14610463578063f52880fa1461047657600080fd5b8063cef6d368146103bc578063d3b86141146103ee578063d3d253771461040157600080fd5b8063a22cb465116100d3578063a22cb46514610358578063a768b8d21461036b578063afe5a1c91461037e578063b390c0ab146103a957600080fd5b806383ca4b6f1461031f57806388e76157146103325780638c7ea24b1461034557600080fd5b80632eb2c2d61161016657806351cff8d91161014057806351cff8d9146102bf57806375d0c0dc146102d25780637c6e551d1461030e5780638129fc1c1461031757600080fd5b80632eb2c2d6146102835780633bcb754d146102965780634e1273f41461029f57600080fd5b80630e89341c116101975780630e89341c14610248578063156e29f61461025b578063264dfe371461027057600080fd5b8062fdd58e146101bd57806301ffc9a7146101e357806306fdde0314610206575b600080fd5b6101d06101cb366004612d1f565b61049c565b6040519081526020015b60405180910390f35b6101f66101f1366004612d61565b61054a565b60405190151581526020016101da565b60408051808201909152601881527f566f69642032313232202d20436f72706f726174696f6e73000000000000000060208201525b6040516101da9190612dd5565b61023b610256366004612de8565b610598565b61026e610269366004612e01565b610a95565b005b61026e61027e366004612e36565b610af0565b61026e610291366004612fe6565b610b46565b6101d060975481565b6102b26102ad366004613094565b610be8565b6040516101da919061319c565b61026e6102cd3660046131af565b610d26565b61023b6040518060400160405280601881526020017f566f69642032313232202d20436f72706f726174696f6e73000000000000000081525081565b6101d060985481565b61026e610d8e565b61026e61032d3660046131cc565b611044565b61026e610340366004613219565b61104f565b61026e610353366004612d1f565b611410565b61026e610366366004613259565b611472565b61026e610379366004612e36565b61147d565b609954610391906001600160a01b031681565b6040516001600160a01b0390911681526020016101da565b61026e6103b736600461328e565b6115a2565b6103cf6103ca366004612de8565b6115ad565b604080516001600160a01b0390931683526020830191909152016101da565b61026e6103fc3660046131af565b611600565b61023b61040f3660046131af565b611658565b61026e6104223660046132b0565b611745565b6101f6610435366004613326565b6001600160a01b03918216600090815260666020908152604080832093909416825291909152205460ff1690565b61026e610471366004613354565b61179b565b610489610484366004612de8565b611836565b6040516101da97969594939291906133bd565b60006001600160a01b03831661051f5760405162461bcd60e51b815260206004820152602a60248201527f455243313135353a2061646472657373207a65726f206973206e6f742061207660448201527f616c6964206f776e65720000000000000000000000000000000000000000000060648201526084015b60405180910390fd5b5060008181526065602090815260408083206001600160a01b03861684529091529020545b92915050565b600061055582611a9e565b8061058957506001600160e01b031982167f2a55205a00000000000000000000000000000000000000000000000000000000145b80610544575061054482611a9e565b6000818152609b60209081526040808320815160e0810183528154815260018201546001600160a01b0316938101939093526002810180546060959493840191906105e290613436565b80601f016020809104026020016040519081016040528092919081815260200182805461060e90613436565b801561065b5780601f106106305761010080835404028352916020019161065b565b820191906000526020600020905b81548152906001019060200180831161063e57829003601f168201915b5050505050815260200160038201805461067490613436565b80601f01602080910402602001604051908101604052809291908181526020018280546106a090613436565b80156106ed5780601f106106c2576101008083540402835291602001916106ed565b820191906000526020600020905b8154815290600101906020018083116106d057829003601f168201915b5050505050815260200160048201805461070690613436565b80601f016020809104026020016040519081016040528092919081815260200182805461073290613436565b801561077f5780601f106107545761010080835404028352916020019161077f565b820191906000526020600020905b81548152906001019060200180831161076257829003601f168201915b5050505050815260200160058201805461079890613436565b80601f01602080910402602001604051908101604052809291908181526020018280546107c490613436565b80156108115780601f106107e657610100808354040283529160200191610811565b820191906000526020600020905b8154815290600101906020018083116107f457829003601f168201915b50505091835250506006919091015460ff16151560209091015260c0810151909150600090610875576040518060400160405280600581526020017f46616c73650000000000000000000000000000000000000000000000000000008152506108ac565b6040518060400160405280600481526020017f54727565000000000000000000000000000000000000000000000000000000008152505b604083015183516108bc90611b39565b6040516020016108ce93929190613470565b60405160208183030381529060405290506000609a6000815481106108f5576108f56135b0565b906000526020600020018360400151604051602001610915929190613639565b604051602081830303815290604052609a600181548110610938576109386135b0565b906000526020600020018460600151604051602001610958929190613639565b604051602081830303815290604052609a60028154811061097b5761097b6135b0565b90600052602060002001856080015160405160200161099b929190613639565b604051602081830303815290604052609a6003815481106109be576109be6135b0565b906000526020600020018660a001516040516020016109de929190613639565b604051602081830303815290604052609a600481548110610a0157610a016135b0565b9060005260206000200186604051602001610a1d929190613639565b604051602081830303815290604052609a600581548110610a4057610a406135b0565b90600052602060002001604051602001610a5a919061365e565b60408051601f1981840301815290829052610a7c96959493929160200161366a565b60408051601f1981840301815291905295945050505050565b336000908152609e602052604090205460ff16610ac4576040516282b42960e81b815260040160405180910390fd5b610aeb8383836040518060400160405280600381526020016203078360ec1b815250611bd9565b505050565b80356000908152609b602052604090819020600601805460ff19169055517fc6857cc3c4177b152a64aabdc68f90e809b01b3b465672e6f41de25d82dccef590610b3b90839061375f565b60405180910390a150565b6001600160a01b038516331480610b625750610b628533610435565b610bd45760405162461bcd60e51b815260206004820152602e60248201527f455243313135353a2063616c6c6572206973206e6f7420746f6b656e206f776e60448201527f6572206f7220617070726f7665640000000000000000000000000000000000006064820152608401610516565b610be18585858585611cef565b5050505050565b60608151835114610c615760405162461bcd60e51b815260206004820152602960248201527f455243313135353a206163636f756e747320616e6420696473206c656e67746860448201527f206d69736d6174636800000000000000000000000000000000000000000000006064820152608401610516565b6000835167ffffffffffffffff811115610c7d57610c7d612e71565b604051908082528060200260200182016040528015610ca6578160200160208202803683370190505b50905060005b8451811015610d1e57610cf1858281518110610cca57610cca6135b0565b6020026020010151858381518110610ce457610ce46135b0565b602002602001015161049c565b828281518110610d0357610d036135b0565b6020908102919091010152610d1781613859565b9050610cac565b509392505050565b336000908152609e602052604090205460ff16610d55576040516282b42960e81b815260040160405180910390fd5b6040516001600160a01b038216904780156108fc02916000818181858888f19350505050158015610d8a573d6000803e3d6000fd5b5050565b600054610100900460ff1615808015610dae5750600054600160ff909116105b80610dc85750303b158015610dc8575060005460ff166001145b610e3a5760405162461bcd60e51b815260206004820152602e60248201527f496e697469616c697a61626c653a20636f6e747261637420697320616c72656160448201527f647920696e697469616c697a65640000000000000000000000000000000000006064820152608401610516565b6000805460ff191660011790558015610e5d576000805461ff0019166101001790555b610e7560405180602001604052806000815250611f50565b60016097819055336000818152609e602052604090819020805460ff1916909317909255600a6098556099805473ffffffffffffffffffffffffffffffffffffffff1916909117905580516101208101909152602460c082018181528291613ce360e08401398152604080518082018252601281527f222c20226465736372697074696f6e223a2200000000000000000000000000006020828101919091528084019190915281518083018352600c81527f222c2022696d616765223a220000000000000000000000000000000000000000818301528284015281518083018352601081527f222c2022616e696d6174696f6e223a220000000000000000000000000000000081830152606084015281518083018352601181527f222c202261747472696275746573223a5b0000000000000000000000000000008183015260808401528151808301909252600282527f5d7d0000000000000000000000000000000000000000000000000000000000009082015260a090910152610ffe90609a906006612c3d565b508015611041576000805461ff0019169055604051600181527f7f26b83ff96e1f2b6a682f133852f6798a09c465da95921460cefb384740249890602001610b3b565b50565b610d8a338383611fc4565b6000828152609b60209081526040808320815160e0810183528154815260018201546001600160a01b031693810193909352600281018054919284019161109590613436565b80601f01602080910402602001604051908101604052809291908181526020018280546110c190613436565b801561110e5780601f106110e35761010080835404028352916020019161110e565b820191906000526020600020905b8154815290600101906020018083116110f157829003601f168201915b5050505050815260200160038201805461112790613436565b80601f016020809104026020016040519081016040528092919081815260200182805461115390613436565b80156111a05780601f10611175576101008083540402835291602001916111a0565b820191906000526020600020905b81548152906001019060200180831161118357829003601f168201915b505050505081526020016004820180546111b990613436565b80601f01602080910402602001604051908101604052809291908181526020018280546111e590613436565b80156112325780601f1061120757610100808354040283529160200191611232565b820191906000526020600020905b81548152906001019060200180831161121557829003601f168201915b5050505050815260200160058201805461124b90613436565b80601f016020809104026020016040519081016040528092919081815260200182805461127790613436565b80156112c45780601f10611299576101008083540402835291602001916112c4565b820191906000526020600020905b8154815290600101906020018083116112a757829003601f168201915b50505091835250506006919091015460ff1615156020918201528101519091506001600160a01b0316331461130b576040516282b42960e81b815260040160405180910390fd5b80516000908152609c602090815260408083206001600160a01b038616845290915290205460ff166113ab5780516000908152609c602090815260408083206001600160a01b038616808552908352818420805460ff191660011790558451609d84529382902093909355519182527fb251eb052afc73ffd02ffe85ad79990a8b3fed60d76dbc2fa2fdd7123dffd91491015b60405180910390a1505050565b80516000908152609c602090815260408083206001600160a01b038616808552908352818420805460ff19169055609d835281842093909355519182527f6e76fb4c77256006d9c38ec7d82b45a8c8f3c27b1d6766fffc42dfb8de684492910161139e565b336000908152609e602052604090205460ff1661143f576040516282b42960e81b815260040160405180910390fd5b6099805473ffffffffffffffffffffffffffffffffffffffff19166001600160a01b039390931692909217909155609855565b610d8a33838361220b565b600061148882613872565b336020828101918252600160c084018190526097546000908152609b909252604091829020845181559251908301805473ffffffffffffffffffffffffffffffffffffffff19166001600160a01b03909216919091179055820151919250829160028201906114f7908261399b565b506060820151600382019061150c908261399b565b5060808201516004820190611521908261399b565b5060a08201516005820190611536908261399b565b5060c091909101516006909101805460ff19169115159190911790556097805490600061156283613859565b91905055507fc2f9ab89ca427ee191b06304bc7dcab2d9400860a96e836b319c949b35f881b3816040516115969190613a5b565b60405180910390a15050565b610d8a3383836122ff565b60995460009081906001600160a01b0316156115f5576099546098546001600160a01b03909116906064906115e29086613b04565b6115ec9190613b1b565b91509150915091565b506000928392509050565b336000908152609e602052604090205460ff1661162f576040516282b42960e81b815260040160405180910390fd5b6001600160a01b03166000908152609e60205260409020805460ff19811660ff90911615179055565b6001600160a01b0381166000908152609d602052604090205460609015611731576001600160a01b0382166000908152609d60209081526040808320548352609b909152902060020180546116ac90613436565b80601f01602080910402602001604051908101604052809291908181526020018280546116d890613436565b80156117255780601f106116fa57610100808354040283529160200191611725565b820191906000526020600020905b81548152906001019060200180831161170857829003601f168201915b50505050509050919050565b505060408051602081019091526000815290565b336000908152609e602052604090205460ff16611774576040516282b42960e81b815260040160405180910390fd5b610aeb8383836040518060400160405280600381526020016203078360ec1b81525061247e565b6001600160a01b0385163314806117b757506117b78533610435565b6118295760405162461bcd60e51b815260206004820152602e60248201527f455243313135353a2063616c6c6572206973206e6f7420746f6b656e206f776e60448201527f6572206f7220617070726f7665640000000000000000000000000000000000006064820152608401610516565b610be18585858585612645565b609b6020526000908152604090208054600182015460028301805492936001600160a01b039092169261186890613436565b80601f016020809104026020016040519081016040528092919081815260200182805461189490613436565b80156118e15780601f106118b6576101008083540402835291602001916118e1565b820191906000526020600020905b8154815290600101906020018083116118c457829003601f168201915b5050505050908060030180546118f690613436565b80601f016020809104026020016040519081016040528092919081815260200182805461192290613436565b801561196f5780601f106119445761010080835404028352916020019161196f565b820191906000526020600020905b81548152906001019060200180831161195257829003601f168201915b50505050509080600401805461198490613436565b80601f01602080910402602001604051908101604052809291908181526020018280546119b090613436565b80156119fd5780601f106119d2576101008083540402835291602001916119fd565b820191906000526020600020905b8154815290600101906020018083116119e057829003601f168201915b505050505090806005018054611a1290613436565b80601f0160208091040260200160405190810160405280929190818152602001828054611a3e90613436565b8015611a8b5780601f10611a6057610100808354040283529160200191611a8b565b820191906000526020600020905b815481529060010190602001808311611a6e57829003601f168201915b5050506006909301549192505060ff1687565b60006001600160e01b031982167fd9b67a26000000000000000000000000000000000000000000000000000000001480611b0157506001600160e01b031982167f0e89341c00000000000000000000000000000000000000000000000000000000145b8061054457507f01ffc9a7000000000000000000000000000000000000000000000000000000006001600160e01b0319831614610544565b60606000611b46836127f4565b600101905060008167ffffffffffffffff811115611b6657611b66612e71565b6040519080825280601f01601f191660200182016040528015611b90576020820181803683370190505b5090508181016020015b600019017f3031323334353637383961626364656600000000000000000000000000000000600a86061a8153600a8504945084611b9a57509392505050565b6001600160a01b038416611c395760405162461bcd60e51b815260206004820152602160248201527f455243313135353a206d696e7420746f20746865207a65726f206164647265736044820152607360f81b6064820152608401610516565b336000611c45856128d6565b90506000611c52856128d6565b905060008681526065602090815260408083206001600160a01b038b16845290915281208054879290611c86908490613b3d565b909155505060408051878152602081018790526001600160a01b03808a1692600092918716917fc3d58168c5ae7397731d063d5bbf3d657854427343f4c083240f7aacaa2d0f62910160405180910390a4611ce683600089898989612921565b50505050505050565b8151835114611d515760405162461bcd60e51b815260206004820152602860248201527f455243313135353a2069647320616e6420616d6f756e7473206c656e677468206044820152670dad2e6dac2e8c6d60c31b6064820152608401610516565b6001600160a01b038416611db55760405162461bcd60e51b815260206004820152602560248201527f455243313135353a207472616e7366657220746f20746865207a65726f206164604482015264647265737360d81b6064820152608401610516565b3360005b8451811015611ee2576000858281518110611dd657611dd66135b0565b602002602001015190506000858381518110611df457611df46135b0565b60209081029190910181015160008481526065835260408082206001600160a01b038e168352909352919091205490915081811015611e885760405162461bcd60e51b815260206004820152602a60248201527f455243313135353a20696e73756666696369656e742062616c616e636520666f60448201526939103a3930b739b332b960b11b6064820152608401610516565b60008381526065602090815260408083206001600160a01b038e8116855292528083208585039055908b16825281208054849290611ec7908490613b3d565b9250508190555050505080611edb90613859565b9050611db9565b50846001600160a01b0316866001600160a01b0316826001600160a01b03167f4a39dc06d4c0dbc64b70af90fd698a233a518aa5d07e595d983b8c0526c8f7fb8787604051611f32929190613b50565b60405180910390a4611f48818787878787612ac6565b505050505050565b600054610100900460ff16611fbb5760405162461bcd60e51b815260206004820152602b60248201527f496e697469616c697a61626c653a20636f6e7472616374206973206e6f74206960448201526a6e697469616c697a696e6760a81b6064820152608401610516565b61104181612bc2565b6001600160a01b0383166120265760405162461bcd60e51b815260206004820152602360248201527f455243313135353a206275726e2066726f6d20746865207a65726f206164647260448201526265737360e81b6064820152608401610516565b80518251146120885760405162461bcd60e51b815260206004820152602860248201527f455243313135353a2069647320616e6420616d6f756e7473206c656e677468206044820152670dad2e6dac2e8c6d60c31b6064820152608401610516565b604080516020810190915260009081905233905b835181101561219d5760008482815181106120b9576120b96135b0565b6020026020010151905060008483815181106120d7576120d76135b0565b60209081029190910181015160008481526065835260408082206001600160a01b038c1683529093529190912054909150818110156121645760405162461bcd60e51b8152602060048201526024808201527f455243313135353a206275726e20616d6f756e7420657863656564732062616c604482015263616e636560e01b6064820152608401610516565b60009283526065602090815260408085206001600160a01b038b168652909152909220910390558061219581613859565b91505061209c565b5060006001600160a01b0316846001600160a01b0316826001600160a01b03167f4a39dc06d4c0dbc64b70af90fd698a233a518aa5d07e595d983b8c0526c8f7fb86866040516121ee929190613b50565b60405180910390a460408051602081019091526000905250505050565b816001600160a01b0316836001600160a01b0316036122925760405162461bcd60e51b815260206004820152602960248201527f455243313135353a2073657474696e6720617070726f76616c2073746174757360448201527f20666f722073656c6600000000000000000000000000000000000000000000006064820152608401610516565b6001600160a01b03838116600081815260666020908152604080832094871680845294825291829020805460ff191686151590811790915591519182527f17307eab39ab6107e8899845ad3d59bd9653f200f220920489ca2b5937696c31910160405180910390a3505050565b6001600160a01b0383166123615760405162461bcd60e51b815260206004820152602360248201527f455243313135353a206275726e2066726f6d20746865207a65726f206164647260448201526265737360e81b6064820152608401610516565b33600061236d846128d6565b9050600061237a846128d6565b6040805160208082018352600091829052888252606581528282206001600160a01b038b16835290522054909150848110156124045760405162461bcd60e51b8152602060048201526024808201527f455243313135353a206275726e20616d6f756e7420657863656564732062616c604482015263616e636560e01b6064820152608401610516565b60008681526065602090815260408083206001600160a01b038b81168086529184528285208a8703905582518b81529384018a90529092908816917fc3d58168c5ae7397731d063d5bbf3d657854427343f4c083240f7aacaa2d0f62910160405180910390a4604080516020810190915260009052611ce6565b6001600160a01b0384166124de5760405162461bcd60e51b815260206004820152602160248201527f455243313135353a206d696e7420746f20746865207a65726f206164647265736044820152607360f81b6064820152608401610516565b81518351146125405760405162461bcd60e51b815260206004820152602860248201527f455243313135353a2069647320616e6420616d6f756e7473206c656e677468206044820152670dad2e6dac2e8c6d60c31b6064820152608401610516565b3360005b84518110156125dd5783818151811061255f5761255f6135b0565b60200260200101516065600087848151811061257d5761257d6135b0565b602002602001015181526020019081526020016000206000886001600160a01b03166001600160a01b0316815260200190815260200160002060008282546125c59190613b3d565b909155508190506125d581613859565b915050612544565b50846001600160a01b031660006001600160a01b0316826001600160a01b03167f4a39dc06d4c0dbc64b70af90fd698a233a518aa5d07e595d983b8c0526c8f7fb878760405161262e929190613b50565b60405180910390a4610be181600087878787612ac6565b6001600160a01b0384166126a95760405162461bcd60e51b815260206004820152602560248201527f455243313135353a207472616e7366657220746f20746865207a65726f206164604482015264647265737360d81b6064820152608401610516565b3360006126b5856128d6565b905060006126c2856128d6565b905060008681526065602090815260408083206001600160a01b038c1684529091529020548581101561274a5760405162461bcd60e51b815260206004820152602a60248201527f455243313135353a20696e73756666696369656e742062616c616e636520666f60448201526939103a3930b739b332b960b11b6064820152608401610516565b60008781526065602090815260408083206001600160a01b038d8116855292528083208985039055908a16825281208054889290612789908490613b3d565b909155505060408051888152602081018890526001600160a01b03808b16928c821692918816917fc3d58168c5ae7397731d063d5bbf3d657854427343f4c083240f7aacaa2d0f62910160405180910390a46127e9848a8a8a8a8a612921565b505050505050505050565b6000807a184f03e93ff9f4daa797ed6e38ed64bf6a1f010000000000000000831061283d577a184f03e93ff9f4daa797ed6e38ed64bf6a1f010000000000000000830492506040015b6d04ee2d6d415b85acef81000000008310612869576d04ee2d6d415b85acef8100000000830492506020015b662386f26fc10000831061288757662386f26fc10000830492506010015b6305f5e100831061289f576305f5e100830492506008015b61271083106128b357612710830492506004015b606483106128c5576064830492506002015b600a83106105445760010192915050565b60408051600180825281830190925260609160009190602080830190803683370190505090508281600081518110612910576129106135b0565b602090810291909101015292915050565b6001600160a01b0384163b15611f485760405163f23a6e6160e01b81526001600160a01b0385169063f23a6e61906129659089908990889088908890600401613b7e565b6020604051808303816000875af19250505080156129a0575060408051601f3d908101601f1916820190925261299d91810190613bc1565b60015b612a55576129ac613bde565b806308c379a0036129e557506129c0613bfa565b806129cb57506129e7565b8060405162461bcd60e51b81526004016105169190612dd5565b505b60405162461bcd60e51b815260206004820152603460248201527f455243313135353a207472616e7366657220746f206e6f6e2d4552433131353560448201527f526563656976657220696d706c656d656e7465720000000000000000000000006064820152608401610516565b6001600160e01b0319811663f23a6e6160e01b14611ce65760405162461bcd60e51b815260206004820152602860248201527f455243313135353a204552433131353552656365697665722072656a656374656044820152676420746f6b656e7360c01b6064820152608401610516565b6001600160a01b0384163b15611f485760405163bc197c8160e01b81526001600160a01b0385169063bc197c8190612b0a9089908990889088908890600401613c84565b6020604051808303816000875af1925050508015612b45575060408051601f3d908101601f19168201909252612b4291810190613bc1565b60015b612b51576129ac613bde565b6001600160e01b0319811663bc197c8160e01b14611ce65760405162461bcd60e51b815260206004820152602860248201527f455243313135353a204552433131353552656365697665722072656a656374656044820152676420746f6b656e7360c01b6064820152608401610516565b600054610100900460ff16612c2d5760405162461bcd60e51b815260206004820152602b60248201527f496e697469616c697a61626c653a20636f6e7472616374206973206e6f74206960448201526a6e697469616c697a696e6760a81b6064820152608401610516565b611041816067610d8a828261399b565b828054828255906000526020600020908101928215612c83579160200282015b82811115612c835782518290612c73908261399b565b5091602001919060010190612c5d565b50612c8f929150612c93565b5090565b80821115612c8f576000612ca78282612cb0565b50600101612c93565b508054612cbc90613436565b6000825580601f10612ccc575050565b601f01602090049060005260206000209081019061104191905b80821115612c8f5760008155600101612ce6565b6001600160a01b038116811461104157600080fd5b8035612d1a81612cfa565b919050565b60008060408385031215612d3257600080fd5b8235612d3d81612cfa565b946020939093013593505050565b6001600160e01b03198116811461104157600080fd5b600060208284031215612d7357600080fd5b8135612d7e81612d4b565b9392505050565b60005b83811015612da0578181015183820152602001612d88565b50506000910152565b60008151808452612dc1816020860160208601612d85565b601f01601f19169290920160200192915050565b602081526000612d7e6020830184612da9565b600060208284031215612dfa57600080fd5b5035919050565b600080600060608486031215612e1657600080fd5b8335612e2181612cfa565b95602085013595506040909401359392505050565b600060208284031215612e4857600080fd5b813567ffffffffffffffff811115612e5f57600080fd5b820160e08185031215612d7e57600080fd5b634e487b7160e01b600052604160045260246000fd5b601f8201601f1916810167ffffffffffffffff81118282101715612ead57612ead612e71565b6040525050565b60405160e0810167ffffffffffffffff81118282101715612ed757612ed7612e71565b60405290565b600067ffffffffffffffff821115612ef757612ef7612e71565b5060051b60200190565b600082601f830112612f1257600080fd5b81356020612f1f82612edd565b604051612f2c8282612e87565b83815260059390931b8501820192828101915086841115612f4c57600080fd5b8286015b84811015612f675780358352918301918301612f50565b509695505050505050565b600082601f830112612f8357600080fd5b813567ffffffffffffffff811115612f9d57612f9d612e71565b604051612fb4601f8301601f191660200182612e87565b818152846020838601011115612fc957600080fd5b816020850160208301376000918101602001919091529392505050565b600080600080600060a08688031215612ffe57600080fd5b853561300981612cfa565b9450602086013561301981612cfa565b9350604086013567ffffffffffffffff8082111561303657600080fd5b61304289838a01612f01565b9450606088013591508082111561305857600080fd5b61306489838a01612f01565b9350608088013591508082111561307a57600080fd5b5061308788828901612f72565b9150509295509295909350565b600080604083850312156130a757600080fd5b823567ffffffffffffffff808211156130bf57600080fd5b818501915085601f8301126130d357600080fd5b813560206130e082612edd565b6040516130ed8282612e87565b83815260059390931b850182019282810191508984111561310d57600080fd5b948201945b8386101561313457853561312581612cfa565b82529482019490820190613112565b9650508601359250508082111561314a57600080fd5b5061315785828601612f01565b9150509250929050565b600081518084526020808501945080840160005b8381101561319157815187529582019590820190600101613175565b509495945050505050565b602081526000612d7e6020830184613161565b6000602082840312156131c157600080fd5b8135612d7e81612cfa565b600080604083850312156131df57600080fd5b823567ffffffffffffffff808211156131f757600080fd5b61320386838701612f01565b9350602085013591508082111561314a57600080fd5b6000806040838503121561322c57600080fd5b82359150602083013561323e81612cfa565b809150509250929050565b80358015158114612d1a57600080fd5b6000806040838503121561326c57600080fd5b823561327781612cfa565b915061328560208401613249565b90509250929050565b600080604083850312156132a157600080fd5b50508035926020909101359150565b6000806000606084860312156132c557600080fd5b83356132d081612cfa565b9250602084013567ffffffffffffffff808211156132ed57600080fd5b6132f987838801612f01565b9350604086013591508082111561330f57600080fd5b5061331c86828701612f01565b9150509250925092565b6000806040838503121561333957600080fd5b823561334481612cfa565b9150602083013561323e81612cfa565b600080600080600060a0868803121561336c57600080fd5b853561337781612cfa565b9450602086013561338781612cfa565b93506040860135925060608601359150608086013567ffffffffffffffff8111156133b157600080fd5b61308788828901612f72565b8781526001600160a01b038716602082015260e0604082015260006133e560e0830188612da9565b82810360608401526133f78188612da9565b9050828103608084015261340b8187612da9565b905082810360a084015261341f8186612da9565b91505082151560c083015298975050505050505050565b600181811c9082168061344a57607f821691505b60208210810361346a57634e487b7160e01b600052602260045260246000fd5b50919050565b7f7b2274726169745f74797065223a2022416374697665222c202276616c756522815260007f3a2022000000000000000000000000000000000000000000000000000000000080602084015285516134cf816023860160208a01612d85565b7f227d2c207b2274726169745f74797065223a20224e616d65222c202276616c756023918501918201527f65223a202200000000000000000000000000000000000000000000000000000060438201528551613532816048840160208a01612d85565b8082019150507f227d2c207b2274726169745f74797065223a20224964222c202276616c75652260488201528160688201528451915061357982606b830160208801612d85565b7f227d0000000000000000000000000000000000000000000000000000000000009101606b810191909152606d0195945050505050565b634e487b7160e01b600052603260045260246000fd5b600081546135d381613436565b600182811680156135eb57600181146136005761362f565b60ff198416875282151583028701945061362f565b8560005260208060002060005b858110156136265781548a82015290840190820161360d565b50505082870194505b5050505092915050565b600061364582856135c6565b8351613655818360208801612d85565b01949350505050565b6000612d7e82846135c6565b60008751602061367d8285838d01612d85565b8851918401916136908184848d01612d85565b88519201916136a28184848c01612d85565b87519201916136b48184848b01612d85565b86519201916136c68184848a01612d85565b85519201916136d88184848901612d85565b919091019998505050505050505050565b6000808335601e1984360301811261370057600080fd5b830160208101925035905067ffffffffffffffff81111561372057600080fd5b80360382131561372f57600080fd5b9250929050565b81835281816020850137506000828201602090810191909152601f909101601f19169091010190565b60208152813560208201526000602083013561377a81612cfa565b6001600160a01b03811660408401525061379760408401846136e9565b60e060608501526137ad61010085018284613736565b9150506137bd60608501856136e9565b601f19808685030160808701526137d5848385613736565b93506137e460808801886136e9565b93509150808685030160a08701526137fd848484613736565b935061380c60a08801886136e9565b93509150808685030160c087015250613826838383613736565b9250505061383660c08501613249565b80151560e0850152610d1e565b634e487b7160e01b600052601160045260246000fd5b60006001820161386b5761386b613843565b5060010190565b600060e0823603121561388457600080fd5b61388c612eb4565b8235815261389c60208401612d0f565b6020820152604083013567ffffffffffffffff808211156138bc57600080fd5b6138c836838701612f72565b604084015260608501359150808211156138e157600080fd5b6138ed36838701612f72565b6060840152608085013591508082111561390657600080fd5b61391236838701612f72565b608084015260a085013591508082111561392b57600080fd5b5061393836828601612f72565b60a08301525061394a60c08401613249565b60c082015292915050565b601f821115610aeb57600081815260208120601f850160051c8101602086101561397c5750805b601f850160051c820191505b81811015611f4857828155600101613988565b815167ffffffffffffffff8111156139b5576139b5612e71565b6139c9816139c38454613436565b84613955565b602080601f8311600181146139fe57600084156139e65750858301515b600019600386901b1c1916600185901b178555611f48565b600085815260208120601f198616915b82811015613a2d57888601518255948401946001909101908401613a0e565b5085821015613a4b5787850151600019600388901b60f8161c191681555b5050505050600190811b01905550565b60208152815160208201526001600160a01b0360208301511660408201526000604083015160e06060840152613a95610100840182612da9565b90506060840151601f1980858403016080860152613ab38383612da9565b925060808601519150808584030160a0860152613ad08383612da9565b925060a08601519150808584030160c086015250613aee8282612da9565b91505060c0840151610d1e60e085018215159052565b808202811582820484141761054457610544613843565b600082613b3857634e487b7160e01b600052601260045260246000fd5b500490565b8082018082111561054457610544613843565b604081526000613b636040830185613161565b8281036020840152613b758185613161565b95945050505050565b60006001600160a01b03808816835280871660208401525084604083015283606083015260a06080830152613bb660a0830184612da9565b979650505050505050565b600060208284031215613bd357600080fd5b8151612d7e81612d4b565b600060033d1115613bf75760046000803e5060005160e01c5b90565b600060443d1015613c085790565b6040516003193d81016004833e81513d67ffffffffffffffff8160248401118184111715613c3857505050505090565b8285019150815181811115613c505750505050505090565b843d8701016020828501011115613c6a5750505050505090565b613c7960208286010187612e87565b509095945050505050565b60006001600160a01b03808816835280871660208401525060a06040830152613cb060a0830186613161565b8281036060840152613cc28186613161565b90508281036080840152613cd68185612da9565b9897505050505050505056fe646174613a6170706c69636174696f6e2f6a736f6e3b757466382c7b226e616d65223a22a2646970667358221220bcc69adf724c2bebe7f3a713cd375bc221c129abcff2015cc4debb16c1b4833a64736f6c63430008110033",
  "linkReferences": {},
  "deployedLinkReferences": {}
}