{
  "_format": "hh-sol-artifact-1",
  "contractName": "Void2122Factory",
  "sourceName": "contracts/Factory.sol",
  "abi": [
    {
      "inputs": [],
      "name": "FactoryInUse",
      "type": "error"
    },
    {
      "inputs": [],
      "name": "InvalidCraft",
      "type": "error"
    },
    {
      "inputs": [],
      "name": "OnlyOwner",
      "type": "error"
    },
    {
      "inputs": [],
      "name": "RewardUnavailable",
      "type": "error"
    },
    {
      "inputs": [],
      "name": "TimerOngoing",
      "type": "error"
    },
    {
      "inputs": [],
      "name": "Unauthorized",
      "type": "error"
    },
    {
      "anonymous": false,
      "inputs": [
        {
          "indexed": true,
          "internalType": "address",
          "name": "owner",
          "type": "address"
        },
        {
          "indexed": true,
          "internalType": "address",
          "name": "approved",
          "type": "address"
        },
        {
          "indexed": true,
          "internalType": "uint256",
          "name": "tokenId",
          "type": "uint256"
        }
      ],
      "name": "Approval",
      "type": "event"
    },
    {
      "anonymous": false,
      "inputs": [
        {
          "indexed": true,
          "internalType": "address",
          "name": "owner",
          "type": "address"
        },
        {
          "indexed": true,
          "internalType": "address",
          "name": "operator",
          "type": "address"
        },
        {
          "indexed": false,
          "internalType": "bool",
          "name": "approved",
          "type": "bool"
        }
      ],
      "name": "ApprovalForAll",
      "type": "event"
    },
    {
      "anonymous": false,
      "inputs": [],
      "name": "CraftClaimed",
      "type": "event"
    },
    {
      "anonymous": false,
      "inputs": [],
      "name": "CraftInitiated",
      "type": "event"
    },
    {
      "anonymous": false,
      "inputs": [
        {
          "components": [
            {
              "internalType": "uint256",
              "name": "id",
              "type": "uint256"
            },
            {
              "internalType": "string",
              "name": "name",
              "type": "string"
            },
            {
              "internalType": "string",
              "name": "description",
              "type": "string"
            },
            {
              "internalType": "string",
              "name": "image",
              "type": "string"
            },
            {
              "internalType": "string",
              "name": "animation",
              "type": "string"
            },
            {
              "internalType": "string",
              "name": "uri",
              "type": "string"
            }
          ],
          "indexed": false,
          "internalType": "struct IFactory.Factory",
          "name": "",
          "type": "tuple"
        }
      ],
      "name": "FactoryCreated",
      "type": "event"
    },
    {
      "anonymous": false,
      "inputs": [
        {
          "indexed": false,
          "internalType": "uint8",
          "name": "version",
          "type": "uint8"
        }
      ],
      "name": "Initialized",
      "type": "event"
    },
    {
      "anonymous": false,
      "inputs": [
        {
          "indexed": true,
          "internalType": "address",
          "name": "from",
          "type": "address"
        },
        {
          "indexed": true,
          "internalType": "address",
          "name": "to",
          "type": "address"
        },
        {
          "indexed": true,
          "internalType": "uint256",
          "name": "tokenId",
          "type": "uint256"
        }
      ],
      "name": "Transfer",
      "type": "event"
    },
    {
      "inputs": [
        {
          "internalType": "address",
          "name": "to",
          "type": "address"
        },
        {
          "internalType": "uint256",
          "name": "tokenId",
          "type": "uint256"
        }
      ],
      "name": "approve",
      "outputs": [],
      "stateMutability": "nonpayable",
      "type": "function"
    },
    {
      "inputs": [
        {
          "internalType": "address",
          "name": "owner",
          "type": "address"
        }
      ],
      "name": "balanceOf",
      "outputs": [
        {
          "internalType": "uint256",
          "name": "",
          "type": "uint256"
        }
      ],
      "stateMutability": "view",
      "type": "function"
    },
    {
      "inputs": [
        {
          "internalType": "uint256",
          "name": "tokenId",
          "type": "uint256"
        }
      ],
      "name": "burn",
      "outputs": [],
      "stateMutability": "nonpayable",
      "type": "function"
    },
    {
      "inputs": [
        {
          "internalType": "uint256",
          "name": "_tokenId",
          "type": "uint256"
        }
      ],
      "name": "claimCraft",
      "outputs": [],
      "stateMutability": "nonpayable",
      "type": "function"
    },
    {
      "inputs": [
        {
          "internalType": "uint256",
          "name": "_tokenId",
          "type": "uint256"
        },
        {
          "internalType": "uint256",
          "name": "_schematicId",
          "type": "uint256"
        }
      ],
      "name": "craft",
      "outputs": [],
      "stateMutability": "nonpayable",
      "type": "function"
    },
    {
      "inputs": [
        {
          "components": [
            {
              "internalType": "uint256",
              "name": "id",
              "type": "uint256"
            },
            {
              "internalType": "string",
              "name": "name",
              "type": "string"
            },
            {
              "internalType": "string",
              "name": "description",
              "type": "string"
            },
            {
              "internalType": "string",
              "name": "image",
              "type": "string"
            },
            {
              "internalType": "string",
              "name": "animation",
              "type": "string"
            },
            {
              "internalType": "string",
              "name": "uri",
              "type": "string"
            }
          ],
          "internalType": "struct IFactory.Factory",
          "name": "_factory",
          "type": "tuple"
        }
      ],
      "name": "createFactory",
      "outputs": [],
      "stateMutability": "nonpayable",
      "type": "function"
    },
    {
      "inputs": [],
      "name": "factoryIds",
      "outputs": [
        {
          "internalType": "uint256",
          "name": "",
          "type": "uint256"
        }
      ],
      "stateMutability": "view",
      "type": "function"
    },
    {
      "inputs": [
        {
          "internalType": "uint256",
          "name": "tokenId",
          "type": "uint256"
        }
      ],
      "name": "getApproved",
      "outputs": [
        {
          "internalType": "address",
          "name": "",
          "type": "address"
        }
      ],
      "stateMutability": "view",
      "type": "function"
    },
    {
      "inputs": [],
      "name": "initialize",
      "outputs": [],
      "stateMutability": "nonpayable",
      "type": "function"
    },
    {
      "inputs": [
        {
          "internalType": "address",
          "name": "owner",
          "type": "address"
        },
        {
          "internalType": "address",
          "name": "operator",
          "type": "address"
        }
      ],
      "name": "isApprovedForAll",
      "outputs": [
        {
          "internalType": "bool",
          "name": "",
          "type": "bool"
        }
      ],
      "stateMutability": "view",
      "type": "function"
    },
    {
      "inputs": [],
      "name": "lootAddress",
      "outputs": [
        {
          "internalType": "address",
          "name": "",
          "type": "address"
        }
      ],
      "stateMutability": "view",
      "type": "function"
    },
    {
      "inputs": [
        {
          "internalType": "address",
          "name": "to",
          "type": "address"
        },
        {
          "internalType": "uint256",
          "name": "id",
          "type": "uint256"
        }
      ],
      "name": "mint",
      "outputs": [],
      "stateMutability": "nonpayable",
      "type": "function"
    },
    {
      "inputs": [],
      "name": "modAddress",
      "outputs": [
        {
          "internalType": "address",
          "name": "",
          "type": "address"
        }
      ],
      "stateMutability": "view",
      "type": "function"
    },
    {
      "inputs": [],
      "name": "name",
      "outputs": [
        {
          "internalType": "string",
          "name": "",
          "type": "string"
        }
      ],
      "stateMutability": "view",
      "type": "function"
    },
    {
      "inputs": [
        {
          "internalType": "uint256",
          "name": "tokenId",
          "type": "uint256"
        }
      ],
      "name": "ownerOf",
      "outputs": [
        {
          "internalType": "address",
          "name": "",
          "type": "address"
        }
      ],
      "stateMutability": "view",
      "type": "function"
    },
    {
      "inputs": [],
      "name": "royalties_recipient",
      "outputs": [
        {
          "internalType": "address",
          "name": "",
          "type": "address"
        }
      ],
      "stateMutability": "view",
      "type": "function"
    },
    {
      "inputs": [],
      "name": "royaltyAmount",
      "outputs": [
        {
          "internalType": "uint256",
          "name": "",
          "type": "uint256"
        }
      ],
      "stateMutability": "view",
      "type": "function"
    },
    {
      "inputs": [
        {
          "internalType": "uint256",
          "name": "salePrice",
          "type": "uint256"
        }
      ],
      "name": "royaltyInfo",
      "outputs": [
        {
          "internalType": "address",
          "name": "",
          "type": "address"
        },
        {
          "internalType": "uint256",
          "name": "",
          "type": "uint256"
        }
      ],
      "stateMutability": "view",
      "type": "function"
    },
    {
      "inputs": [
        {
          "internalType": "address",
          "name": "from",
          "type": "address"
        },
        {
          "internalType": "address",
          "name": "to",
          "type": "address"
        },
        {
          "internalType": "uint256",
          "name": "tokenId",
          "type": "uint256"
        }
      ],
      "name": "safeTransferFrom",
      "outputs": [],
      "stateMutability": "nonpayable",
      "type": "function"
    },
    {
      "inputs": [
        {
          "internalType": "address",
          "name": "from",
          "type": "address"
        },
        {
          "internalType": "address",
          "name": "to",
          "type": "address"
        },
        {
          "internalType": "uint256",
          "name": "tokenId",
          "type": "uint256"
        },
        {
          "internalType": "bytes",
          "name": "data",
          "type": "bytes"
        }
      ],
      "name": "safeTransferFrom",
      "outputs": [],
      "stateMutability": "nonpayable",
      "type": "function"
    },
    {
      "inputs": [],
      "name": "schematicAddress",
      "outputs": [
        {
          "internalType": "address",
          "name": "",
          "type": "address"
        }
      ],
      "stateMutability": "view",
      "type": "function"
    },
    {
      "inputs": [
        {
          "internalType": "address",
          "name": "operator",
          "type": "address"
        },
        {
          "internalType": "bool",
          "name": "approved",
          "type": "bool"
        }
      ],
      "name": "setApprovalForAll",
      "outputs": [],
      "stateMutability": "nonpayable",
      "type": "function"
    },
    {
      "inputs": [
        {
          "internalType": "address",
          "name": "_lootAddress",
          "type": "address"
        }
      ],
      "name": "setLootAddress",
      "outputs": [],
      "stateMutability": "nonpayable",
      "type": "function"
    },
    {
      "inputs": [
        {
          "internalType": "address",
          "name": "_modAddress",
          "type": "address"
        }
      ],
      "name": "setModAddress",
      "outputs": [],
      "stateMutability": "nonpayable",
      "type": "function"
    },
    {
      "inputs": [
        {
          "internalType": "address payable",
          "name": "_recipient",
          "type": "address"
        },
        {
          "internalType": "uint256",
          "name": "_royaltyPerCent",
          "type": "uint256"
        }
      ],
      "name": "setRoyalties",
      "outputs": [],
      "stateMutability": "nonpayable",
      "type": "function"
    },
    {
      "inputs": [
        {
          "internalType": "address",
          "name": "_schematicAddress",
          "type": "address"
        }
      ],
      "name": "setSchematicAddress",
      "outputs": [],
      "stateMutability": "nonpayable",
      "type": "function"
    },
    {
      "inputs": [
        {
          "internalType": "address",
          "name": "_unitAddress",
          "type": "address"
        }
      ],
      "name": "setUnitAddress",
      "outputs": [],
      "stateMutability": "nonpayable",
      "type": "function"
    },
    {
      "inputs": [
        {
          "internalType": "bytes4",
          "name": "interfaceId",
          "type": "bytes4"
        }
      ],
      "name": "supportsInterface",
      "outputs": [
        {
          "internalType": "bool",
          "name": "",
          "type": "bool"
        }
      ],
      "stateMutability": "view",
      "type": "function"
    },
    {
      "inputs": [],
      "name": "symbol",
      "outputs": [
        {
          "internalType": "string",
          "name": "",
          "type": "string"
        }
      ],
      "stateMutability": "view",
      "type": "function"
    },
    {
      "inputs": [
        {
          "internalType": "address",
          "name": "_admin",
          "type": "address"
        }
      ],
      "name": "toggleAdmin",
      "outputs": [],
      "stateMutability": "nonpayable",
      "type": "function"
    },
    {
      "inputs": [
        {
          "internalType": "uint256",
          "name": "_tokenId",
          "type": "uint256"
        }
      ],
      "name": "tokenURI",
      "outputs": [
        {
          "internalType": "string",
          "name": "",
          "type": "string"
        }
      ],
      "stateMutability": "view",
      "type": "function"
    },
    {
      "inputs": [
        {
          "internalType": "address",
          "name": "from",
          "type": "address"
        },
        {
          "internalType": "address",
          "name": "to",
          "type": "address"
        },
        {
          "internalType": "uint256",
          "name": "tokenId",
          "type": "uint256"
        }
      ],
      "name": "transferFrom",
      "outputs": [],
      "stateMutability": "nonpayable",
      "type": "function"
    },
    {
      "inputs": [],
      "name": "unitAddress",
      "outputs": [
        {
          "internalType": "address",
          "name": "",
          "type": "address"
        }
      ],
      "stateMutability": "view",
      "type": "function"
    },
    {
      "inputs": [
        {
          "internalType": "address",
          "name": "recipient",
          "type": "address"
        }
      ],
      "name": "withdraw",
      "outputs": [],
      "stateMutability": "nonpayable",
      "type": "function"
    }
  ],
  "bytecode": "0x608060405234801561001057600080fd5b50613123806100206000396000f3fe608060405234801561001057600080fd5b50600436106102265760003560e01c80636352211e1161012a578063afe5a1c9116100bd578063cf26b44d1161008c578063e985e9c511610071578063e985e9c5146104ac578063eec4aada146104e8578063f1478963146104fb57600080fd5b8063cf26b44d14610486578063d3b861411461049957600080fd5b8063afe5a1c91461041b578063b88d4fde1461042e578063c87b56dd14610441578063cef6d3681461045457600080fd5b80638c7ea24b116100f95780638c7ea24b146103da57806395d89b41146103ed5780639ed4ddd4146103f5578063a22cb4651461040857600080fd5b80636352211e146103a357806370a08231146103b65780637c6e551d146103c95780638129fc1c146103d257600080fd5b8063306e49e7116101bd57806342966c681161018c57806344caf98f1161017157806344caf98f1461036a57806351cff8d91461037d57806352cb25cd1461039057600080fd5b806342966c68146103445780634306e4c91461035757600080fd5b8063306e49e7146102f857806336187c251461030b57806340c10f191461031e57806342842e0e1461033157600080fd5b8063095ea7b3116101f9578063095ea7b3146102aa5780630e439326146102bf57806323b872dd146102d2578063289137a1146102e557600080fd5b806301fe31411461022b57806301ffc9a71461024757806306fdde031461026a578063081812fc1461027f575b600080fd5b61023460975481565b6040519081526020015b60405180910390f35b61025a6102553660046124bf565b61050e565b604051901515815260200161023e565b610272610562565b60405161023e9190612533565b61029261028d366004612546565b6105f4565b6040516001600160a01b03909116815260200161023e565b6102bd6102b8366004612574565b61061b565b005b609854610292906001600160a01b031681565b6102bd6102e03660046125a0565b61076f565b6102bd6102f33660046125e1565b6107e6565b6102bd610306366004612546565b610aad565b609b54610292906001600160a01b031681565b6102bd61032c366004612574565b610cf0565b6102bd61033f3660046125a0565b610d2d565b6102bd610352366004612546565b610d48565b6102bd610365366004612603565b610d54565b6102bd610378366004612620565b610da5565b6102bd61038b366004612603565b610e13565b6102bd61039e366004612603565b610e77565b6102926103b1366004612546565b610ec8565b6102346103c4366004612603565b610f2d565b610234609c5481565b6102bd610fc7565b6102bd6103e8366004612574565b6112a4565b6102726112f9565b6102bd610403366004612603565b611308565b6102bd610416366004612669565b611359565b609d54610292906001600160a01b031681565b6102bd61043c3660046126e9565b611364565b61027261044f366004612546565b6113e2565b610467610462366004612546565b611944565b604080516001600160a01b03909316835260208301919091520161023e565b609954610292906001600160a01b031681565b6102bd6104a7366004612603565b611997565b61025a6104ba3660046127ad565b6001600160a01b039182166000908152606a6020908152604080832093909416825291909152205460ff1690565b609a54610292906001600160a01b031681565b6102bd610509366004612603565b6119ef565b600061051982611a40565b8061054d57506001600160e01b031982167f2a55205a00000000000000000000000000000000000000000000000000000000145b8061055c575061055c82611a40565b92915050565b606060658054610571906127db565b80601f016020809104026020016040519081016040528092919081815260200182805461059d906127db565b80156105ea5780601f106105bf576101008083540402835291602001916105ea565b820191906000526020600020905b8154815290600101906020018083116105cd57829003601f168201915b5050505050905090565b60006105ff82611adb565b506000908152606960205260409020546001600160a01b031690565b600061062682610ec8565b9050806001600160a01b0316836001600160a01b0316036106b45760405162461bcd60e51b815260206004820152602160248201527f4552433732313a20617070726f76616c20746f2063757272656e74206f776e6560448201527f720000000000000000000000000000000000000000000000000000000000000060648201526084015b60405180910390fd5b336001600160a01b03821614806106ee57506001600160a01b0381166000908152606a6020908152604080832033845290915290205460ff165b6107605760405162461bcd60e51b815260206004820152603d60248201527f4552433732313a20617070726f76652063616c6c6572206973206e6f7420746f60448201527f6b656e206f776e6572206f7220617070726f76656420666f7220616c6c00000060648201526084016106ab565b61076a8383611b3f565b505050565b6107793382611bad565b6107db5760405162461bcd60e51b815260206004820152602d60248201527f4552433732313a2063616c6c6572206973206e6f7420746f6b656e206f776e6560448201526c1c881bdc88185c1c1c9bdd9959609a1b60648201526084016106ab565b61076a838383611c2c565b6107ef82610ec8565b6001600160a01b0316336001600160a01b03161461082057604051635fc483c560e01b815260040160405180910390fd5b600082815260a06020526040902054421015610868576040517f8c63c75100000000000000000000000000000000000000000000000000000000815260040160405180910390fd5b609a546040517f89abeb300000000000000000000000000000000000000000000000000000000081526004810183905260009182918291829182916001600160a01b0316906389abeb3090602401600060405180830381865afa1580156108d3573d6000803e3d6000fd5b505050506040513d6000823e601f3d908101601f191682016040526108fb9190810190612895565b945094509450945094508460000361093f576040517f9b48807100000000000000000000000000000000000000000000000000000000815260040160405180910390fd5b609a546040517fb390c0ab00000000000000000000000000000000000000000000000000000000815260048101889052600160248201526001600160a01b039091169063b390c0ab90604401600060405180830381600087803b1580156109a557600080fd5b505af11580156109b9573d6000803e3d6000fd5b50506098546040517f83ca4b6f0000000000000000000000000000000000000000000000000000000081526001600160a01b0390911692506383ca4b6f9150610a08908590859060040161295b565b600060405180830381600087803b158015610a2257600080fd5b505af1158015610a36573d6000803e3d6000fd5b505050600088815260a16020908152604080832089905560a29091529020805460ff191686151517905550610a6b834261299f565b600088815260a060205260408082209290925590517f24542d6344dd96b3e647918426cfd1fa75afdc5898ec855bb8632d66d1676d119190a150505050505050565b600081815260a06020526040902054421015610af5576040517fd5da5d3800000000000000000000000000000000000000000000000000000000815260040160405180910390fd5b600081815260a160205260408120549003610b3c576040517f8a7fe3be00000000000000000000000000000000000000000000000000000000815260040160405180910390fd5b610b4581610ec8565b6001600160a01b0316336001600160a01b031614610b7657604051635fc483c560e01b815260040160405180910390fd5b600081815260a2602052604090205460ff1615610c2057609b54600082815260a16020526040908190205490517f40c10f1900000000000000000000000000000000000000000000000000000000815233600482015260248101919091526001600160a01b03909116906340c10f1990604401600060405180830381600087803b158015610c0357600080fd5b505af1158015610c17573d6000803e3d6000fd5b50505050610cb6565b609954600082815260a16020526040908190205490517f156e29f60000000000000000000000000000000000000000000000000000000081523360048201526024810191909152600160448201526001600160a01b039091169063156e29f690606401600060405180830381600087803b158015610c9d57600080fd5b505af1158015610cb1573d6000803e3d6000fd5b505050505b600081815260a16020526040808220829055517fc68ae18ed06df50f675d2a8a89722cbc7650d98199db83db6a9f242ef9c575719190a150565b336000908152609f602052604090205460ff16610d1f576040516282b42960e81b815260040160405180910390fd5b610d298282611e25565b5050565b61076a83838360405180602001604052806000815250611364565b610d5181611fb0565b50565b336000908152609f602052604090205460ff16610d83576040516282b42960e81b815260040160405180910390fd5b609880546001600160a01b0319166001600160a01b0392909216919091179055565b6097546000908152609e602052604090208190610dc28282612b0f565b505060978054906000610dd483612c54565b91905055507f0337285774f0cbfc07bfdad25a7dc976633c9a6f9732605dee875818b716298a81604051610e089190612cdc565b60405180910390a150565b336000908152609f602052604090205460ff16610e42576040516282b42960e81b815260040160405180910390fd5b6040516001600160a01b038216904780156108fc02916000818181858888f19350505050158015610d29573d6000803e3d6000fd5b336000908152609f602052604090205460ff16610ea6576040516282b42960e81b815260040160405180910390fd5b609a80546001600160a01b0319166001600160a01b0392909216919091179055565b6000818152606760205260408120546001600160a01b03168061055c5760405162461bcd60e51b815260206004820152601860248201527f4552433732313a20696e76616c696420746f6b656e204944000000000000000060448201526064016106ab565b60006001600160a01b038216610fab5760405162461bcd60e51b815260206004820152602960248201527f4552433732313a2061646472657373207a65726f206973206e6f74206120766160448201527f6c6964206f776e6572000000000000000000000000000000000000000000000060648201526084016106ab565b506001600160a01b031660009081526068602052604090205490565b600054610100900460ff1615808015610fe75750600054600160ff909116105b806110015750303b158015611001575060005460ff166001145b6110735760405162461bcd60e51b815260206004820152602e60248201527f496e697469616c697a61626c653a20636f6e747261637420697320616c72656160448201527f647920696e697469616c697a656400000000000000000000000000000000000060648201526084016106ab565b6000805460ff191660011790558015611096576000805461ff0019166101001790555b6110e46040518060400160405280601581526020017f566f69642032313232202d20466163746f72696573000000000000000000000081525060405180602001604052806000815250612045565b60016097819055600a609c55609d80546001600160a01b031916339081179091556000908152609f602052604090819020805460ff191690921790915580516101208101909152602460c0820181815282916130ca60e08401398152604080518082018252601281527f222c20226465736372697074696f6e223a2200000000000000000000000000006020828101919091528084019190915281518083018352600c81527f222c2022696d616765223a220000000000000000000000000000000000000000818301528284015281518083018352601081527f222c2022616e696d6174696f6e223a220000000000000000000000000000000081830152606084015281518083018352601181527f222c202261747472696275746573223a5b0000000000000000000000000000008183015260808401528151808301909252600282527f5d7d0000000000000000000000000000000000000000000000000000000000009082015260a0909101526112619060a39060066123ec565b508015610d51576000805461ff0019169055604051600181527f7f26b83ff96e1f2b6a682f133852f6798a09c465da95921460cefb384740249890602001610e08565b336000908152609f602052604090205460ff166112d3576040516282b42960e81b815260040160405180910390fd5b609d80546001600160a01b0319166001600160a01b039390931692909217909155609c55565b606060668054610571906127db565b336000908152609f602052604090205460ff16611337576040516282b42960e81b815260040160405180910390fd5b609b80546001600160a01b0319166001600160a01b0392909216919091179055565b610d293383836120ba565b61136e3383611bad565b6113d05760405162461bcd60e51b815260206004820152602d60248201527f4552433732313a2063616c6c6572206973206e6f7420746f6b656e206f776e6560448201526c1c881bdc88185c1c1c9bdd9959609a1b60648201526084016106ab565b6113dc84848484612188565b50505050565b6000818152609e60209081526040808320815160c08101909252805482526001810180546060959484019190611417906127db565b80601f0160208091040260200160405190810160405280929190818152602001828054611443906127db565b80156114905780601f1061146557610100808354040283529160200191611490565b820191906000526020600020905b81548152906001019060200180831161147357829003601f168201915b505050505081526020016002820180546114a9906127db565b80601f01602080910402602001604051908101604052809291908181526020018280546114d5906127db565b80156115225780601f106114f757610100808354040283529160200191611522565b820191906000526020600020905b81548152906001019060200180831161150557829003601f168201915b5050505050815260200160038201805461153b906127db565b80601f0160208091040260200160405190810160405280929190818152602001828054611567906127db565b80156115b45780601f10611589576101008083540402835291602001916115b4565b820191906000526020600020905b81548152906001019060200180831161159757829003601f168201915b505050505081526020016004820180546115cd906127db565b80601f01602080910402602001604051908101604052809291908181526020018280546115f9906127db565b80156116465780601f1061161b57610100808354040283529160200191611646565b820191906000526020600020905b81548152906001019060200180831161162957829003601f168201915b5050505050815260200160058201805461165f906127db565b80601f016020809104026020016040519081016040528092919081815260200182805461168b906127db565b80156116d85780601f106116ad576101008083540402835291602001916116d8565b820191906000526020600020905b8154815290600101906020018083116116bb57829003601f168201915b50505091909252505050600084815260a06020526040812054919250904210611736576040518060400160405280600581526020017f46616c736500000000000000000000000000000000000000000000000000000081525061176d565b6040518060400160405280600481526020017f54727565000000000000000000000000000000000000000000000000000000008152505b60405160200161177d9190612db6565b6040516020818303038152906040529050600060a36000815481106117a4576117a4612e48565b9060005260206000200183602001516040516020016117c4929190612ed1565b60405160208183030381529060405260a36001815481106117e7576117e7612e48565b906000526020600020018460400151604051602001611807929190612ed1565b60405160208183030381529060405260a360028154811061182a5761182a612e48565b90600052602060002001856060015160405160200161184a929190612ed1565b60405160208183030381529060405260a360038154811061186d5761186d612e48565b90600052602060002001866080015160405160200161188d929190612ed1565b60405160208183030381529060405260a36004815481106118b0576118b0612e48565b90600052602060002001866040516020016118cc929190612ed1565b60405160208183030381529060405260a36005815481106118ef576118ef612e48565b906000526020600020016040516020016119099190612ef6565b60408051601f198184030181529082905261192b969594939291602001612f02565b60408051601f1981840301815291905295945050505050565b609d5460009081906001600160a01b03161561198c57609d54609c546001600160a01b03909116906064906119799086612f81565b6119839190612f98565b91509150915091565b506000928392509050565b336000908152609f602052604090205460ff166119c6576040516282b42960e81b815260040160405180910390fd5b6001600160a01b03166000908152609f60205260409020805460ff19811660ff90911615179055565b336000908152609f602052604090205460ff16611a1e576040516282b42960e81b815260040160405180910390fd5b609980546001600160a01b0319166001600160a01b0392909216919091179055565b60006001600160e01b031982167f80ac58cd000000000000000000000000000000000000000000000000000000001480611aa357506001600160e01b031982167f5b5e139f00000000000000000000000000000000000000000000000000000000145b8061055c57507f01ffc9a7000000000000000000000000000000000000000000000000000000006001600160e01b031983161461055c565b6000818152606760205260409020546001600160a01b0316610d515760405162461bcd60e51b815260206004820152601860248201527f4552433732313a20696e76616c696420746f6b656e204944000000000000000060448201526064016106ab565b600081815260696020526040902080546001600160a01b0319166001600160a01b0384169081179091558190611b7482610ec8565b6001600160a01b03167f8c5be1e5ebec7d5bd14f71427d1e84f3dd0314c0f7b2291e5b200ac8c7c3b92560405160405180910390a45050565b600080611bb983610ec8565b9050806001600160a01b0316846001600160a01b03161480611c0057506001600160a01b038082166000908152606a602090815260408083209388168352929052205460ff165b80611c245750836001600160a01b0316611c19846105f4565b6001600160a01b0316145b949350505050565b826001600160a01b0316611c3f82610ec8565b6001600160a01b031614611ca35760405162461bcd60e51b815260206004820152602560248201527f4552433732313a207472616e736665722066726f6d20696e636f72726563742060448201526437bbb732b960d91b60648201526084016106ab565b6001600160a01b038216611d1e5760405162461bcd60e51b8152602060048201526024808201527f4552433732313a207472616e7366657220746f20746865207a65726f2061646460448201527f726573730000000000000000000000000000000000000000000000000000000060648201526084016106ab565b826001600160a01b0316611d3182610ec8565b6001600160a01b031614611d955760405162461bcd60e51b815260206004820152602560248201527f4552433732313a207472616e736665722066726f6d20696e636f72726563742060448201526437bbb732b960d91b60648201526084016106ab565b600081815260696020908152604080832080546001600160a01b03199081169091556001600160a01b0387811680865260688552838620805460001901905590871680865283862080546001019055868652606790945282852080549092168417909155905184937fddf252ad1be2c89b69c2b068fc378daa952ba7f163c4a11628f55a4df523b3ef91a4505050565b6001600160a01b038216611e7b5760405162461bcd60e51b815260206004820181905260248201527f4552433732313a206d696e7420746f20746865207a65726f206164647265737360448201526064016106ab565b6000818152606760205260409020546001600160a01b031615611ee05760405162461bcd60e51b815260206004820152601c60248201527f4552433732313a20746f6b656e20616c7265616479206d696e7465640000000060448201526064016106ab565b6000818152606760205260409020546001600160a01b031615611f455760405162461bcd60e51b815260206004820152601c60248201527f4552433732313a20746f6b656e20616c7265616479206d696e7465640000000060448201526064016106ab565b6001600160a01b038216600081815260686020908152604080832080546001019055848352606790915280822080546001600160a01b0319168417905551839291907fddf252ad1be2c89b69c2b068fc378daa952ba7f163c4a11628f55a4df523b3ef908290a45050565b6000611fbb82610ec8565b9050611fc682610ec8565b600083815260696020908152604080832080546001600160a01b03199081169091556001600160a01b0385168085526068845282852080546000190190558785526067909352818420805490911690555192935084927fddf252ad1be2c89b69c2b068fc378daa952ba7f163c4a11628f55a4df523b3ef908390a45050565b600054610100900460ff166120b05760405162461bcd60e51b815260206004820152602b60248201527f496e697469616c697a61626c653a20636f6e7472616374206973206e6f74206960448201526a6e697469616c697a696e6760a81b60648201526084016106ab565b610d298282612211565b816001600160a01b0316836001600160a01b03160361211b5760405162461bcd60e51b815260206004820152601960248201527f4552433732313a20617070726f766520746f2063616c6c65720000000000000060448201526064016106ab565b6001600160a01b038381166000818152606a6020908152604080832094871680845294825291829020805460ff191686151590811790915591519182527f17307eab39ab6107e8899845ad3d59bd9653f200f220920489ca2b5937696c31910160405180910390a3505050565b612193848484611c2c565b61219f84848484612295565b6113dc5760405162461bcd60e51b815260206004820152603260248201527f4552433732313a207472616e7366657220746f206e6f6e20455243373231526560448201527f63656976657220696d706c656d656e746572000000000000000000000000000060648201526084016106ab565b600054610100900460ff1661227c5760405162461bcd60e51b815260206004820152602b60248201527f496e697469616c697a61626c653a20636f6e7472616374206973206e6f74206960448201526a6e697469616c697a696e6760a81b60648201526084016106ab565b60656122888382612fba565b50606661076a8282612fba565b60006001600160a01b0384163b156123e157604051630a85bd0160e11b81526001600160a01b0385169063150b7a02906122d990339089908890889060040161307a565b6020604051808303816000875af1925050508015612314575060408051601f3d908101601f19168201909252612311918101906130ac565b60015b6123c7573d808015612342576040519150601f19603f3d011682016040523d82523d6000602084013e612347565b606091505b5080516000036123bf5760405162461bcd60e51b815260206004820152603260248201527f4552433732313a207472616e7366657220746f206e6f6e20455243373231526560448201527f63656976657220696d706c656d656e746572000000000000000000000000000060648201526084016106ab565b805181602001fd5b6001600160e01b031916630a85bd0160e11b149050611c24565b506001949350505050565b828054828255906000526020600020908101928215612432579160200282015b8281111561243257825182906124229082612fba565b509160200191906001019061240c565b5061243e929150612442565b5090565b8082111561243e576000612456828261245f565b50600101612442565b50805461246b906127db565b6000825580601f1061247b575050565b601f016020900490600052602060002090810190610d5191905b8082111561243e5760008155600101612495565b6001600160e01b031981168114610d5157600080fd5b6000602082840312156124d157600080fd5b81356124dc816124a9565b9392505050565b60005b838110156124fe5781810151838201526020016124e6565b50506000910152565b6000815180845261251f8160208601602086016124e3565b601f01601f19169290920160200192915050565b6020815260006124dc6020830184612507565b60006020828403121561255857600080fd5b5035919050565b6001600160a01b0381168114610d5157600080fd5b6000806040838503121561258757600080fd5b82356125928161255f565b946020939093013593505050565b6000806000606084860312156125b557600080fd5b83356125c08161255f565b925060208401356125d08161255f565b929592945050506040919091013590565b600080604083850312156125f457600080fd5b50508035926020909101359150565b60006020828403121561261557600080fd5b81356124dc8161255f565b60006020828403121561263257600080fd5b813567ffffffffffffffff81111561264957600080fd5b820160c081850312156124dc57600080fd5b8015158114610d5157600080fd5b6000806040838503121561267c57600080fd5b82356126878161255f565b915060208301356126978161265b565b809150509250929050565b634e487b7160e01b600052604160045260246000fd5b604051601f8201601f1916810167ffffffffffffffff811182821017156126e1576126e16126a2565b604052919050565b600080600080608085870312156126ff57600080fd5b843561270a8161255f565b935060208581013561271b8161255f565b935060408601359250606086013567ffffffffffffffff8082111561273f57600080fd5b818801915088601f83011261275357600080fd5b813581811115612765576127656126a2565b612777601f8201601f191685016126b8565b9150808252898482850101111561278d57600080fd5b808484018584013760008482840101525080935050505092959194509250565b600080604083850312156127c057600080fd5b82356127cb8161255f565b915060208301356126978161255f565b600181811c908216806127ef57607f821691505b60208210810361280f57634e487b7160e01b600052602260045260246000fd5b50919050565b600082601f83011261282657600080fd5b8151602067ffffffffffffffff821115612842576128426126a2565b8160051b6128518282016126b8565b928352848101820192828101908785111561286b57600080fd5b83870192505b8483101561288a57825182529183019190830190612871565b979650505050505050565b600080600080600060a086880312156128ad57600080fd5b8551945060208601516128bf8161265b565b60408701516060880151919550935067ffffffffffffffff808211156128e457600080fd5b6128f089838a01612815565b9350608088015191508082111561290657600080fd5b5061291388828901612815565b9150509295509295909350565b600081518084526020808501945080840160005b8381101561295057815187529582019590820190600101612934565b509495945050505050565b60408152600061296e6040830185612920565b82810360208401526129808185612920565b95945050505050565b634e487b7160e01b600052601160045260246000fd5b8082018082111561055c5761055c612989565b6000808335601e198436030181126129c957600080fd5b83018035915067ffffffffffffffff8211156129e457600080fd5b6020019150368190038213156129f957600080fd5b9250929050565b601f82111561076a57600081815260208120601f850160051c81016020861015612a275750805b601f850160051c820191505b81811015612a4657828155600101612a33565b505050505050565b67ffffffffffffffff831115612a6657612a666126a2565b612a7a83612a7483546127db565b83612a00565b6000601f841160018114612aae5760008515612a965750838201355b600019600387901b1c1916600186901b178355612b08565b600083815260209020601f19861690835b82811015612adf5786850135825560209485019460019092019101612abf565b5086821015612afc5760001960f88860031b161c19848701351681555b505060018560011b0183555b5050505050565b8135815560018082016020612b26818601866129b2565b67ffffffffffffffff811115612b3e57612b3e6126a2565b612b5281612b4c86546127db565b86612a00565b6000601f821160018114612b865760008315612b6e5750838201355b600019600385901b1c1916600184901b178655612bdb565b600086815260209020601f19841690835b82811015612bb45786850135825593870193908901908701612b97565b5084821015612bd15760001960f88660031b161c19848701351681555b50508683881b0186555b50505050505050612bef60408301836129b2565b612bfd818360028601612a4e565b5050612c0c60608301836129b2565b612c1a818360038601612a4e565b5050612c2960808301836129b2565b612c37818360048601612a4e565b5050612c4660a08301836129b2565b6113dc818360058601612a4e565b600060018201612c6657612c66612989565b5060010190565b6000808335601e19843603018112612c8457600080fd5b830160208101925035905067ffffffffffffffff811115612ca457600080fd5b8036038213156129f957600080fd5b81835281816020850137506000828201602090810191909152601f909101601f19169091010190565b60208152813560208201526000612cf66020840184612c6d565b60c06040850152612d0b60e085018284612cb3565b915050612d1b6040850185612c6d565b601f1980868503016060870152612d33848385612cb3565b9350612d426060880188612c6d565b9350915080868503016080870152612d5b848484612cb3565b9350612d6a6080880188612c6d565b93509150808685030160a0870152612d83848484612cb3565b9350612d9260a0880188612c6d565b93509150808685030160c087015250612dac838383612cb3565b9695505050505050565b7f7b2274726169745f74797065223a20224275696c64696e6720556e6974222c2081527f2276616c7565223a202200000000000000000000000000000000000000000000602082015260008251612e1481602a8501602087016124e3565b7f227d000000000000000000000000000000000000000000000000000000000000602a939091019283015250602c01919050565b634e487b7160e01b600052603260045260246000fd5b60008154612e6b816127db565b60018281168015612e835760018114612e9857612ec7565b60ff1984168752821515830287019450612ec7565b8560005260208060002060005b85811015612ebe5781548a820152908401908201612ea5565b50505082870194505b5050505092915050565b6000612edd8285612e5e565b8351612eed8183602088016124e3565b01949350505050565b60006124dc8284612e5e565b600087516020612f158285838d016124e3565b885191840191612f288184848d016124e3565b8851920191612f3a8184848c016124e3565b8751920191612f4c8184848b016124e3565b8651920191612f5e8184848a016124e3565b8551920191612f7081848489016124e3565b919091019998505050505050505050565b808202811582820484141761055c5761055c612989565b600082612fb557634e487b7160e01b600052601260045260246000fd5b500490565b815167ffffffffffffffff811115612fd457612fd46126a2565b612fe881612fe284546127db565b84612a00565b602080601f83116001811461301d57600084156130055750858301515b600019600386901b1c1916600185901b178555612a46565b600085815260208120601f198616915b8281101561304c5788860151825594840194600190910190840161302d565b508582101561306a5787850151600019600388901b60f8161c191681555b5050505050600190811b01905550565b60006001600160a01b03808716835280861660208401525083604083015260806060830152612dac6080830184612507565b6000602082840312156130be57600080fd5b81516124dc816124a956fe646174613a6170706c69636174696f6e2f6a736f6e3b757466382c7b226e616d65223a22a26469706673582212205a3a0af568dbb579e5d6d8362726a4d9eb9b2b66cc2ca4ab1bab563f658889b764736f6c63430008110033",
  "linkReferences": {},
  "deployedLinkReferences": {}
}