{
  "_format": "hh-sol-artifact-1",
  "contractName": "Void2122Schematic",
  "sourceName": "contracts/Schematic.sol",
  "abi": [
    {
      "inputs": [],
      "name": "InvalidLoots",
      "type": "error"
    },
    {
      "inputs": [],
      "name": "Unauthorized",
      "type": "error"
    },
    {
      "anonymous": false,
      "inputs": [
        {
          "indexed": true,
          "internalType": "address",
          "name": "account",
          "type": "address"
        },
        {
          "indexed": true,
          "internalType": "address",
          "name": "operator",
          "type": "address"
        },
        {
          "indexed": false,
          "internalType": "bool",
          "name": "approved",
          "type": "bool"
        }
      ],
      "name": "ApprovalForAll",
      "type": "event"
    },
    {
      "anonymous": false,
      "inputs": [
        {
          "indexed": false,
          "internalType": "uint8",
          "name": "version",
          "type": "uint8"
        }
      ],
      "name": "Initialized",
      "type": "event"
    },
    {
      "anonymous": false,
      "inputs": [
        {
          "components": [
            {
              "internalType": "uint256",
              "name": "id",
              "type": "uint256"
            },
            {
              "internalType": "string",
              "name": "name",
              "type": "string"
            },
            {
              "internalType": "string",
              "name": "description",
              "type": "string"
            },
            {
              "internalType": "string",
              "name": "image",
              "type": "string"
            },
            {
              "internalType": "string",
              "name": "animation",
              "type": "string"
            },
            {
              "internalType": "string",
              "name": "uri",
              "type": "string"
            },
            {
              "internalType": "uint256",
              "name": "constructionTime",
              "type": "uint256"
            },
            {
              "internalType": "uint256[]",
              "name": "inputs",
              "type": "uint256[]"
            },
            {
              "internalType": "uint256[]",
              "name": "inputAmounts",
              "type": "uint256[]"
            },
            {
              "internalType": "uint256",
              "name": "output",
              "type": "uint256"
            },
            {
              "internalType": "bool",
              "name": "outputIsUnit",
              "type": "bool"
            }
          ],
          "indexed": false,
          "internalType": "struct ISchematics.Schematics",
          "name": "",
          "type": "tuple"
        }
      ],
      "name": "SchematicCreated",
      "type": "event"
    },
    {
      "anonymous": false,
      "inputs": [
        {
          "indexed": true,
          "internalType": "address",
          "name": "operator",
          "type": "address"
        },
        {
          "indexed": true,
          "internalType": "address",
          "name": "from",
          "type": "address"
        },
        {
          "indexed": true,
          "internalType": "address",
          "name": "to",
          "type": "address"
        },
        {
          "indexed": false,
          "internalType": "uint256[]",
          "name": "ids",
          "type": "uint256[]"
        },
        {
          "indexed": false,
          "internalType": "uint256[]",
          "name": "values",
          "type": "uint256[]"
        }
      ],
      "name": "TransferBatch",
      "type": "event"
    },
    {
      "anonymous": false,
      "inputs": [
        {
          "indexed": true,
          "internalType": "address",
          "name": "operator",
          "type": "address"
        },
        {
          "indexed": true,
          "internalType": "address",
          "name": "from",
          "type": "address"
        },
        {
          "indexed": true,
          "internalType": "address",
          "name": "to",
          "type": "address"
        },
        {
          "indexed": false,
          "internalType": "uint256",
          "name": "id",
          "type": "uint256"
        },
        {
          "indexed": false,
          "internalType": "uint256",
          "name": "value",
          "type": "uint256"
        }
      ],
      "name": "TransferSingle",
      "type": "event"
    },
    {
      "anonymous": false,
      "inputs": [
        {
          "indexed": false,
          "internalType": "string",
          "name": "value",
          "type": "string"
        },
        {
          "indexed": true,
          "internalType": "uint256",
          "name": "id",
          "type": "uint256"
        }
      ],
      "name": "URI",
      "type": "event"
    },
    {
      "inputs": [
        {
          "internalType": "address",
          "name": "account",
          "type": "address"
        },
        {
          "internalType": "uint256",
          "name": "id",
          "type": "uint256"
        }
      ],
      "name": "balanceOf",
      "outputs": [
        {
          "internalType": "uint256",
          "name": "",
          "type": "uint256"
        }
      ],
      "stateMutability": "view",
      "type": "function"
    },
    {
      "inputs": [
        {
          "internalType": "address[]",
          "name": "accounts",
          "type": "address[]"
        },
        {
          "internalType": "uint256[]",
          "name": "ids",
          "type": "uint256[]"
        }
      ],
      "name": "balanceOfBatch",
      "outputs": [
        {
          "internalType": "uint256[]",
          "name": "",
          "type": "uint256[]"
        }
      ],
      "stateMutability": "view",
      "type": "function"
    },
    {
      "inputs": [
        {
          "internalType": "uint256",
          "name": "tokenId",
          "type": "uint256"
        },
        {
          "internalType": "uint256",
          "name": "quantity",
          "type": "uint256"
        }
      ],
      "name": "burn",
      "outputs": [],
      "stateMutability": "nonpayable",
      "type": "function"
    },
    {
      "inputs": [
        {
          "internalType": "uint256[]",
          "name": "ids",
          "type": "uint256[]"
        },
        {
          "internalType": "uint256[]",
          "name": "amounts",
          "type": "uint256[]"
        }
      ],
      "name": "burnBatch",
      "outputs": [],
      "stateMutability": "nonpayable",
      "type": "function"
    },
    {
      "inputs": [],
      "name": "contractName",
      "outputs": [
        {
          "internalType": "string",
          "name": "",
          "type": "string"
        }
      ],
      "stateMutability": "view",
      "type": "function"
    },
    {
      "inputs": [
        {
          "components": [
            {
              "internalType": "uint256",
              "name": "id",
              "type": "uint256"
            },
            {
              "internalType": "string",
              "name": "name",
              "type": "string"
            },
            {
              "internalType": "string",
              "name": "description",
              "type": "string"
            },
            {
              "internalType": "string",
              "name": "image",
              "type": "string"
            },
            {
              "internalType": "string",
              "name": "animation",
              "type": "string"
            },
            {
              "internalType": "string",
              "name": "uri",
              "type": "string"
            },
            {
              "internalType": "uint256",
              "name": "constructionTime",
              "type": "uint256"
            },
            {
              "internalType": "uint256[]",
              "name": "inputs",
              "type": "uint256[]"
            },
            {
              "internalType": "uint256[]",
              "name": "inputAmounts",
              "type": "uint256[]"
            },
            {
              "internalType": "uint256",
              "name": "output",
              "type": "uint256"
            },
            {
              "internalType": "bool",
              "name": "outputIsUnit",
              "type": "bool"
            }
          ],
          "internalType": "struct ISchematics.Schematics",
          "name": "_schematics",
          "type": "tuple"
        }
      ],
      "name": "createSchematic",
      "outputs": [],
      "stateMutability": "nonpayable",
      "type": "function"
    },
    {
      "inputs": [],
      "name": "initialize",
      "outputs": [],
      "stateMutability": "nonpayable",
      "type": "function"
    },
    {
      "inputs": [
        {
          "internalType": "address",
          "name": "account",
          "type": "address"
        },
        {
          "internalType": "address",
          "name": "operator",
          "type": "address"
        }
      ],
      "name": "isApprovedForAll",
      "outputs": [
        {
          "internalType": "bool",
          "name": "",
          "type": "bool"
        }
      ],
      "stateMutability": "view",
      "type": "function"
    },
    {
      "inputs": [
        {
          "internalType": "address",
          "name": "to",
          "type": "address"
        },
        {
          "internalType": "uint256",
          "name": "id",
          "type": "uint256"
        },
        {
          "internalType": "uint256",
          "name": "amount",
          "type": "uint256"
        }
      ],
      "name": "mint",
      "outputs": [],
      "stateMutability": "nonpayable",
      "type": "function"
    },
    {
      "inputs": [
        {
          "internalType": "address",
          "name": "to",
          "type": "address"
        },
        {
          "internalType": "uint256[]",
          "name": "ids",
          "type": "uint256[]"
        },
        {
          "internalType": "uint256[]",
          "name": "amounts",
          "type": "uint256[]"
        }
      ],
      "name": "mintBatch",
      "outputs": [],
      "stateMutability": "nonpayable",
      "type": "function"
    },
    {
      "inputs": [],
      "name": "name",
      "outputs": [
        {
          "internalType": "string",
          "name": "",
          "type": "string"
        }
      ],
      "stateMutability": "pure",
      "type": "function"
    },
    {
      "inputs": [],
      "name": "royalties_recipient",
      "outputs": [
        {
          "internalType": "address",
          "name": "",
          "type": "address"
        }
      ],
      "stateMutability": "view",
      "type": "function"
    },
    {
      "inputs": [],
      "name": "royaltyAmount",
      "outputs": [
        {
          "internalType": "uint256",
          "name": "",
          "type": "uint256"
        }
      ],
      "stateMutability": "view",
      "type": "function"
    },
    {
      "inputs": [
        {
          "internalType": "uint256",
          "name": "salePrice",
          "type": "uint256"
        }
      ],
      "name": "royaltyInfo",
      "outputs": [
        {
          "internalType": "address",
          "name": "",
          "type": "address"
        },
        {
          "internalType": "uint256",
          "name": "",
          "type": "uint256"
        }
      ],
      "stateMutability": "view",
      "type": "function"
    },
    {
      "inputs": [
        {
          "internalType": "address",
          "name": "from",
          "type": "address"
        },
        {
          "internalType": "address",
          "name": "to",
          "type": "address"
        },
        {
          "internalType": "uint256[]",
          "name": "ids",
          "type": "uint256[]"
        },
        {
          "internalType": "uint256[]",
          "name": "amounts",
          "type": "uint256[]"
        },
        {
          "internalType": "bytes",
          "name": "data",
          "type": "bytes"
        }
      ],
      "name": "safeBatchTransferFrom",
      "outputs": [],
      "stateMutability": "nonpayable",
      "type": "function"
    },
    {
      "inputs": [
        {
          "internalType": "address",
          "name": "from",
          "type": "address"
        },
        {
          "internalType": "address",
          "name": "to",
          "type": "address"
        },
        {
          "internalType": "uint256",
          "name": "id",
          "type": "uint256"
        },
        {
          "internalType": "uint256",
          "name": "amount",
          "type": "uint256"
        },
        {
          "internalType": "bytes",
          "name": "data",
          "type": "bytes"
        }
      ],
      "name": "safeTransferFrom",
      "outputs": [],
      "stateMutability": "nonpayable",
      "type": "function"
    },
    {
      "inputs": [],
      "name": "schematicsIds",
      "outputs": [
        {
          "internalType": "uint256",
          "name": "",
          "type": "uint256"
        }
      ],
      "stateMutability": "view",
      "type": "function"
    },
    {
      "inputs": [
        {
          "internalType": "address",
          "name": "operator",
          "type": "address"
        },
        {
          "internalType": "bool",
          "name": "approved",
          "type": "bool"
        }
      ],
      "name": "setApprovalForAll",
      "outputs": [],
      "stateMutability": "nonpayable",
      "type": "function"
    },
    {
      "inputs": [
        {
          "internalType": "address payable",
          "name": "_recipient",
          "type": "address"
        },
        {
          "internalType": "uint256",
          "name": "_royaltyPerCent",
          "type": "uint256"
        }
      ],
      "name": "setRoyalties",
      "outputs": [],
      "stateMutability": "nonpayable",
      "type": "function"
    },
    {
      "inputs": [
        {
          "internalType": "bytes4",
          "name": "interfaceId",
          "type": "bytes4"
        }
      ],
      "name": "supportsInterface",
      "outputs": [
        {
          "internalType": "bool",
          "name": "",
          "type": "bool"
        }
      ],
      "stateMutability": "view",
      "type": "function"
    },
    {
      "inputs": [
        {
          "internalType": "address",
          "name": "_admin",
          "type": "address"
        }
      ],
      "name": "toggleAdmin",
      "outputs": [],
      "stateMutability": "nonpayable",
      "type": "function"
    },
    {
      "inputs": [
        {
          "internalType": "uint256",
          "name": "_tokenId",
          "type": "uint256"
        }
      ],
      "name": "uri",
      "outputs": [
        {
          "internalType": "string",
          "name": "",
          "type": "string"
        }
      ],
      "stateMutability": "view",
      "type": "function"
    },
    {
      "inputs": [
        {
          "internalType": "uint256",
          "name": "_schematicsId",
          "type": "uint256"
        }
      ],
      "name": "validateCraft",
      "outputs": [
        {
          "internalType": "uint256",
          "name": "",
          "type": "uint256"
        },
        {
          "internalType": "bool",
          "name": "",
          "type": "bool"
        },
        {
          "internalType": "uint256",
          "name": "",
          "type": "uint256"
        },
        {
          "internalType": "uint256[]",
          "name": "",
          "type": "uint256[]"
        },
        {
          "internalType": "uint256[]",
          "name": "",
          "type": "uint256[]"
        }
      ],
      "stateMutability": "view",
      "type": "function"
    },
    {
      "inputs": [
        {
          "internalType": "address",
          "name": "recipient",
          "type": "address"
        }
      ],
      "name": "withdraw",
      "outputs": [],
      "stateMutability": "nonpayable",
      "type": "function"
    }
  ],
  "bytecode": "0x608060405234801561001057600080fd5b506137ea806100206000396000f3fe608060405234801561001057600080fd5b50600436106101975760003560e01c806389abeb30116100e3578063cef6d3681161008c578063d81d0a1511610066578063d81d0a15146103de578063e985e9c5146103f1578063f242432a1461042d57600080fd5b8063cef6d36814610386578063cfdd0c89146103b8578063d3b86141146103cb57600080fd5b8063af1ec268116100bd578063af1ec2681461033f578063afe5a1c914610348578063b390c0ab1461037357600080fd5b806389abeb30146102f55780638c7ea24b14610319578063a22cb4651461032c57600080fd5b80634e1273f4116101455780637c6e551d1161011f5780637c6e551d146102d15780638129fc1c146102da57806383ca4b6f146102e257600080fd5b80634e1273f41461026257806351cff8d91461028257806375d0c0dc1461029557600080fd5b80630e89341c116101765780630e89341c14610227578063156e29f61461023a5780632eb2c2d61461024f57600080fd5b8062fdd58e1461019c57806301ffc9a7146101c257806306fdde03146101e5575b600080fd5b6101af6101aa366004612732565b610440565b6040519081526020015b60405180910390f35b6101d56101d0366004612774565b6104ee565b60405190151581526020016101b9565b60408051808201909152601681527f566f69642032313232202d20536368656d61746963730000000000000000000060208201525b6040516101b991906127e8565b61021a6102353660046127fb565b61053c565b61024d610248366004612814565b610a87565b005b61024d61025d366004612995565b610ae2565b610275610270366004612a43565b610b84565b6040516101b99190612b4b565b61024d610290366004612b5e565b610cc2565b61021a6040518060400160405280601681526020017f566f69642032313232202d20536368656d61746963730000000000000000000081525081565b6101af60985481565b61024d610d2a565b61024d6102f0366004612b7b565b610fb1565b6103086103033660046127fb565b610fbc565b6040516101b9959493929190612bc8565b61024d610327366004612732565b6113cc565b61024d61033a366004612c2b565b61142e565b6101af60975481565b60995461035b906001600160a01b031681565b6040516001600160a01b0390911681526020016101b9565b61024d610381366004612c64565b611439565b6103996103943660046127fb565b611444565b604080516001600160a01b0390931683526020830191909152016101b9565b61024d6103c6366004612c86565b611497565b61024d6103d9366004612b5e565b6114fa565b61024d6103ec366004612cc2565b611552565b6101d56103ff366004612d38565b6001600160a01b03918216600090815260666020908152604080832093909416825291909152205460ff1690565b61024d61043b366004612d66565b6115a8565b60006001600160a01b0383166104c35760405162461bcd60e51b815260206004820152602a60248201527f455243313135353a2061646472657373207a65726f206973206e6f742061207660448201527f616c6964206f776e65720000000000000000000000000000000000000000000060648201526084015b60405180910390fd5b5060008181526065602090815260408083206001600160a01b03861684529091529020545b92915050565b60006104f982611643565b8061052d57506001600160e01b031982167f2a55205a00000000000000000000000000000000000000000000000000000000145b806104e857506104e882611643565b6000818152609a602090815260408083208151610160810190925280548252600181018054606095948401919061057290612dcf565b80601f016020809104026020016040519081016040528092919081815260200182805461059e90612dcf565b80156105eb5780601f106105c0576101008083540402835291602001916105eb565b820191906000526020600020905b8154815290600101906020018083116105ce57829003601f168201915b5050505050815260200160028201805461060490612dcf565b80601f016020809104026020016040519081016040528092919081815260200182805461063090612dcf565b801561067d5780601f106106525761010080835404028352916020019161067d565b820191906000526020600020905b81548152906001019060200180831161066057829003601f168201915b5050505050815260200160038201805461069690612dcf565b80601f01602080910402602001604051908101604052809291908181526020018280546106c290612dcf565b801561070f5780601f106106e45761010080835404028352916020019161070f565b820191906000526020600020905b8154815290600101906020018083116106f257829003601f168201915b5050505050815260200160048201805461072890612dcf565b80601f016020809104026020016040519081016040528092919081815260200182805461075490612dcf565b80156107a15780601f10610776576101008083540402835291602001916107a1565b820191906000526020600020905b81548152906001019060200180831161078457829003601f168201915b505050505081526020016005820180546107ba90612dcf565b80601f01602080910402602001604051908101604052809291908181526020018280546107e690612dcf565b80156108335780601f1061080857610100808354040283529160200191610833565b820191906000526020600020905b81548152906001019060200180831161081657829003601f168201915b50505050508152602001600682015481526020016007820180548060200260200160405190810160405280929190818152602001828054801561089557602002820191906000526020600020905b815481526020019060010190808311610881575b50505050508152602001600882018054806020026020016040519081016040528092919081815260200182805480156108ed57602002820191906000526020600020905b8154815260200190600101908083116108d9575b505050918352505060098201546020820152600a9091015460ff161515604090910152609c8054919250600091829061092857610928612e09565b906000526020600020018260200151604051602001610948929190612e92565b604051602081830303815290604052609c60018154811061096b5761096b612e09565b90600052602060002001836040015160405160200161098b929190612e92565b604051602081830303815290604052609c6002815481106109ae576109ae612e09565b9060005260206000200184606001516040516020016109ce929190612e92565b604051602081830303815290604052609c6003815481106109f1576109f1612e09565b906000526020600020018560800151604051602001610a11929190612e92565b604051602081830303815290604052609c600481548110610a3457610a34612e09565b90600052602060002001604051602001610a4e9190612eb7565b60408051601f1981840301815290829052610a6f9594939291602001612ec3565b60408051601f19818403018152919052949350505050565b336000908152609b602052604090205460ff16610ab6576040516282b42960e81b815260040160405180910390fd5b610add8383836040518060400160405280600381526020016203078360ec1b8152506116de565b505050565b6001600160a01b038516331480610afe5750610afe85336103ff565b610b705760405162461bcd60e51b815260206004820152602e60248201527f455243313135353a2063616c6c6572206973206e6f7420746f6b656e206f776e60448201527f6572206f7220617070726f76656400000000000000000000000000000000000060648201526084016104ba565b610b7d85858585856117f4565b5050505050565b60608151835114610bfd5760405162461bcd60e51b815260206004820152602960248201527f455243313135353a206163636f756e747320616e6420696473206c656e67746860448201527f206d69736d61746368000000000000000000000000000000000000000000000060648201526084016104ba565b6000835167ffffffffffffffff811115610c1957610c19612849565b604051908082528060200260200182016040528015610c42578160200160208202803683370190505b50905060005b8451811015610cba57610c8d858281518110610c6657610c66612e09565b6020026020010151858381518110610c8057610c80612e09565b6020026020010151610440565b828281518110610c9f57610c9f612e09565b6020908102919091010152610cb381612f44565b9050610c48565b509392505050565b336000908152609b602052604090205460ff16610cf1576040516282b42960e81b815260040160405180910390fd5b6040516001600160a01b038216904780156108fc02916000818181858888f19350505050158015610d26573d6000803e3d6000fd5b5050565b600054610100900460ff1615808015610d4a5750600054600160ff909116105b80610d645750303b158015610d64575060005460ff166001145b610dd65760405162461bcd60e51b815260206004820152602e60248201527f496e697469616c697a61626c653a20636f6e747261637420697320616c72656160448201527f647920696e697469616c697a656400000000000000000000000000000000000060648201526084016104ba565b6000805460ff191660011790558015610df9576000805461ff0019166101001790555b610e1160405180602001604052806000815250611a55565b60016097819055600a6098556099805473ffffffffffffffffffffffffffffffffffffffff1916339081179091556000908152609b602052604090819020805460ff191690921790915580516101008101909152602460a08201818152829161379160c08401398152604080518082018252601281527f222c20226465736372697074696f6e223a2200000000000000000000000000006020828101919091528084019190915281518083018352600c81527f222c2022696d616765223a220000000000000000000000000000000000000000818301528284015281518083018352601081527f222c2022616e696d6174696f6e223a22000000000000000000000000000000008183015260608401528151808301909252600282527f227d00000000000000000000000000000000000000000000000000000000000090820152608090910152610f6690609c906005612660565b508015610fae576000805461ff0019169055604051600181527f7f26b83ff96e1f2b6a682f133852f6798a09c465da95921460cefb3847402498906020015b60405180910390a15b50565b610d26338383611ac9565b60008060006060806000609a60008881526020019081526020016000206040518061016001604052908160008201548152602001600182018054610fff90612dcf565b80601f016020809104026020016040519081016040528092919081815260200182805461102b90612dcf565b80156110785780601f1061104d57610100808354040283529160200191611078565b820191906000526020600020905b81548152906001019060200180831161105b57829003601f168201915b5050505050815260200160028201805461109190612dcf565b80601f01602080910402602001604051908101604052809291908181526020018280546110bd90612dcf565b801561110a5780601f106110df5761010080835404028352916020019161110a565b820191906000526020600020905b8154815290600101906020018083116110ed57829003601f168201915b5050505050815260200160038201805461112390612dcf565b80601f016020809104026020016040519081016040528092919081815260200182805461114f90612dcf565b801561119c5780601f106111715761010080835404028352916020019161119c565b820191906000526020600020905b81548152906001019060200180831161117f57829003601f168201915b505050505081526020016004820180546111b590612dcf565b80601f01602080910402602001604051908101604052809291908181526020018280546111e190612dcf565b801561122e5780601f106112035761010080835404028352916020019161122e565b820191906000526020600020905b81548152906001019060200180831161121157829003601f168201915b5050505050815260200160058201805461124790612dcf565b80601f016020809104026020016040519081016040528092919081815260200182805461127390612dcf565b80156112c05780601f10611295576101008083540402835291602001916112c0565b820191906000526020600020905b8154815290600101906020018083116112a357829003601f168201915b50505050508152602001600682015481526020016007820180548060200260200160405190810160405280929190818152602001828054801561132257602002820191906000526020600020905b81548152602001906001019080831161130e575b505050505081526020016008820180548060200260200160405190810160405280929190818152602001828054801561137a57602002820191906000526020600020905b815481526020019060010190808311611366575b505050918352505060098201546020820152600a9091015460ff16151560409091015261012081015161014082015160c083015160e084015161010090940151929b919a509850919650945092505050565b336000908152609b602052604090205460ff166113fb576040516282b42960e81b815260040160405180910390fd5b6099805473ffffffffffffffffffffffffffffffffffffffff19166001600160a01b039390931692909217909155609855565b610d26338383611d10565b610d26328383611e04565b60995460009081906001600160a01b03161561148c576099546098546001600160a01b03909116906064906114799086612f5d565b6114839190612f74565b91509150915091565b506000928392509050565b6097546000908152609a6020526040902081906114b482826131c9565b5050609780549060006114c683612f44565b91905055507f2eb9d034aa8be6d32330441d690e9cef70731b7ccfff19f6692b7e003f9a9fc381604051610fa591906133da565b336000908152609b602052604090205460ff16611529576040516282b42960e81b815260040160405180910390fd5b6001600160a01b03166000908152609b60205260409020805460ff19811660ff90911615179055565b336000908152609b602052604090205460ff16611581576040516282b42960e81b815260040160405180910390fd5b610add8383836040518060400160405280600381526020016203078360ec1b815250611f83565b6001600160a01b0385163314806115c457506115c485336103ff565b6116365760405162461bcd60e51b815260206004820152602e60248201527f455243313135353a2063616c6c6572206973206e6f7420746f6b656e206f776e60448201527f6572206f7220617070726f76656400000000000000000000000000000000000060648201526084016104ba565b610b7d858585858561214a565b60006001600160e01b031982167fd9b67a260000000000000000000000000000000000000000000000000000000014806116a657506001600160e01b031982167f0e89341c00000000000000000000000000000000000000000000000000000000145b806104e857507f01ffc9a7000000000000000000000000000000000000000000000000000000006001600160e01b03198316146104e8565b6001600160a01b03841661173e5760405162461bcd60e51b815260206004820152602160248201527f455243313135353a206d696e7420746f20746865207a65726f206164647265736044820152607360f81b60648201526084016104ba565b33600061174a856122f9565b90506000611757856122f9565b905060008681526065602090815260408083206001600160a01b038b1684529091528120805487929061178b908490613537565b909155505060408051878152602081018790526001600160a01b03808a1692600092918716917fc3d58168c5ae7397731d063d5bbf3d657854427343f4c083240f7aacaa2d0f62910160405180910390a46117eb83600089898989612344565b50505050505050565b81518351146118565760405162461bcd60e51b815260206004820152602860248201527f455243313135353a2069647320616e6420616d6f756e7473206c656e677468206044820152670dad2e6dac2e8c6d60c31b60648201526084016104ba565b6001600160a01b0384166118ba5760405162461bcd60e51b815260206004820152602560248201527f455243313135353a207472616e7366657220746f20746865207a65726f206164604482015264647265737360d81b60648201526084016104ba565b3360005b84518110156119e75760008582815181106118db576118db612e09565b6020026020010151905060008583815181106118f9576118f9612e09565b60209081029190910181015160008481526065835260408082206001600160a01b038e16835290935291909120549091508181101561198d5760405162461bcd60e51b815260206004820152602a60248201527f455243313135353a20696e73756666696369656e742062616c616e636520666f60448201526939103a3930b739b332b960b11b60648201526084016104ba565b60008381526065602090815260408083206001600160a01b038e8116855292528083208585039055908b168252812080548492906119cc908490613537565b92505081905550505050806119e090612f44565b90506118be565b50846001600160a01b0316866001600160a01b0316826001600160a01b03167f4a39dc06d4c0dbc64b70af90fd698a233a518aa5d07e595d983b8c0526c8f7fb8787604051611a3792919061354a565b60405180910390a4611a4d8187878787876124e9565b505050505050565b600054610100900460ff16611ac05760405162461bcd60e51b815260206004820152602b60248201527f496e697469616c697a61626c653a20636f6e7472616374206973206e6f74206960448201526a6e697469616c697a696e6760a81b60648201526084016104ba565b610fae816125e5565b6001600160a01b038316611b2b5760405162461bcd60e51b815260206004820152602360248201527f455243313135353a206275726e2066726f6d20746865207a65726f206164647260448201526265737360e81b60648201526084016104ba565b8051825114611b8d5760405162461bcd60e51b815260206004820152602860248201527f455243313135353a2069647320616e6420616d6f756e7473206c656e677468206044820152670dad2e6dac2e8c6d60c31b60648201526084016104ba565b604080516020810190915260009081905233905b8351811015611ca2576000848281518110611bbe57611bbe612e09565b602002602001015190506000848381518110611bdc57611bdc612e09565b60209081029190910181015160008481526065835260408082206001600160a01b038c168352909352919091205490915081811015611c695760405162461bcd60e51b8152602060048201526024808201527f455243313135353a206275726e20616d6f756e7420657863656564732062616c604482015263616e636560e01b60648201526084016104ba565b60009283526065602090815260408085206001600160a01b038b1686529091529092209103905580611c9a81612f44565b915050611ba1565b5060006001600160a01b0316846001600160a01b0316826001600160a01b03167f4a39dc06d4c0dbc64b70af90fd698a233a518aa5d07e595d983b8c0526c8f7fb8686604051611cf392919061354a565b60405180910390a460408051602081019091526000905250505050565b816001600160a01b0316836001600160a01b031603611d975760405162461bcd60e51b815260206004820152602960248201527f455243313135353a2073657474696e6720617070726f76616c2073746174757360448201527f20666f722073656c66000000000000000000000000000000000000000000000060648201526084016104ba565b6001600160a01b03838116600081815260666020908152604080832094871680845294825291829020805460ff191686151590811790915591519182527f17307eab39ab6107e8899845ad3d59bd9653f200f220920489ca2b5937696c31910160405180910390a3505050565b6001600160a01b038316611e665760405162461bcd60e51b815260206004820152602360248201527f455243313135353a206275726e2066726f6d20746865207a65726f206164647260448201526265737360e81b60648201526084016104ba565b336000611e72846122f9565b90506000611e7f846122f9565b6040805160208082018352600091829052888252606581528282206001600160a01b038b1683529052205490915084811015611f095760405162461bcd60e51b8152602060048201526024808201527f455243313135353a206275726e20616d6f756e7420657863656564732062616c604482015263616e636560e01b60648201526084016104ba565b60008681526065602090815260408083206001600160a01b038b81168086529184528285208a8703905582518b81529384018a90529092908816917fc3d58168c5ae7397731d063d5bbf3d657854427343f4c083240f7aacaa2d0f62910160405180910390a46040805160208101909152600090526117eb565b6001600160a01b038416611fe35760405162461bcd60e51b815260206004820152602160248201527f455243313135353a206d696e7420746f20746865207a65726f206164647265736044820152607360f81b60648201526084016104ba565b81518351146120455760405162461bcd60e51b815260206004820152602860248201527f455243313135353a2069647320616e6420616d6f756e7473206c656e677468206044820152670dad2e6dac2e8c6d60c31b60648201526084016104ba565b3360005b84518110156120e25783818151811061206457612064612e09565b60200260200101516065600087848151811061208257612082612e09565b602002602001015181526020019081526020016000206000886001600160a01b03166001600160a01b0316815260200190815260200160002060008282546120ca9190613537565b909155508190506120da81612f44565b915050612049565b50846001600160a01b031660006001600160a01b0316826001600160a01b03167f4a39dc06d4c0dbc64b70af90fd698a233a518aa5d07e595d983b8c0526c8f7fb878760405161213392919061354a565b60405180910390a4610b7d816000878787876124e9565b6001600160a01b0384166121ae5760405162461bcd60e51b815260206004820152602560248201527f455243313135353a207472616e7366657220746f20746865207a65726f206164604482015264647265737360d81b60648201526084016104ba565b3360006121ba856122f9565b905060006121c7856122f9565b905060008681526065602090815260408083206001600160a01b038c1684529091529020548581101561224f5760405162461bcd60e51b815260206004820152602a60248201527f455243313135353a20696e73756666696369656e742062616c616e636520666f60448201526939103a3930b739b332b960b11b60648201526084016104ba565b60008781526065602090815260408083206001600160a01b038d8116855292528083208985039055908a1682528120805488929061228e908490613537565b909155505060408051888152602081018890526001600160a01b03808b16928c821692918816917fc3d58168c5ae7397731d063d5bbf3d657854427343f4c083240f7aacaa2d0f62910160405180910390a46122ee848a8a8a8a8a612344565b505050505050505050565b6040805160018082528183019092526060916000919060208083019080368337019050509050828160008151811061233357612333612e09565b602090810291909101015292915050565b6001600160a01b0384163b15611a4d5760405163f23a6e6160e01b81526001600160a01b0385169063f23a6e61906123889089908990889088908890600401613578565b6020604051808303816000875af19250505080156123c3575060408051601f3d908101601f191682019092526123c0918101906135bb565b60015b612478576123cf6135d8565b806308c379a00361240857506123e36135f4565b806123ee575061240a565b8060405162461bcd60e51b81526004016104ba91906127e8565b505b60405162461bcd60e51b815260206004820152603460248201527f455243313135353a207472616e7366657220746f206e6f6e2d4552433131353560448201527f526563656976657220696d706c656d656e74657200000000000000000000000060648201526084016104ba565b6001600160e01b0319811663f23a6e6160e01b146117eb5760405162461bcd60e51b815260206004820152602860248201527f455243313135353a204552433131353552656365697665722072656a656374656044820152676420746f6b656e7360c01b60648201526084016104ba565b6001600160a01b0384163b15611a4d5760405163bc197c8160e01b81526001600160a01b0385169063bc197c819061252d908990899088908890889060040161367e565b6020604051808303816000875af1925050508015612568575060408051601f3d908101601f19168201909252612565918101906135bb565b60015b612574576123cf6135d8565b6001600160e01b0319811663bc197c8160e01b146117eb5760405162461bcd60e51b815260206004820152602860248201527f455243313135353a204552433131353552656365697665722072656a656374656044820152676420746f6b656e7360c01b60648201526084016104ba565b600054610100900460ff166126505760405162461bcd60e51b815260206004820152602b60248201527f496e697469616c697a61626c653a20636f6e7472616374206973206e6f74206960448201526a6e697469616c697a696e6760a81b60648201526084016104ba565b610fae816067610d2682826136d0565b8280548282559060005260206000209081019282156126a6579160200282015b828111156126a6578251829061269690826136d0565b5091602001919060010190612680565b506126b29291506126b6565b5090565b808211156126b25760006126ca82826126d3565b506001016126b6565b5080546126df90612dcf565b6000825580601f106126ef575050565b601f016020900490600052602060002090810190610fae91905b808211156126b25760008155600101612709565b6001600160a01b0381168114610fae57600080fd5b6000806040838503121561274557600080fd5b82356127508161271d565b946020939093013593505050565b6001600160e01b031981168114610fae57600080fd5b60006020828403121561278657600080fd5b81356127918161275e565b9392505050565b60005b838110156127b357818101518382015260200161279b565b50506000910152565b600081518084526127d4816020860160208601612798565b601f01601f19169290920160200192915050565b60208152600061279160208301846127bc565b60006020828403121561280d57600080fd5b5035919050565b60008060006060848603121561282957600080fd5b83356128348161271d565b95602085013595506040909401359392505050565b634e487b7160e01b600052604160045260246000fd5b601f8201601f1916810167ffffffffffffffff8111828210171561288557612885612849565b6040525050565b600067ffffffffffffffff8211156128a6576128a6612849565b5060051b60200190565b600082601f8301126128c157600080fd5b813560206128ce8261288c565b6040516128db828261285f565b83815260059390931b85018201928281019150868411156128fb57600080fd5b8286015b8481101561291657803583529183019183016128ff565b509695505050505050565b600082601f83011261293257600080fd5b813567ffffffffffffffff81111561294c5761294c612849565b604051612963601f8301601f19166020018261285f565b81815284602083860101111561297857600080fd5b816020850160208301376000918101602001919091529392505050565b600080600080600060a086880312156129ad57600080fd5b85356129b88161271d565b945060208601356129c88161271d565b9350604086013567ffffffffffffffff808211156129e557600080fd5b6129f189838a016128b0565b94506060880135915080821115612a0757600080fd5b612a1389838a016128b0565b93506080880135915080821115612a2957600080fd5b50612a3688828901612921565b9150509295509295909350565b60008060408385031215612a5657600080fd5b823567ffffffffffffffff80821115612a6e57600080fd5b818501915085601f830112612a8257600080fd5b81356020612a8f8261288c565b604051612a9c828261285f565b83815260059390931b8501820192828101915089841115612abc57600080fd5b948201945b83861015612ae3578535612ad48161271d565b82529482019490820190612ac1565b96505086013592505080821115612af957600080fd5b50612b06858286016128b0565b9150509250929050565b600081518084526020808501945080840160005b83811015612b4057815187529582019590820190600101612b24565b509495945050505050565b6020815260006127916020830184612b10565b600060208284031215612b7057600080fd5b81356127918161271d565b60008060408385031215612b8e57600080fd5b823567ffffffffffffffff80821115612ba657600080fd5b612bb2868387016128b0565b93506020850135915080821115612af957600080fd5b858152841515602082015283604082015260a060608201526000612bef60a0830185612b10565b8281036080840152612c018185612b10565b98975050505050505050565b8015158114610fae57600080fd5b8035612c2681612c0d565b919050565b60008060408385031215612c3e57600080fd5b8235612c498161271d565b91506020830135612c5981612c0d565b809150509250929050565b60008060408385031215612c7757600080fd5b50508035926020909101359150565b600060208284031215612c9857600080fd5b813567ffffffffffffffff811115612caf57600080fd5b8201610160818503121561279157600080fd5b600080600060608486031215612cd757600080fd5b8335612ce28161271d565b9250602084013567ffffffffffffffff80821115612cff57600080fd5b612d0b878388016128b0565b93506040860135915080821115612d2157600080fd5b50612d2e868287016128b0565b9150509250925092565b60008060408385031215612d4b57600080fd5b8235612d568161271d565b91506020830135612c598161271d565b600080600080600060a08688031215612d7e57600080fd5b8535612d898161271d565b94506020860135612d998161271d565b93506040860135925060608601359150608086013567ffffffffffffffff811115612dc357600080fd5b612a3688828901612921565b600181811c90821680612de357607f821691505b602082108103612e0357634e487b7160e01b600052602260045260246000fd5b50919050565b634e487b7160e01b600052603260045260246000fd5b60008154612e2c81612dcf565b60018281168015612e445760018114612e5957612e88565b60ff1984168752821515830287019450612e88565b8560005260208060002060005b85811015612e7f5781548a820152908401908201612e66565b50505082870194505b5050505092915050565b6000612e9e8285612e1f565b8351612eae818360208801612798565b01949350505050565b60006127918284612e1f565b60008651612ed5818460208b01612798565b865190830190612ee9818360208b01612798565b8651910190612efc818360208a01612798565b8551910190612f0f818360208901612798565b8451910190612f22818360208801612798565b01979650505050505050565b634e487b7160e01b600052601160045260246000fd5b600060018201612f5657612f56612f2e565b5060010190565b80820281158282048414176104e8576104e8612f2e565b600082612f9157634e487b7160e01b600052601260045260246000fd5b500490565b6000808335601e19843603018112612fad57600080fd5b83018035915067ffffffffffffffff821115612fc857600080fd5b602001915036819003821315612fdd57600080fd5b9250929050565b5b81811015610d265760008155600101612fe5565b601f821115610add57806000526020600020601f840160051c810160208510156130205750805b610b7d601f850160051c830182612fe4565b67ffffffffffffffff83111561304a5761304a612849565b61305e836130588354612dcf565b83612ff9565b6000601f841160018114613092576000851561307a5750838201355b600019600387901b1c1916600186901b178355610b7d565b600083815260209020601f19861690835b828110156130c357868501358255602094850194600190920191016130a3565b50868210156130e05760001960f88860031b161c19848701351681555b505060018560011b0183555050505050565b6000808335601e1984360301811261310957600080fd5b83018035915067ffffffffffffffff82111561312457600080fd5b6020019150600581901b3603821315612fdd57600080fd5b67ffffffffffffffff83111561315457613154612849565b6801000000000000000083111561316d5761316d612849565b80548382558084101561319357816000526020600020613191828201868301612fe4565b505b50818160005260208060002060005b868110156117eb57833582820155928201926001016131a2565b600081356104e881612c0d565b813581556131da6020830183612f96565b6131e8818360018601613032565b50506131f76040830183612f96565b613205818360028601613032565b50506132146060830183612f96565b613222818360038601613032565b50506132316080830183612f96565b61323f818360048601613032565b505061324e60a0830183612f96565b61325c818360058601613032565b505060c0820135600682015561327560e08301836130f2565b61328381836007860161313c565b50506132936101008301836130f2565b6132a181836008860161313c565b50506101208201356009820155610d266132be61014084016131bc565b600a830160ff1981541660ff8315151681178255505050565b6000808335601e198436030181126132ee57600080fd5b830160208101925035905067ffffffffffffffff81111561330e57600080fd5b803603821315612fdd57600080fd5b81835281816020850137506000828201602090810191909152601f909101601f19169091010190565b6000808335601e1984360301811261335d57600080fd5b830160208101925035905067ffffffffffffffff81111561337d57600080fd5b8060051b3603821315612fdd57600080fd5b81835260007f07ffffffffffffffffffffffffffffffffffffffffffffffffffffffffffffff8311156133c157600080fd5b8260051b80836020870137939093016020019392505050565b602081528135602082015260006133f460208401846132d7565b61016080604086015261340c6101808601838561331d565b925061341b60408701876132d7565b9250601f198087860301606088015261343585858461331d565b945061344460608901896132d7565b945091508087860301608088015261345d85858461331d565b945061346c60808901896132d7565b94509150808786030160a088015261348585858461331d565b945061349460a08901896132d7565b94509150808786030160c08801526134ad85858461331d565b945060c088013560e08801526134c660e0890189613346565b945091506101008188870301818901526134e186868561338f565b95506134ef818a018a613346565b955092505061012081888703018189015261350b86868561338f565b955061014094508089013585890152505050613528828701612c1b565b15159401939093529392505050565b808201808211156104e8576104e8612f2e565b60408152600061355d6040830185612b10565b828103602084015261356f8185612b10565b95945050505050565b60006001600160a01b03808816835280871660208401525084604083015283606083015260a060808301526135b060a08301846127bc565b979650505050505050565b6000602082840312156135cd57600080fd5b81516127918161275e565b600060033d11156135f15760046000803e5060005160e01c5b90565b600060443d10156136025790565b6040516003193d81016004833e81513d67ffffffffffffffff816024840111818411171561363257505050505090565b828501915081518181111561364a5750505050505090565b843d87010160208285010111156136645750505050505090565b6136736020828601018761285f565b509095945050505050565b60006001600160a01b03808816835280871660208401525060a060408301526136aa60a0830186612b10565b82810360608401526136bc8186612b10565b90508281036080840152612c0181856127bc565b815167ffffffffffffffff8111156136ea576136ea612849565b6136fe816136f88454612dcf565b84612ff9565b602080601f831160018114613733576000841561371b5750858301515b600019600386901b1c1916600185901b178555611a4d565b600085815260208120601f198616915b8281101561376257888601518255948401946001909101908401613743565b50858210156137805787850151600019600388901b60f8161c191681555b5050505050600190811b0190555056fe646174613a6170706c69636174696f6e2f6a736f6e3b757466382c7b226e616d65223a22a264697066735822122078ad0befad369c86214470e98c4266099ae863cbad60ae021c9db65827cec50564736f6c63430008110033",
  "linkReferences": {},
  "deployedLinkReferences": {}
}