{
  "_format": "hh-sol-artifact-1",
  "contractName": "Void2122Loot",
  "sourceName": "contracts/Loot.sol",
  "abi": [
    {
      "inputs": [],
      "name": "Unauthorized",
      "type": "error"
    },
    {
      "anonymous": false,
      "inputs": [
        {
          "indexed": true,
          "internalType": "address",
          "name": "account",
          "type": "address"
        },
        {
          "indexed": true,
          "internalType": "address",
          "name": "operator",
          "type": "address"
        },
        {
          "indexed": false,
          "internalType": "bool",
          "name": "approved",
          "type": "bool"
        }
      ],
      "name": "ApprovalForAll",
      "type": "event"
    },
    {
      "anonymous": false,
      "inputs": [
        {
          "indexed": false,
          "internalType": "uint8",
          "name": "version",
          "type": "uint8"
        }
      ],
      "name": "Initialized",
      "type": "event"
    },
    {
      "anonymous": false,
      "inputs": [
        {
          "components": [
            {
              "internalType": "uint256",
              "name": "id",
              "type": "uint256"
            },
            {
              "internalType": "string",
              "name": "name",
              "type": "string"
            },
            {
              "internalType": "string",
              "name": "description",
              "type": "string"
            },
            {
              "internalType": "string",
              "name": "image",
              "type": "string"
            },
            {
              "internalType": "string",
              "name": "animation",
              "type": "string"
            },
            {
              "internalType": "string",
              "name": "uri",
              "type": "string"
            },
            {
              "internalType": "bool",
              "name": "isBroken",
              "type": "bool"
            }
          ],
          "indexed": false,
          "internalType": "struct ILoot.Loot",
          "name": "",
          "type": "tuple"
        }
      ],
      "name": "LootCreated",
      "type": "event"
    },
    {
      "anonymous": false,
      "inputs": [
        {
          "indexed": true,
          "internalType": "address",
          "name": "operator",
          "type": "address"
        },
        {
          "indexed": true,
          "internalType": "address",
          "name": "from",
          "type": "address"
        },
        {
          "indexed": true,
          "internalType": "address",
          "name": "to",
          "type": "address"
        },
        {
          "indexed": false,
          "internalType": "uint256[]",
          "name": "ids",
          "type": "uint256[]"
        },
        {
          "indexed": false,
          "internalType": "uint256[]",
          "name": "values",
          "type": "uint256[]"
        }
      ],
      "name": "TransferBatch",
      "type": "event"
    },
    {
      "anonymous": false,
      "inputs": [
        {
          "indexed": true,
          "internalType": "address",
          "name": "operator",
          "type": "address"
        },
        {
          "indexed": true,
          "internalType": "address",
          "name": "from",
          "type": "address"
        },
        {
          "indexed": true,
          "internalType": "address",
          "name": "to",
          "type": "address"
        },
        {
          "indexed": false,
          "internalType": "uint256",
          "name": "id",
          "type": "uint256"
        },
        {
          "indexed": false,
          "internalType": "uint256",
          "name": "value",
          "type": "uint256"
        }
      ],
      "name": "TransferSingle",
      "type": "event"
    },
    {
      "anonymous": false,
      "inputs": [
        {
          "indexed": false,
          "internalType": "string",
          "name": "value",
          "type": "string"
        },
        {
          "indexed": true,
          "internalType": "uint256",
          "name": "id",
          "type": "uint256"
        }
      ],
      "name": "URI",
      "type": "event"
    },
    {
      "inputs": [
        {
          "internalType": "address",
          "name": "account",
          "type": "address"
        },
        {
          "internalType": "uint256",
          "name": "id",
          "type": "uint256"
        }
      ],
      "name": "balanceOf",
      "outputs": [
        {
          "internalType": "uint256",
          "name": "",
          "type": "uint256"
        }
      ],
      "stateMutability": "view",
      "type": "function"
    },
    {
      "inputs": [
        {
          "internalType": "address[]",
          "name": "accounts",
          "type": "address[]"
        },
        {
          "internalType": "uint256[]",
          "name": "ids",
          "type": "uint256[]"
        }
      ],
      "name": "balanceOfBatch",
      "outputs": [
        {
          "internalType": "uint256[]",
          "name": "",
          "type": "uint256[]"
        }
      ],
      "stateMutability": "view",
      "type": "function"
    },
    {
      "inputs": [
        {
          "internalType": "uint256",
          "name": "tokenId",
          "type": "uint256"
        },
        {
          "internalType": "uint256",
          "name": "quantity",
          "type": "uint256"
        }
      ],
      "name": "burn",
      "outputs": [],
      "stateMutability": "nonpayable",
      "type": "function"
    },
    {
      "inputs": [
        {
          "internalType": "uint256[]",
          "name": "ids",
          "type": "uint256[]"
        },
        {
          "internalType": "uint256[]",
          "name": "amounts",
          "type": "uint256[]"
        }
      ],
      "name": "burnBatch",
      "outputs": [],
      "stateMutability": "nonpayable",
      "type": "function"
    },
    {
      "inputs": [],
      "name": "contractName",
      "outputs": [
        {
          "internalType": "string",
          "name": "",
          "type": "string"
        }
      ],
      "stateMutability": "view",
      "type": "function"
    },
    {
      "inputs": [
        {
          "components": [
            {
              "internalType": "uint256",
              "name": "id",
              "type": "uint256"
            },
            {
              "internalType": "string",
              "name": "name",
              "type": "string"
            },
            {
              "internalType": "string",
              "name": "description",
              "type": "string"
            },
            {
              "internalType": "string",
              "name": "image",
              "type": "string"
            },
            {
              "internalType": "string",
              "name": "animation",
              "type": "string"
            },
            {
              "internalType": "string",
              "name": "uri",
              "type": "string"
            },
            {
              "internalType": "bool",
              "name": "isBroken",
              "type": "bool"
            }
          ],
          "internalType": "struct ILoot.Loot",
          "name": "_loot",
          "type": "tuple"
        }
      ],
      "name": "createLoot",
      "outputs": [],
      "stateMutability": "nonpayable",
      "type": "function"
    },
    {
      "inputs": [],
      "name": "initialize",
      "outputs": [],
      "stateMutability": "nonpayable",
      "type": "function"
    },
    {
      "inputs": [
        {
          "internalType": "address",
          "name": "account",
          "type": "address"
        },
        {
          "internalType": "address",
          "name": "operator",
          "type": "address"
        }
      ],
      "name": "isApprovedForAll",
      "outputs": [
        {
          "internalType": "bool",
          "name": "",
          "type": "bool"
        }
      ],
      "stateMutability": "view",
      "type": "function"
    },
    {
      "inputs": [],
      "name": "lootIds",
      "outputs": [
        {
          "internalType": "uint256",
          "name": "",
          "type": "uint256"
        }
      ],
      "stateMutability": "view",
      "type": "function"
    },
    {
      "inputs": [
        {
          "internalType": "address",
          "name": "to",
          "type": "address"
        },
        {
          "internalType": "uint256",
          "name": "id",
          "type": "uint256"
        },
        {
          "internalType": "uint256",
          "name": "amount",
          "type": "uint256"
        }
      ],
      "name": "mint",
      "outputs": [],
      "stateMutability": "nonpayable",
      "type": "function"
    },
    {
      "inputs": [
        {
          "internalType": "address",
          "name": "to",
          "type": "address"
        },
        {
          "internalType": "uint256[]",
          "name": "ids",
          "type": "uint256[]"
        },
        {
          "internalType": "uint256[]",
          "name": "amounts",
          "type": "uint256[]"
        }
      ],
      "name": "mintBatch",
      "outputs": [],
      "stateMutability": "nonpayable",
      "type": "function"
    },
    {
      "inputs": [],
      "name": "name",
      "outputs": [
        {
          "internalType": "string",
          "name": "",
          "type": "string"
        }
      ],
      "stateMutability": "pure",
      "type": "function"
    },
    {
      "inputs": [],
      "name": "royalties_recipient",
      "outputs": [
        {
          "internalType": "address",
          "name": "",
          "type": "address"
        }
      ],
      "stateMutability": "view",
      "type": "function"
    },
    {
      "inputs": [],
      "name": "royaltyAmount",
      "outputs": [
        {
          "internalType": "uint256",
          "name": "",
          "type": "uint256"
        }
      ],
      "stateMutability": "view",
      "type": "function"
    },
    {
      "inputs": [
        {
          "internalType": "uint256",
          "name": "salePrice",
          "type": "uint256"
        }
      ],
      "name": "royaltyInfo",
      "outputs": [
        {
          "internalType": "address",
          "name": "",
          "type": "address"
        },
        {
          "internalType": "uint256",
          "name": "",
          "type": "uint256"
        }
      ],
      "stateMutability": "view",
      "type": "function"
    },
    {
      "inputs": [
        {
          "internalType": "address",
          "name": "from",
          "type": "address"
        },
        {
          "internalType": "address",
          "name": "to",
          "type": "address"
        },
        {
          "internalType": "uint256[]",
          "name": "ids",
          "type": "uint256[]"
        },
        {
          "internalType": "uint256[]",
          "name": "amounts",
          "type": "uint256[]"
        },
        {
          "internalType": "bytes",
          "name": "data",
          "type": "bytes"
        }
      ],
      "name": "safeBatchTransferFrom",
      "outputs": [],
      "stateMutability": "nonpayable",
      "type": "function"
    },
    {
      "inputs": [
        {
          "internalType": "address",
          "name": "from",
          "type": "address"
        },
        {
          "internalType": "address",
          "name": "to",
          "type": "address"
        },
        {
          "internalType": "uint256",
          "name": "id",
          "type": "uint256"
        },
        {
          "internalType": "uint256",
          "name": "amount",
          "type": "uint256"
        },
        {
          "internalType": "bytes",
          "name": "data",
          "type": "bytes"
        }
      ],
      "name": "safeTransferFrom",
      "outputs": [],
      "stateMutability": "nonpayable",
      "type": "function"
    },
    {
      "inputs": [
        {
          "internalType": "address",
          "name": "operator",
          "type": "address"
        },
        {
          "internalType": "bool",
          "name": "approved",
          "type": "bool"
        }
      ],
      "name": "setApprovalForAll",
      "outputs": [],
      "stateMutability": "nonpayable",
      "type": "function"
    },
    {
      "inputs": [
        {
          "internalType": "address payable",
          "name": "_recipient",
          "type": "address"
        },
        {
          "internalType": "uint256",
          "name": "_royaltyPerCent",
          "type": "uint256"
        }
      ],
      "name": "setRoyalties",
      "outputs": [],
      "stateMutability": "nonpayable",
      "type": "function"
    },
    {
      "inputs": [
        {
          "internalType": "bytes4",
          "name": "interfaceId",
          "type": "bytes4"
        }
      ],
      "name": "supportsInterface",
      "outputs": [
        {
          "internalType": "bool",
          "name": "",
          "type": "bool"
        }
      ],
      "stateMutability": "view",
      "type": "function"
    },
    {
      "inputs": [
        {
          "internalType": "address",
          "name": "_admin",
          "type": "address"
        }
      ],
      "name": "toggleAdmin",
      "outputs": [],
      "stateMutability": "nonpayable",
      "type": "function"
    },
    {
      "inputs": [
        {
          "internalType": "uint256",
          "name": "_tokenId",
          "type": "uint256"
        }
      ],
      "name": "uri",
      "outputs": [
        {
          "internalType": "string",
          "name": "",
          "type": "string"
        }
      ],
      "stateMutability": "view",
      "type": "function"
    },
    {
      "inputs": [
        {
          "internalType": "address",
          "name": "recipient",
          "type": "address"
        }
      ],
      "name": "withdraw",
      "outputs": [],
      "stateMutability": "nonpayable",
      "type": "function"
    }
  ],
  "bytecode": "0x608060405234801561001057600080fd5b5061306c806100206000396000f3fe608060405234801561001057600080fd5b506004361061018c5760003560e01c80638129fc1c116100e3578063b390c0ab1161008c578063d81d0a1511610066578063d81d0a15146103af578063e985e9c5146103c2578063f242432a146103fe57600080fd5b8063b390c0ab14610357578063cef6d3681461036a578063d3b861411461039c57600080fd5b8063925ee29b116100bd578063925ee29b14610306578063a22cb46514610319578063afe5a1c91461032c57600080fd5b80638129fc1c146102d857806383ca4b6f146102e05780638c7ea24b146102f357600080fd5b80632eb2c2d6116101455780635c82fd5d1161011f5780635c82fd5d1461028a57806375d0c0dc146102935780637c6e551d146102cf57600080fd5b80632eb2c2d6146102445780634e1273f41461025757806351cff8d91461027757600080fd5b806306fdde031161017657806306fdde03146101da5780630e89341c1461021c578063156e29f61461022f57600080fd5b8062fdd58e1461019157806301ffc9a7146101b7575b600080fd5b6101a461019f36600461222f565b610411565b6040519081526020015b60405180910390f35b6101ca6101c5366004612271565b6104bf565b60405190151581526020016101ae565b60408051808201909152601181527f566f69642032313232202d204c6f6f747300000000000000000000000000000060208201525b6040516101ae91906122e5565b61020f61022a3660046122f8565b61050d565b61024261023d366004612311565b610994565b005b610242610252366004612492565b6109ef565b61026a610265366004612540565b610a91565b6040516101ae9190612648565b61024261028536600461265b565b610bcf565b6101a460975481565b61020f6040518060400160405280601181526020017f566f69642032313232202d204c6f6f747300000000000000000000000000000081525081565b6101a460985481565b610242610c37565b6102426102ee366004612678565b610ebe565b61024261030136600461222f565b610ec9565b6102426103143660046126c5565b610f2b565b61024261032736600461270e565b610f8e565b60995461033f906001600160a01b031681565b6040516001600160a01b0390911681526020016101ae565b610242610365366004612747565b610f99565b61037d6103783660046122f8565b610fa4565b604080516001600160a01b0390931683526020830191909152016101ae565b6102426103aa36600461265b565b610ff7565b6102426103bd366004612769565b61104f565b6101ca6103d03660046127df565b6001600160a01b03918216600090815260666020908152604080832093909416825291909152205460ff1690565b61024261040c36600461280d565b6110a5565b60006001600160a01b0383166104945760405162461bcd60e51b815260206004820152602a60248201527f455243313135353a2061646472657373207a65726f206973206e6f742061207660448201527f616c6964206f776e65720000000000000000000000000000000000000000000060648201526084015b60405180910390fd5b5060008181526065602090815260408083206001600160a01b03861684529091529020545b92915050565b60006104ca82611140565b806104fe57506001600160e01b031982167f2a55205a00000000000000000000000000000000000000000000000000000000145b806104b957506104b982611140565b6000818152609a60209081526040808320815160e0810190925280548252600181018054606095948401919061054290612876565b80601f016020809104026020016040519081016040528092919081815260200182805461056e90612876565b80156105bb5780601f10610590576101008083540402835291602001916105bb565b820191906000526020600020905b81548152906001019060200180831161059e57829003601f168201915b505050505081526020016002820180546105d490612876565b80601f016020809104026020016040519081016040528092919081815260200182805461060090612876565b801561064d5780601f106106225761010080835404028352916020019161064d565b820191906000526020600020905b81548152906001019060200180831161063057829003601f168201915b5050505050815260200160038201805461066690612876565b80601f016020809104026020016040519081016040528092919081815260200182805461069290612876565b80156106df5780601f106106b4576101008083540402835291602001916106df565b820191906000526020600020905b8154815290600101906020018083116106c257829003601f168201915b505050505081526020016004820180546106f890612876565b80601f016020809104026020016040519081016040528092919081815260200182805461072490612876565b80156107715780601f1061074657610100808354040283529160200191610771565b820191906000526020600020905b81548152906001019060200180831161075457829003601f168201915b5050505050815260200160058201805461078a90612876565b80601f01602080910402602001604051908101604052809291908181526020018280546107b690612876565b80156108035780601f106107d857610100808354040283529160200191610803565b820191906000526020600020905b8154815290600101906020018083116107e657829003601f168201915b50505091835250506006919091015460ff161515602090910152609c80549192506000918290610835576108356128b0565b906000526020600020018260200151604051602001610855929190612939565b604051602081830303815290604052609c600181548110610878576108786128b0565b906000526020600020018360400151604051602001610898929190612939565b604051602081830303815290604052609c6002815481106108bb576108bb6128b0565b9060005260206000200184606001516040516020016108db929190612939565b604051602081830303815290604052609c6003815481106108fe576108fe6128b0565b90600052602060002001856080015160405160200161091e929190612939565b604051602081830303815290604052609c600481548110610941576109416128b0565b9060005260206000200160405160200161095b919061295e565b60408051601f198184030181529082905261097c959493929160200161296a565b60408051601f19818403018152919052949350505050565b336000908152609b602052604090205460ff166109c3576040516282b42960e81b815260040160405180910390fd5b6109ea8383836040518060400160405280600381526020016203078360ec1b8152506111db565b505050565b6001600160a01b038516331480610a0b5750610a0b85336103d0565b610a7d5760405162461bcd60e51b815260206004820152602e60248201527f455243313135353a2063616c6c6572206973206e6f7420746f6b656e206f776e60448201527f6572206f7220617070726f766564000000000000000000000000000000000000606482015260840161048b565b610a8a85858585856112f1565b5050505050565b60608151835114610b0a5760405162461bcd60e51b815260206004820152602960248201527f455243313135353a206163636f756e747320616e6420696473206c656e67746860448201527f206d69736d617463680000000000000000000000000000000000000000000000606482015260840161048b565b6000835167ffffffffffffffff811115610b2657610b26612346565b604051908082528060200260200182016040528015610b4f578160200160208202803683370190505b50905060005b8451811015610bc757610b9a858281518110610b7357610b736128b0565b6020026020010151858381518110610b8d57610b8d6128b0565b6020026020010151610411565b828281518110610bac57610bac6128b0565b6020908102919091010152610bc0816129eb565b9050610b55565b509392505050565b336000908152609b602052604090205460ff16610bfe576040516282b42960e81b815260040160405180910390fd5b6040516001600160a01b038216904780156108fc02916000818181858888f19350505050158015610c33573d6000803e3d6000fd5b5050565b600054610100900460ff1615808015610c575750600054600160ff909116105b80610c715750303b158015610c71575060005460ff166001145b610ce35760405162461bcd60e51b815260206004820152602e60248201527f496e697469616c697a61626c653a20636f6e747261637420697320616c72656160448201527f647920696e697469616c697a6564000000000000000000000000000000000000606482015260840161048b565b6000805460ff191660011790558015610d06576000805461ff0019166101001790555b610d1e60405180602001604052806000815250611552565b60016097819055600a6098556099805473ffffffffffffffffffffffffffffffffffffffff1916339081179091556000908152609b602052604090819020805460ff191690921790915580516101008101909152602460a08201818152829161301360c08401398152604080518082018252601281527f222c20226465736372697074696f6e223a2200000000000000000000000000006020828101919091528084019190915281518083018352600c81527f222c2022696d616765223a220000000000000000000000000000000000000000818301528284015281518083018352601081527f222c2022616e696d6174696f6e223a22000000000000000000000000000000008183015260608401528151808301909252600282527f227d00000000000000000000000000000000000000000000000000000000000090820152608090910152610e7390609c90600561215d565b508015610ebb576000805461ff0019169055604051600181527f7f26b83ff96e1f2b6a682f133852f6798a09c465da95921460cefb3847402498906020015b60405180910390a15b50565b610c333283836115c6565b336000908152609b602052604090205460ff16610ef8576040516282b42960e81b815260040160405180910390fd5b6099805473ffffffffffffffffffffffffffffffffffffffff19166001600160a01b039390931692909217909155609855565b6097546000908152609a602052604090208190610f488282612b58565b505060978054906000610f5a836129eb565b91905055507fcfedbf832b1d667964297d5818441b5be195d3745e86f2abdbc37954c468acc181604051610eb29190612c84565b610c3333838361180d565b610c33328383611901565b60995460009081906001600160a01b031615610fec576099546098546001600160a01b0390911690606490610fd99086612d74565b610fe39190612d8b565b91509150915091565b506000928392509050565b336000908152609b602052604090205460ff16611026576040516282b42960e81b815260040160405180910390fd5b6001600160a01b03166000908152609b60205260409020805460ff19811660ff90911615179055565b336000908152609b602052604090205460ff1661107e576040516282b42960e81b815260040160405180910390fd5b6109ea8383836040518060400160405280600381526020016203078360ec1b815250611a80565b6001600160a01b0385163314806110c157506110c185336103d0565b6111335760405162461bcd60e51b815260206004820152602e60248201527f455243313135353a2063616c6c6572206973206e6f7420746f6b656e206f776e60448201527f6572206f7220617070726f766564000000000000000000000000000000000000606482015260840161048b565b610a8a8585858585611c47565b60006001600160e01b031982167fd9b67a260000000000000000000000000000000000000000000000000000000014806111a357506001600160e01b031982167f0e89341c00000000000000000000000000000000000000000000000000000000145b806104b957507f01ffc9a7000000000000000000000000000000000000000000000000000000006001600160e01b03198316146104b9565b6001600160a01b03841661123b5760405162461bcd60e51b815260206004820152602160248201527f455243313135353a206d696e7420746f20746865207a65726f206164647265736044820152607360f81b606482015260840161048b565b33600061124785611df6565b9050600061125485611df6565b905060008681526065602090815260408083206001600160a01b038b16845290915281208054879290611288908490612dad565b909155505060408051878152602081018790526001600160a01b03808a1692600092918716917fc3d58168c5ae7397731d063d5bbf3d657854427343f4c083240f7aacaa2d0f62910160405180910390a46112e883600089898989611e41565b50505050505050565b81518351146113535760405162461bcd60e51b815260206004820152602860248201527f455243313135353a2069647320616e6420616d6f756e7473206c656e677468206044820152670dad2e6dac2e8c6d60c31b606482015260840161048b565b6001600160a01b0384166113b75760405162461bcd60e51b815260206004820152602560248201527f455243313135353a207472616e7366657220746f20746865207a65726f206164604482015264647265737360d81b606482015260840161048b565b3360005b84518110156114e45760008582815181106113d8576113d86128b0565b6020026020010151905060008583815181106113f6576113f66128b0565b60209081029190910181015160008481526065835260408082206001600160a01b038e16835290935291909120549091508181101561148a5760405162461bcd60e51b815260206004820152602a60248201527f455243313135353a20696e73756666696369656e742062616c616e636520666f60448201526939103a3930b739b332b960b11b606482015260840161048b565b60008381526065602090815260408083206001600160a01b038e8116855292528083208585039055908b168252812080548492906114c9908490612dad565b92505081905550505050806114dd906129eb565b90506113bb565b50846001600160a01b0316866001600160a01b0316826001600160a01b03167f4a39dc06d4c0dbc64b70af90fd698a233a518aa5d07e595d983b8c0526c8f7fb8787604051611534929190612dc0565b60405180910390a461154a818787878787611fe6565b505050505050565b600054610100900460ff166115bd5760405162461bcd60e51b815260206004820152602b60248201527f496e697469616c697a61626c653a20636f6e7472616374206973206e6f74206960448201526a6e697469616c697a696e6760a81b606482015260840161048b565b610ebb816120e2565b6001600160a01b0383166116285760405162461bcd60e51b815260206004820152602360248201527f455243313135353a206275726e2066726f6d20746865207a65726f206164647260448201526265737360e81b606482015260840161048b565b805182511461168a5760405162461bcd60e51b815260206004820152602860248201527f455243313135353a2069647320616e6420616d6f756e7473206c656e677468206044820152670dad2e6dac2e8c6d60c31b606482015260840161048b565b604080516020810190915260009081905233905b835181101561179f5760008482815181106116bb576116bb6128b0565b6020026020010151905060008483815181106116d9576116d96128b0565b60209081029190910181015160008481526065835260408082206001600160a01b038c1683529093529190912054909150818110156117665760405162461bcd60e51b8152602060048201526024808201527f455243313135353a206275726e20616d6f756e7420657863656564732062616c604482015263616e636560e01b606482015260840161048b565b60009283526065602090815260408085206001600160a01b038b1686529091529092209103905580611797816129eb565b91505061169e565b5060006001600160a01b0316846001600160a01b0316826001600160a01b03167f4a39dc06d4c0dbc64b70af90fd698a233a518aa5d07e595d983b8c0526c8f7fb86866040516117f0929190612dc0565b60405180910390a460408051602081019091526000905250505050565b816001600160a01b0316836001600160a01b0316036118945760405162461bcd60e51b815260206004820152602960248201527f455243313135353a2073657474696e6720617070726f76616c2073746174757360448201527f20666f722073656c660000000000000000000000000000000000000000000000606482015260840161048b565b6001600160a01b03838116600081815260666020908152604080832094871680845294825291829020805460ff191686151590811790915591519182527f17307eab39ab6107e8899845ad3d59bd9653f200f220920489ca2b5937696c31910160405180910390a3505050565b6001600160a01b0383166119635760405162461bcd60e51b815260206004820152602360248201527f455243313135353a206275726e2066726f6d20746865207a65726f206164647260448201526265737360e81b606482015260840161048b565b33600061196f84611df6565b9050600061197c84611df6565b6040805160208082018352600091829052888252606581528282206001600160a01b038b1683529052205490915084811015611a065760405162461bcd60e51b8152602060048201526024808201527f455243313135353a206275726e20616d6f756e7420657863656564732062616c604482015263616e636560e01b606482015260840161048b565b60008681526065602090815260408083206001600160a01b038b81168086529184528285208a8703905582518b81529384018a90529092908816917fc3d58168c5ae7397731d063d5bbf3d657854427343f4c083240f7aacaa2d0f62910160405180910390a46040805160208101909152600090526112e8565b6001600160a01b038416611ae05760405162461bcd60e51b815260206004820152602160248201527f455243313135353a206d696e7420746f20746865207a65726f206164647265736044820152607360f81b606482015260840161048b565b8151835114611b425760405162461bcd60e51b815260206004820152602860248201527f455243313135353a2069647320616e6420616d6f756e7473206c656e677468206044820152670dad2e6dac2e8c6d60c31b606482015260840161048b565b3360005b8451811015611bdf57838181518110611b6157611b616128b0565b602002602001015160656000878481518110611b7f57611b7f6128b0565b602002602001015181526020019081526020016000206000886001600160a01b03166001600160a01b031681526020019081526020016000206000828254611bc79190612dad565b90915550819050611bd7816129eb565b915050611b46565b50846001600160a01b031660006001600160a01b0316826001600160a01b03167f4a39dc06d4c0dbc64b70af90fd698a233a518aa5d07e595d983b8c0526c8f7fb8787604051611c30929190612dc0565b60405180910390a4610a8a81600087878787611fe6565b6001600160a01b038416611cab5760405162461bcd60e51b815260206004820152602560248201527f455243313135353a207472616e7366657220746f20746865207a65726f206164604482015264647265737360d81b606482015260840161048b565b336000611cb785611df6565b90506000611cc485611df6565b905060008681526065602090815260408083206001600160a01b038c16845290915290205485811015611d4c5760405162461bcd60e51b815260206004820152602a60248201527f455243313135353a20696e73756666696369656e742062616c616e636520666f60448201526939103a3930b739b332b960b11b606482015260840161048b565b60008781526065602090815260408083206001600160a01b038d8116855292528083208985039055908a16825281208054889290611d8b908490612dad565b909155505060408051888152602081018890526001600160a01b03808b16928c821692918816917fc3d58168c5ae7397731d063d5bbf3d657854427343f4c083240f7aacaa2d0f62910160405180910390a4611deb848a8a8a8a8a611e41565b505050505050505050565b60408051600180825281830190925260609160009190602080830190803683370190505090508281600081518110611e3057611e306128b0565b602090810291909101015292915050565b6001600160a01b0384163b1561154a5760405163f23a6e6160e01b81526001600160a01b0385169063f23a6e6190611e859089908990889088908890600401612dee565b6020604051808303816000875af1925050508015611ec0575060408051601f3d908101601f19168201909252611ebd91810190612e31565b60015b611f7557611ecc612e4e565b806308c379a003611f055750611ee0612e6a565b80611eeb5750611f07565b8060405162461bcd60e51b815260040161048b91906122e5565b505b60405162461bcd60e51b815260206004820152603460248201527f455243313135353a207472616e7366657220746f206e6f6e2d4552433131353560448201527f526563656976657220696d706c656d656e746572000000000000000000000000606482015260840161048b565b6001600160e01b0319811663f23a6e6160e01b146112e85760405162461bcd60e51b815260206004820152602860248201527f455243313135353a204552433131353552656365697665722072656a656374656044820152676420746f6b656e7360c01b606482015260840161048b565b6001600160a01b0384163b1561154a5760405163bc197c8160e01b81526001600160a01b0385169063bc197c819061202a9089908990889088908890600401612ef4565b6020604051808303816000875af1925050508015612065575060408051601f3d908101601f1916820190925261206291810190612e31565b60015b61207157611ecc612e4e565b6001600160e01b0319811663bc197c8160e01b146112e85760405162461bcd60e51b815260206004820152602860248201527f455243313135353a204552433131353552656365697665722072656a656374656044820152676420746f6b656e7360c01b606482015260840161048b565b600054610100900460ff1661214d5760405162461bcd60e51b815260206004820152602b60248201527f496e697469616c697a61626c653a20636f6e7472616374206973206e6f74206960448201526a6e697469616c697a696e6760a81b606482015260840161048b565b610ebb816067610c338282612f52565b8280548282559060005260206000209081019282156121a3579160200282015b828111156121a357825182906121939082612f52565b509160200191906001019061217d565b506121af9291506121b3565b5090565b808211156121af5760006121c782826121d0565b506001016121b3565b5080546121dc90612876565b6000825580601f106121ec575050565b601f016020900490600052602060002090810190610ebb91905b808211156121af5760008155600101612206565b6001600160a01b0381168114610ebb57600080fd5b6000806040838503121561224257600080fd5b823561224d8161221a565b946020939093013593505050565b6001600160e01b031981168114610ebb57600080fd5b60006020828403121561228357600080fd5b813561228e8161225b565b9392505050565b60005b838110156122b0578181015183820152602001612298565b50506000910152565b600081518084526122d1816020860160208601612295565b601f01601f19169290920160200192915050565b60208152600061228e60208301846122b9565b60006020828403121561230a57600080fd5b5035919050565b60008060006060848603121561232657600080fd5b83356123318161221a565b95602085013595506040909401359392505050565b634e487b7160e01b600052604160045260246000fd5b601f8201601f1916810167ffffffffffffffff8111828210171561238257612382612346565b6040525050565b600067ffffffffffffffff8211156123a3576123a3612346565b5060051b60200190565b600082601f8301126123be57600080fd5b813560206123cb82612389565b6040516123d8828261235c565b83815260059390931b85018201928281019150868411156123f857600080fd5b8286015b8481101561241357803583529183019183016123fc565b509695505050505050565b600082601f83011261242f57600080fd5b813567ffffffffffffffff81111561244957612449612346565b604051612460601f8301601f19166020018261235c565b81815284602083860101111561247557600080fd5b816020850160208301376000918101602001919091529392505050565b600080600080600060a086880312156124aa57600080fd5b85356124b58161221a565b945060208601356124c58161221a565b9350604086013567ffffffffffffffff808211156124e257600080fd5b6124ee89838a016123ad565b9450606088013591508082111561250457600080fd5b61251089838a016123ad565b9350608088013591508082111561252657600080fd5b506125338882890161241e565b9150509295509295909350565b6000806040838503121561255357600080fd5b823567ffffffffffffffff8082111561256b57600080fd5b818501915085601f83011261257f57600080fd5b8135602061258c82612389565b604051612599828261235c565b83815260059390931b85018201928281019150898411156125b957600080fd5b948201945b838610156125e05785356125d18161221a565b825294820194908201906125be565b965050860135925050808211156125f657600080fd5b50612603858286016123ad565b9150509250929050565b600081518084526020808501945080840160005b8381101561263d57815187529582019590820190600101612621565b509495945050505050565b60208152600061228e602083018461260d565b60006020828403121561266d57600080fd5b813561228e8161221a565b6000806040838503121561268b57600080fd5b823567ffffffffffffffff808211156126a357600080fd5b6126af868387016123ad565b935060208501359150808211156125f657600080fd5b6000602082840312156126d757600080fd5b813567ffffffffffffffff8111156126ee57600080fd5b820160e0818503121561228e57600080fd5b8015158114610ebb57600080fd5b6000806040838503121561272157600080fd5b823561272c8161221a565b9150602083013561273c81612700565b809150509250929050565b6000806040838503121561275a57600080fd5b50508035926020909101359150565b60008060006060848603121561277e57600080fd5b83356127898161221a565b9250602084013567ffffffffffffffff808211156127a657600080fd5b6127b2878388016123ad565b935060408601359150808211156127c857600080fd5b506127d5868287016123ad565b9150509250925092565b600080604083850312156127f257600080fd5b82356127fd8161221a565b9150602083013561273c8161221a565b600080600080600060a0868803121561282557600080fd5b85356128308161221a565b945060208601356128408161221a565b93506040860135925060608601359150608086013567ffffffffffffffff81111561286a57600080fd5b6125338882890161241e565b600181811c9082168061288a57607f821691505b6020821081036128aa57634e487b7160e01b600052602260045260246000fd5b50919050565b634e487b7160e01b600052603260045260246000fd5b600081546128d381612876565b600182811680156128eb57600181146129005761292f565b60ff198416875282151583028701945061292f565b8560005260208060002060005b858110156129265781548a82015290840190820161290d565b50505082870194505b5050505092915050565b600061294582856128c6565b8351612955818360208801612295565b01949350505050565b600061228e82846128c6565b6000865161297c818460208b01612295565b865190830190612990818360208b01612295565b86519101906129a3818360208a01612295565b85519101906129b6818360208901612295565b84519101906129c9818360208801612295565b01979650505050505050565b634e487b7160e01b600052601160045260246000fd5b6000600182016129fd576129fd6129d5565b5060010190565b6000808335601e19843603018112612a1b57600080fd5b83018035915067ffffffffffffffff821115612a3657600080fd5b602001915036819003821315612a4b57600080fd5b9250929050565b601f8211156109ea57600081815260208120601f850160051c81016020861015612a795750805b601f850160051c820191505b8181101561154a57828155600101612a85565b67ffffffffffffffff831115612ab057612ab0612346565b612ac483612abe8354612876565b83612a52565b6000601f841160018114612af85760008515612ae05750838201355b600019600387901b1c1916600186901b178355610a8a565b600083815260209020601f19861690835b82811015612b295786850135825560209485019460019092019101612b09565b5086821015612b465760001960f88860031b161c19848701351681555b505060018560011b0183555050505050565b81358155612b696020830183612a04565b612b77818360018601612a98565b5050612b866040830183612a04565b612b94818360028601612a98565b5050612ba36060830183612a04565b612bb1818360038601612a98565b5050612bc06080830183612a04565b612bce818360048601612a98565b5050612bdd60a0830183612a04565b612beb818360058601612a98565b50506006810160c0830135612bff81612700565b815490151560ff1660ff19919091161790555050565b6000808335601e19843603018112612c2c57600080fd5b830160208101925035905067ffffffffffffffff811115612c4c57600080fd5b803603821315612a4b57600080fd5b81835281816020850137506000828201602090810191909152601f909101601f19169091010190565b60208152813560208201526000612c9e6020840184612c15565b60e06040850152612cb461010085018284612c5b565b915050612cc46040850185612c15565b601f1980868503016060870152612cdc848385612c5b565b9350612ceb6060880188612c15565b9350915080868503016080870152612d04848484612c5b565b9350612d136080880188612c15565b93509150808685030160a0870152612d2c848484612c5b565b9350612d3b60a0880188612c15565b93509150808685030160c087015250612d55838383612c5b565b9250505060c0840135612d6781612700565b80151560e0850152610bc7565b80820281158282048414176104b9576104b96129d5565b600082612da857634e487b7160e01b600052601260045260246000fd5b500490565b808201808211156104b9576104b96129d5565b604081526000612dd3604083018561260d565b8281036020840152612de5818561260d565b95945050505050565b60006001600160a01b03808816835280871660208401525084604083015283606083015260a06080830152612e2660a08301846122b9565b979650505050505050565b600060208284031215612e4357600080fd5b815161228e8161225b565b600060033d1115612e675760046000803e5060005160e01c5b90565b600060443d1015612e785790565b6040516003193d81016004833e81513d67ffffffffffffffff8160248401118184111715612ea857505050505090565b8285019150815181811115612ec05750505050505090565b843d8701016020828501011115612eda5750505050505090565b612ee96020828601018761235c565b509095945050505050565b60006001600160a01b03808816835280871660208401525060a06040830152612f2060a083018661260d565b8281036060840152612f32818661260d565b90508281036080840152612f4681856122b9565b98975050505050505050565b815167ffffffffffffffff811115612f6c57612f6c612346565b612f8081612f7a8454612876565b84612a52565b602080601f831160018114612fb55760008415612f9d5750858301515b600019600386901b1c1916600185901b17855561154a565b600085815260208120601f198616915b82811015612fe457888601518255948401946001909101908401612fc5565b50858210156130025787850151600019600388901b60f8161c191681555b5050505050600190811b0190555056fe646174613a6170706c69636174696f6e2f6a736f6e3b757466382c7b226e616d65223a22a26469706673582212205f5d652d118c63e1e2541c42f6d0b24c97224f2708211c1c84c70ad5f49651d264736f6c63430008110033",
  "linkReferences": {},
  "deployedLinkReferences": {}
}