{
  "_format": "hh-sol-artifact-1",
  "contractName": "Void2122Mod",
  "sourceName": "contracts/Mod.sol",
  "abi": [
    {
      "inputs": [],
      "name": "Unauthorized",
      "type": "error"
    },
    {
      "anonymous": false,
      "inputs": [
        {
          "indexed": true,
          "internalType": "address",
          "name": "account",
          "type": "address"
        },
        {
          "indexed": true,
          "internalType": "address",
          "name": "operator",
          "type": "address"
        },
        {
          "indexed": false,
          "internalType": "bool",
          "name": "approved",
          "type": "bool"
        }
      ],
      "name": "ApprovalForAll",
      "type": "event"
    },
    {
      "anonymous": false,
      "inputs": [
        {
          "indexed": false,
          "internalType": "uint8",
          "name": "version",
          "type": "uint8"
        }
      ],
      "name": "Initialized",
      "type": "event"
    },
    {
      "anonymous": false,
      "inputs": [
        {
          "components": [
            {
              "internalType": "uint256",
              "name": "id",
              "type": "uint256"
            },
            {
              "internalType": "string",
              "name": "name",
              "type": "string"
            },
            {
              "internalType": "string",
              "name": "description",
              "type": "string"
            },
            {
              "internalType": "string",
              "name": "image",
              "type": "string"
            },
            {
              "internalType": "string",
              "name": "animation",
              "type": "string"
            },
            {
              "internalType": "string",
              "name": "uri",
              "type": "string"
            },
            {
              "internalType": "uint256[4]",
              "name": "bonus",
              "type": "uint256[4]"
            }
          ],
          "indexed": false,
          "internalType": "struct IMod.Mod",
          "name": "",
          "type": "tuple"
        }
      ],
      "name": "ModCreated",
      "type": "event"
    },
    {
      "anonymous": false,
      "inputs": [
        {
          "indexed": true,
          "internalType": "address",
          "name": "operator",
          "type": "address"
        },
        {
          "indexed": true,
          "internalType": "address",
          "name": "from",
          "type": "address"
        },
        {
          "indexed": true,
          "internalType": "address",
          "name": "to",
          "type": "address"
        },
        {
          "indexed": false,
          "internalType": "uint256[]",
          "name": "ids",
          "type": "uint256[]"
        },
        {
          "indexed": false,
          "internalType": "uint256[]",
          "name": "values",
          "type": "uint256[]"
        }
      ],
      "name": "TransferBatch",
      "type": "event"
    },
    {
      "anonymous": false,
      "inputs": [
        {
          "indexed": true,
          "internalType": "address",
          "name": "operator",
          "type": "address"
        },
        {
          "indexed": true,
          "internalType": "address",
          "name": "from",
          "type": "address"
        },
        {
          "indexed": true,
          "internalType": "address",
          "name": "to",
          "type": "address"
        },
        {
          "indexed": false,
          "internalType": "uint256",
          "name": "id",
          "type": "uint256"
        },
        {
          "indexed": false,
          "internalType": "uint256",
          "name": "value",
          "type": "uint256"
        }
      ],
      "name": "TransferSingle",
      "type": "event"
    },
    {
      "anonymous": false,
      "inputs": [
        {
          "indexed": false,
          "internalType": "string",
          "name": "value",
          "type": "string"
        },
        {
          "indexed": true,
          "internalType": "uint256",
          "name": "id",
          "type": "uint256"
        }
      ],
      "name": "URI",
      "type": "event"
    },
    {
      "inputs": [
        {
          "internalType": "address",
          "name": "account",
          "type": "address"
        },
        {
          "internalType": "uint256",
          "name": "id",
          "type": "uint256"
        }
      ],
      "name": "balanceOf",
      "outputs": [
        {
          "internalType": "uint256",
          "name": "",
          "type": "uint256"
        }
      ],
      "stateMutability": "view",
      "type": "function"
    },
    {
      "inputs": [
        {
          "internalType": "address[]",
          "name": "accounts",
          "type": "address[]"
        },
        {
          "internalType": "uint256[]",
          "name": "ids",
          "type": "uint256[]"
        }
      ],
      "name": "balanceOfBatch",
      "outputs": [
        {
          "internalType": "uint256[]",
          "name": "",
          "type": "uint256[]"
        }
      ],
      "stateMutability": "view",
      "type": "function"
    },
    {
      "inputs": [
        {
          "internalType": "uint256",
          "name": "tokenId",
          "type": "uint256"
        },
        {
          "internalType": "uint256",
          "name": "quantity",
          "type": "uint256"
        }
      ],
      "name": "burn",
      "outputs": [],
      "stateMutability": "nonpayable",
      "type": "function"
    },
    {
      "inputs": [
        {
          "internalType": "uint256[]",
          "name": "ids",
          "type": "uint256[]"
        },
        {
          "internalType": "uint256[]",
          "name": "amounts",
          "type": "uint256[]"
        }
      ],
      "name": "burnBatch",
      "outputs": [],
      "stateMutability": "nonpayable",
      "type": "function"
    },
    {
      "inputs": [],
      "name": "contractName",
      "outputs": [
        {
          "internalType": "string",
          "name": "",
          "type": "string"
        }
      ],
      "stateMutability": "view",
      "type": "function"
    },
    {
      "inputs": [
        {
          "components": [
            {
              "internalType": "uint256",
              "name": "id",
              "type": "uint256"
            },
            {
              "internalType": "string",
              "name": "name",
              "type": "string"
            },
            {
              "internalType": "string",
              "name": "description",
              "type": "string"
            },
            {
              "internalType": "string",
              "name": "image",
              "type": "string"
            },
            {
              "internalType": "string",
              "name": "animation",
              "type": "string"
            },
            {
              "internalType": "string",
              "name": "uri",
              "type": "string"
            },
            {
              "internalType": "uint256[4]",
              "name": "bonus",
              "type": "uint256[4]"
            }
          ],
          "internalType": "struct IMod.Mod",
          "name": "_mod",
          "type": "tuple"
        }
      ],
      "name": "createMod",
      "outputs": [],
      "stateMutability": "nonpayable",
      "type": "function"
    },
    {
      "inputs": [],
      "name": "initialize",
      "outputs": [],
      "stateMutability": "nonpayable",
      "type": "function"
    },
    {
      "inputs": [
        {
          "internalType": "address",
          "name": "account",
          "type": "address"
        },
        {
          "internalType": "address",
          "name": "operator",
          "type": "address"
        }
      ],
      "name": "isApprovedForAll",
      "outputs": [
        {
          "internalType": "bool",
          "name": "",
          "type": "bool"
        }
      ],
      "stateMutability": "view",
      "type": "function"
    },
    {
      "inputs": [
        {
          "internalType": "address",
          "name": "to",
          "type": "address"
        },
        {
          "internalType": "uint256",
          "name": "id",
          "type": "uint256"
        },
        {
          "internalType": "uint256",
          "name": "amount",
          "type": "uint256"
        }
      ],
      "name": "mint",
      "outputs": [],
      "stateMutability": "nonpayable",
      "type": "function"
    },
    {
      "inputs": [
        {
          "internalType": "address",
          "name": "to",
          "type": "address"
        },
        {
          "internalType": "uint256[]",
          "name": "ids",
          "type": "uint256[]"
        },
        {
          "internalType": "uint256[]",
          "name": "amounts",
          "type": "uint256[]"
        }
      ],
      "name": "mintBatch",
      "outputs": [],
      "stateMutability": "nonpayable",
      "type": "function"
    },
    {
      "inputs": [],
      "name": "modIds",
      "outputs": [
        {
          "internalType": "uint256",
          "name": "",
          "type": "uint256"
        }
      ],
      "stateMutability": "view",
      "type": "function"
    },
    {
      "inputs": [],
      "name": "name",
      "outputs": [
        {
          "internalType": "string",
          "name": "",
          "type": "string"
        }
      ],
      "stateMutability": "pure",
      "type": "function"
    },
    {
      "inputs": [],
      "name": "royalties_recipient",
      "outputs": [
        {
          "internalType": "address",
          "name": "",
          "type": "address"
        }
      ],
      "stateMutability": "view",
      "type": "function"
    },
    {
      "inputs": [],
      "name": "royaltyAmount",
      "outputs": [
        {
          "internalType": "uint256",
          "name": "",
          "type": "uint256"
        }
      ],
      "stateMutability": "view",
      "type": "function"
    },
    {
      "inputs": [
        {
          "internalType": "uint256",
          "name": "salePrice",
          "type": "uint256"
        }
      ],
      "name": "royaltyInfo",
      "outputs": [
        {
          "internalType": "address",
          "name": "",
          "type": "address"
        },
        {
          "internalType": "uint256",
          "name": "",
          "type": "uint256"
        }
      ],
      "stateMutability": "view",
      "type": "function"
    },
    {
      "inputs": [
        {
          "internalType": "address",
          "name": "from",
          "type": "address"
        },
        {
          "internalType": "address",
          "name": "to",
          "type": "address"
        },
        {
          "internalType": "uint256[]",
          "name": "ids",
          "type": "uint256[]"
        },
        {
          "internalType": "uint256[]",
          "name": "amounts",
          "type": "uint256[]"
        },
        {
          "internalType": "bytes",
          "name": "data",
          "type": "bytes"
        }
      ],
      "name": "safeBatchTransferFrom",
      "outputs": [],
      "stateMutability": "nonpayable",
      "type": "function"
    },
    {
      "inputs": [
        {
          "internalType": "address",
          "name": "from",
          "type": "address"
        },
        {
          "internalType": "address",
          "name": "to",
          "type": "address"
        },
        {
          "internalType": "uint256",
          "name": "id",
          "type": "uint256"
        },
        {
          "internalType": "uint256",
          "name": "amount",
          "type": "uint256"
        },
        {
          "internalType": "bytes",
          "name": "data",
          "type": "bytes"
        }
      ],
      "name": "safeTransferFrom",
      "outputs": [],
      "stateMutability": "nonpayable",
      "type": "function"
    },
    {
      "inputs": [
        {
          "internalType": "address",
          "name": "operator",
          "type": "address"
        },
        {
          "internalType": "bool",
          "name": "approved",
          "type": "bool"
        }
      ],
      "name": "setApprovalForAll",
      "outputs": [],
      "stateMutability": "nonpayable",
      "type": "function"
    },
    {
      "inputs": [
        {
          "internalType": "address payable",
          "name": "_recipient",
          "type": "address"
        },
        {
          "internalType": "uint256",
          "name": "_royaltyPerCent",
          "type": "uint256"
        }
      ],
      "name": "setRoyalties",
      "outputs": [],
      "stateMutability": "nonpayable",
      "type": "function"
    },
    {
      "inputs": [
        {
          "internalType": "bytes4",
          "name": "interfaceId",
          "type": "bytes4"
        }
      ],
      "name": "supportsInterface",
      "outputs": [
        {
          "internalType": "bool",
          "name": "",
          "type": "bool"
        }
      ],
      "stateMutability": "view",
      "type": "function"
    },
    {
      "inputs": [
        {
          "internalType": "address",
          "name": "_admin",
          "type": "address"
        }
      ],
      "name": "toggleAdmin",
      "outputs": [],
      "stateMutability": "nonpayable",
      "type": "function"
    },
    {
      "inputs": [
        {
          "internalType": "uint256",
          "name": "_tokenId",
          "type": "uint256"
        }
      ],
      "name": "uri",
      "outputs": [
        {
          "internalType": "string",
          "name": "",
          "type": "string"
        }
      ],
      "stateMutability": "view",
      "type": "function"
    },
    {
      "inputs": [
        {
          "internalType": "address",
          "name": "recipient",
          "type": "address"
        }
      ],
      "name": "withdraw",
      "outputs": [],
      "stateMutability": "nonpayable",
      "type": "function"
    }
  ],
  "bytecode": "0x608060405234801561001057600080fd5b50613597806100206000396000f3fe608060405234801561001057600080fd5b506004361061018c5760003560e01c80638129fc1c116100e3578063b3e293661161008c578063d81d0a1511610066578063d81d0a15146103af578063e985e9c5146103c2578063f242432a146103fe57600080fd5b8063b3e2936614610361578063cef6d3681461036a578063d3b861411461039c57600080fd5b8063a22cb465116100bd578063a22cb46514610310578063afe5a1c914610323578063b390c0ab1461034e57600080fd5b80638129fc1c146102e257806383ca4b6f146102ea5780638c7ea24b146102fd57600080fd5b80632eb2c2d61161014557806351cff8d91161011f57806351cff8d91461028a57806375d0c0dc1461029d5780637c6e551d146102d957600080fd5b80632eb2c2d6146102445780633a0de2ce146102575780634e1273f41461026a57600080fd5b806306fdde031161017657806306fdde03146101da5780630e89341c1461021c578063156e29f61461022f57600080fd5b8062fdd58e1461019157806301ffc9a7146101b7575b600080fd5b6101a461019f3660046124d0565b610411565b6040519081526020015b60405180910390f35b6101ca6101c5366004612512565b6104bf565b60405190151581526020016101ae565b60408051808201909152601081527f566f69642032313232202d204d6f64730000000000000000000000000000000060208201525b6040516101ae9190612586565b61020f61022a366004612599565b61050d565b61024261023d3660046125b2565b610a77565b005b610242610252366004612733565b610ad2565b6102426102653660046127e1565b610b74565b61027d61027836600461281d565b610be2565b6040516101ae9190612925565b610242610298366004612938565b610d20565b61020f6040518060400160405280601081526020017f566f69642032313232202d204d6f64730000000000000000000000000000000081525081565b6101a460985481565b610242610d88565b6102426102f8366004612955565b61103f565b61024261030b3660046124d0565b61104a565b61024261031e3660046129a2565b6110ac565b609954610336906001600160a01b031681565b6040516001600160a01b0390911681526020016101ae565b61024261035c3660046129e0565b6110b7565b6101a460975481565b61037d610378366004612599565b6110c2565b604080516001600160a01b0390931683526020830191909152016101ae565b6102426103aa366004612938565b611115565b6102426103bd366004612a02565b61116d565b6101ca6103d0366004612a78565b6001600160a01b03918216600090815260666020908152604080832093909416825291909152205460ff1690565b61024261040c366004612aa6565b6111c3565b60006001600160a01b0383166104945760405162461bcd60e51b815260206004820152602a60248201527f455243313135353a2061646472657373207a65726f206973206e6f742061207660448201527f616c6964206f776e65720000000000000000000000000000000000000000000060648201526084015b60405180910390fd5b5060008181526065602090815260408083206001600160a01b03861684529091529020545b92915050565b60006104ca8261125e565b806104fe57506001600160e01b031982167f2a55205a00000000000000000000000000000000000000000000000000000000145b806104b957506104b98261125e565b6000818152609a60209081526040808320815160e0810190925280548252600181018054606095948401919061054290612b0f565b80601f016020809104026020016040519081016040528092919081815260200182805461056e90612b0f565b80156105bb5780601f10610590576101008083540402835291602001916105bb565b820191906000526020600020905b81548152906001019060200180831161059e57829003601f168201915b505050505081526020016002820180546105d490612b0f565b80601f016020809104026020016040519081016040528092919081815260200182805461060090612b0f565b801561064d5780601f106106225761010080835404028352916020019161064d565b820191906000526020600020905b81548152906001019060200180831161063057829003601f168201915b5050505050815260200160038201805461066690612b0f565b80601f016020809104026020016040519081016040528092919081815260200182805461069290612b0f565b80156106df5780601f106106b4576101008083540402835291602001916106df565b820191906000526020600020905b8154815290600101906020018083116106c257829003601f168201915b505050505081526020016004820180546106f890612b0f565b80601f016020809104026020016040519081016040528092919081815260200182805461072490612b0f565b80156107715780601f1061074657610100808354040283529160200191610771565b820191906000526020600020905b81548152906001019060200180831161075457829003601f168201915b5050505050815260200160058201805461078a90612b0f565b80601f01602080910402602001604051908101604052809291908181526020018280546107b690612b0f565b80156108035780601f106107d857610100808354040283529160200191610803565b820191906000526020600020905b8154815290600101906020018083116107e657829003601f168201915b505050918352505060408051608081019182905260209092019190600684019060049082845b815481526020019060010190808311610829575050505050815250509050600061086d8260c0015160006004811061086357610863612b49565b60200201516112f9565b60c083015161087d906001610863565b60c084015161088d906002610863565b60c085015161089d906003610863565b6040516020016108b09493929190612b7b565b60405160208183030381529060405290506000609c6000815481106108d7576108d7612b49565b9060005260206000200183602001516040516020016108f7929190612da8565b604051602081830303815290604052609c60018154811061091a5761091a612b49565b90600052602060002001846040015160405160200161093a929190612da8565b604051602081830303815290604052609c60028154811061095d5761095d612b49565b90600052602060002001856060015160405160200161097d929190612da8565b604051602081830303815290604052609c6003815481106109a0576109a0612b49565b9060005260206000200186608001516040516020016109c0929190612da8565b604051602081830303815290604052609c6004815481106109e3576109e3612b49565b90600052602060002001866040516020016109ff929190612da8565b604051602081830303815290604052609c600581548110610a2257610a22612b49565b90600052602060002001604051602001610a3c9190612dcd565b60408051601f1981840301815290829052610a5e969594939291602001612dd9565b60408051601f1981840301815291905295945050505050565b336000908152609b602052604090205460ff16610aa6576040516282b42960e81b815260040160405180910390fd5b610acd8383836040518060400160405280600381526020016203078360ec1b815250611399565b505050565b6001600160a01b038516331480610aee5750610aee85336103d0565b610b605760405162461bcd60e51b815260206004820152602e60248201527f455243313135353a2063616c6c6572206973206e6f7420746f6b656e206f776e60448201527f6572206f7220617070726f766564000000000000000000000000000000000000606482015260840161048b565b610b6d85858585856114af565b5050505050565b6097546000908152609a602052604090208190610b918282612ffa565b505060978054906000610ba383613151565b91905055507fd136e9496e819ddf98ac281107ac468220fc8113db00f53aa547848addae1db981604051610bd791906131d9565b60405180910390a150565b60608151835114610c5b5760405162461bcd60e51b815260206004820152602960248201527f455243313135353a206163636f756e747320616e6420696473206c656e67746860448201527f206d69736d617463680000000000000000000000000000000000000000000000606482015260840161048b565b6000835167ffffffffffffffff811115610c7757610c776125e7565b604051908082528060200260200182016040528015610ca0578160200160208202803683370190505b50905060005b8451811015610d1857610ceb858281518110610cc457610cc4612b49565b6020026020010151858381518110610cde57610cde612b49565b6020026020010151610411565b828281518110610cfd57610cfd612b49565b6020908102919091010152610d1181613151565b9050610ca6565b509392505050565b336000908152609b602052604090205460ff16610d4f576040516282b42960e81b815260040160405180910390fd5b6040516001600160a01b038216904780156108fc02916000818181858888f19350505050158015610d84573d6000803e3d6000fd5b5050565b600054610100900460ff1615808015610da85750600054600160ff909116105b80610dc25750303b158015610dc2575060005460ff166001145b610e345760405162461bcd60e51b815260206004820152602e60248201527f496e697469616c697a61626c653a20636f6e747261637420697320616c72656160448201527f647920696e697469616c697a6564000000000000000000000000000000000000606482015260840161048b565b6000805460ff191660011790558015610e57576000805461ff0019166101001790555b610e6f60405180602001604052806000815250611710565b60016097819055600a6098556099805473ffffffffffffffffffffffffffffffffffffffff1916339081179091556000908152609b602052604090819020805460ff191690921790915580516101208101909152602460c08201818152829161353e60e08401398152604080518082018252601281527f222c20226465736372697074696f6e223a2200000000000000000000000000006020828101919091528084019190915281518083018352600c81527f222c2022696d616765223a220000000000000000000000000000000000000000818301528284015281518083018352601081527f222c2022616e696d6174696f6e223a220000000000000000000000000000000081830152606084015281518083018352601181527f222c202261747472696275746573223a5b0000000000000000000000000000008183015260808401528151808301909252600282527f5d7d0000000000000000000000000000000000000000000000000000000000009082015260a090910152610ff990609c9060066123fe565b50801561103c576000805461ff0019169055604051600181527f7f26b83ff96e1f2b6a682f133852f6798a09c465da95921460cefb384740249890602001610bd7565b50565b610d84338383611784565b336000908152609b602052604090205460ff16611079576040516282b42960e81b815260040160405180910390fd5b6099805473ffffffffffffffffffffffffffffffffffffffff19166001600160a01b039390931692909217909155609855565b610d843383836119cc565b610d84338383611ac0565b60995460009081906001600160a01b03161561110a576099546098546001600160a01b03909116906064906110f79086612fc2565b61110191906132c1565b91509150915091565b506000928392509050565b336000908152609b602052604090205460ff16611144576040516282b42960e81b815260040160405180910390fd5b6001600160a01b03166000908152609b60205260409020805460ff19811660ff90911615179055565b336000908152609b602052604090205460ff1661119c576040516282b42960e81b815260040160405180910390fd5b610acd8383836040518060400160405280600381526020016203078360ec1b815250611c3f565b6001600160a01b0385163314806111df57506111df85336103d0565b6112515760405162461bcd60e51b815260206004820152602e60248201527f455243313135353a2063616c6c6572206973206e6f7420746f6b656e206f776e60448201527f6572206f7220617070726f766564000000000000000000000000000000000000606482015260840161048b565b610b6d8585858585611e06565b60006001600160e01b031982167fd9b67a260000000000000000000000000000000000000000000000000000000014806112c157506001600160e01b031982167f0e89341c00000000000000000000000000000000000000000000000000000000145b806104b957507f01ffc9a7000000000000000000000000000000000000000000000000000000006001600160e01b03198316146104b9565b6060600061130683611fb5565b600101905060008167ffffffffffffffff811115611326576113266125e7565b6040519080825280601f01601f191660200182016040528015611350576020820181803683370190505b5090508181016020015b600019017f3031323334353637383961626364656600000000000000000000000000000000600a86061a8153600a850494508461135a57509392505050565b6001600160a01b0384166113f95760405162461bcd60e51b815260206004820152602160248201527f455243313135353a206d696e7420746f20746865207a65726f206164647265736044820152607360f81b606482015260840161048b565b33600061140585612097565b9050600061141285612097565b905060008681526065602090815260408083206001600160a01b038b168452909152812080548792906114469084906132e3565b909155505060408051878152602081018790526001600160a01b03808a1692600092918716917fc3d58168c5ae7397731d063d5bbf3d657854427343f4c083240f7aacaa2d0f62910160405180910390a46114a6836000898989896120e2565b50505050505050565b81518351146115115760405162461bcd60e51b815260206004820152602860248201527f455243313135353a2069647320616e6420616d6f756e7473206c656e677468206044820152670dad2e6dac2e8c6d60c31b606482015260840161048b565b6001600160a01b0384166115755760405162461bcd60e51b815260206004820152602560248201527f455243313135353a207472616e7366657220746f20746865207a65726f206164604482015264647265737360d81b606482015260840161048b565b3360005b84518110156116a257600085828151811061159657611596612b49565b6020026020010151905060008583815181106115b4576115b4612b49565b60209081029190910181015160008481526065835260408082206001600160a01b038e1683529093529190912054909150818110156116485760405162461bcd60e51b815260206004820152602a60248201527f455243313135353a20696e73756666696369656e742062616c616e636520666f60448201526939103a3930b739b332b960b11b606482015260840161048b565b60008381526065602090815260408083206001600160a01b038e8116855292528083208585039055908b168252812080548492906116879084906132e3565b925050819055505050508061169b90613151565b9050611579565b50846001600160a01b0316866001600160a01b0316826001600160a01b03167f4a39dc06d4c0dbc64b70af90fd698a233a518aa5d07e595d983b8c0526c8f7fb87876040516116f29291906132f6565b60405180910390a4611708818787878787612287565b505050505050565b600054610100900460ff1661177b5760405162461bcd60e51b815260206004820152602b60248201527f496e697469616c697a61626c653a20636f6e7472616374206973206e6f74206960448201526a6e697469616c697a696e6760a81b606482015260840161048b565b61103c81612383565b6001600160a01b0383166117e65760405162461bcd60e51b815260206004820152602360248201527f455243313135353a206275726e2066726f6d20746865207a65726f206164647260448201526265737360e81b606482015260840161048b565b80518251146118485760405162461bcd60e51b815260206004820152602860248201527f455243313135353a2069647320616e6420616d6f756e7473206c656e677468206044820152670dad2e6dac2e8c6d60c31b606482015260840161048b565b604080516020810190915260009081905233905b835181101561195d57600084828151811061187957611879612b49565b60200260200101519050600084838151811061189757611897612b49565b60209081029190910181015160008481526065835260408082206001600160a01b038c1683529093529190912054909150818110156119245760405162461bcd60e51b8152602060048201526024808201527f455243313135353a206275726e20616d6f756e7420657863656564732062616c604482015263616e636560e01b606482015260840161048b565b60009283526065602090815260408085206001600160a01b038b168652909152909220910390558061195581613151565b91505061185c565b5060006001600160a01b0316846001600160a01b0316826001600160a01b03167f4a39dc06d4c0dbc64b70af90fd698a233a518aa5d07e595d983b8c0526c8f7fb86866040516119ae9291906132f6565b60405180910390a46040805160208101909152600090525b50505050565b816001600160a01b0316836001600160a01b031603611a535760405162461bcd60e51b815260206004820152602960248201527f455243313135353a2073657474696e6720617070726f76616c2073746174757360448201527f20666f722073656c660000000000000000000000000000000000000000000000606482015260840161048b565b6001600160a01b03838116600081815260666020908152604080832094871680845294825291829020805460ff191686151590811790915591519182527f17307eab39ab6107e8899845ad3d59bd9653f200f220920489ca2b5937696c31910160405180910390a3505050565b6001600160a01b038316611b225760405162461bcd60e51b815260206004820152602360248201527f455243313135353a206275726e2066726f6d20746865207a65726f206164647260448201526265737360e81b606482015260840161048b565b336000611b2e84612097565b90506000611b3b84612097565b6040805160208082018352600091829052888252606581528282206001600160a01b038b1683529052205490915084811015611bc55760405162461bcd60e51b8152602060048201526024808201527f455243313135353a206275726e20616d6f756e7420657863656564732062616c604482015263616e636560e01b606482015260840161048b565b60008681526065602090815260408083206001600160a01b038b81168086529184528285208a8703905582518b81529384018a90529092908816917fc3d58168c5ae7397731d063d5bbf3d657854427343f4c083240f7aacaa2d0f62910160405180910390a46040805160208101909152600090526114a6565b6001600160a01b038416611c9f5760405162461bcd60e51b815260206004820152602160248201527f455243313135353a206d696e7420746f20746865207a65726f206164647265736044820152607360f81b606482015260840161048b565b8151835114611d015760405162461bcd60e51b815260206004820152602860248201527f455243313135353a2069647320616e6420616d6f756e7473206c656e677468206044820152670dad2e6dac2e8c6d60c31b606482015260840161048b565b3360005b8451811015611d9e57838181518110611d2057611d20612b49565b602002602001015160656000878481518110611d3e57611d3e612b49565b602002602001015181526020019081526020016000206000886001600160a01b03166001600160a01b031681526020019081526020016000206000828254611d8691906132e3565b90915550819050611d9681613151565b915050611d05565b50846001600160a01b031660006001600160a01b0316826001600160a01b03167f4a39dc06d4c0dbc64b70af90fd698a233a518aa5d07e595d983b8c0526c8f7fb8787604051611def9291906132f6565b60405180910390a4610b6d81600087878787612287565b6001600160a01b038416611e6a5760405162461bcd60e51b815260206004820152602560248201527f455243313135353a207472616e7366657220746f20746865207a65726f206164604482015264647265737360d81b606482015260840161048b565b336000611e7685612097565b90506000611e8385612097565b905060008681526065602090815260408083206001600160a01b038c16845290915290205485811015611f0b5760405162461bcd60e51b815260206004820152602a60248201527f455243313135353a20696e73756666696369656e742062616c616e636520666f60448201526939103a3930b739b332b960b11b606482015260840161048b565b60008781526065602090815260408083206001600160a01b038d8116855292528083208985039055908a16825281208054889290611f4a9084906132e3565b909155505060408051888152602081018890526001600160a01b03808b16928c821692918816917fc3d58168c5ae7397731d063d5bbf3d657854427343f4c083240f7aacaa2d0f62910160405180910390a4611faa848a8a8a8a8a6120e2565b505050505050505050565b6000807a184f03e93ff9f4daa797ed6e38ed64bf6a1f0100000000000000008310611ffe577a184f03e93ff9f4daa797ed6e38ed64bf6a1f010000000000000000830492506040015b6d04ee2d6d415b85acef8100000000831061202a576d04ee2d6d415b85acef8100000000830492506020015b662386f26fc10000831061204857662386f26fc10000830492506010015b6305f5e1008310612060576305f5e100830492506008015b612710831061207457612710830492506004015b60648310612086576064830492506002015b600a83106104b95760010192915050565b604080516001808252818301909252606091600091906020808301908036833701905050905082816000815181106120d1576120d1612b49565b602090810291909101015292915050565b6001600160a01b0384163b156117085760405163f23a6e6160e01b81526001600160a01b0385169063f23a6e61906121269089908990889088908890600401613324565b6020604051808303816000875af1925050508015612161575060408051601f3d908101601f1916820190925261215e9181019061335c565b60015b6122165761216d613379565b806308c379a0036121a65750612181613395565b8061218c57506121a8565b8060405162461bcd60e51b815260040161048b9190612586565b505b60405162461bcd60e51b815260206004820152603460248201527f455243313135353a207472616e7366657220746f206e6f6e2d4552433131353560448201527f526563656976657220696d706c656d656e746572000000000000000000000000606482015260840161048b565b6001600160e01b0319811663f23a6e6160e01b146114a65760405162461bcd60e51b815260206004820152602860248201527f455243313135353a204552433131353552656365697665722072656a656374656044820152676420746f6b656e7360c01b606482015260840161048b565b6001600160a01b0384163b156117085760405163bc197c8160e01b81526001600160a01b0385169063bc197c81906122cb908990899088908890889060040161341f565b6020604051808303816000875af1925050508015612306575060408051601f3d908101601f191682019092526123039181019061335c565b60015b6123125761216d613379565b6001600160e01b0319811663bc197c8160e01b146114a65760405162461bcd60e51b815260206004820152602860248201527f455243313135353a204552433131353552656365697665722072656a656374656044820152676420746f6b656e7360c01b606482015260840161048b565b600054610100900460ff166123ee5760405162461bcd60e51b815260206004820152602b60248201527f496e697469616c697a61626c653a20636f6e7472616374206973206e6f74206960448201526a6e697469616c697a696e6760a81b606482015260840161048b565b61103c816067610d84828261347d565b828054828255906000526020600020908101928215612444579160200282015b828111156124445782518290612434908261347d565b509160200191906001019061241e565b50612450929150612454565b5090565b808211156124505760006124688282612471565b50600101612454565b50805461247d90612b0f565b6000825580601f1061248d575050565b601f01602090049060005260206000209081019061103c91905b8082111561245057600081556001016124a7565b6001600160a01b038116811461103c57600080fd5b600080604083850312156124e357600080fd5b82356124ee816124bb565b946020939093013593505050565b6001600160e01b03198116811461103c57600080fd5b60006020828403121561252457600080fd5b813561252f816124fc565b9392505050565b60005b83811015612551578181015183820152602001612539565b50506000910152565b60008151808452612572816020860160208601612536565b601f01601f19169290920160200192915050565b60208152600061252f602083018461255a565b6000602082840312156125ab57600080fd5b5035919050565b6000806000606084860312156125c757600080fd5b83356125d2816124bb565b95602085013595506040909401359392505050565b634e487b7160e01b600052604160045260246000fd5b601f8201601f1916810167ffffffffffffffff81118282101715612623576126236125e7565b6040525050565b600067ffffffffffffffff821115612644576126446125e7565b5060051b60200190565b600082601f83011261265f57600080fd5b8135602061266c8261262a565b60405161267982826125fd565b83815260059390931b850182019282810191508684111561269957600080fd5b8286015b848110156126b4578035835291830191830161269d565b509695505050505050565b600082601f8301126126d057600080fd5b813567ffffffffffffffff8111156126ea576126ea6125e7565b604051612701601f8301601f1916602001826125fd565b81815284602083860101111561271657600080fd5b816020850160208301376000918101602001919091529392505050565b600080600080600060a0868803121561274b57600080fd5b8535612756816124bb565b94506020860135612766816124bb565b9350604086013567ffffffffffffffff8082111561278357600080fd5b61278f89838a0161264e565b945060608801359150808211156127a557600080fd5b6127b189838a0161264e565b935060808801359150808211156127c757600080fd5b506127d4888289016126bf565b9150509295509295909350565b6000602082840312156127f357600080fd5b813567ffffffffffffffff81111561280a57600080fd5b8201610140818503121561252f57600080fd5b6000806040838503121561283057600080fd5b823567ffffffffffffffff8082111561284857600080fd5b818501915085601f83011261285c57600080fd5b813560206128698261262a565b60405161287682826125fd565b83815260059390931b850182019282810191508984111561289657600080fd5b948201945b838610156128bd5785356128ae816124bb565b8252948201949082019061289b565b965050860135925050808211156128d357600080fd5b506128e08582860161264e565b9150509250929050565b600081518084526020808501945080840160005b8381101561291a578151875295820195908201906001016128fe565b509495945050505050565b60208152600061252f60208301846128ea565b60006020828403121561294a57600080fd5b813561252f816124bb565b6000806040838503121561296857600080fd5b823567ffffffffffffffff8082111561298057600080fd5b61298c8683870161264e565b935060208501359150808211156128d357600080fd5b600080604083850312156129b557600080fd5b82356129c0816124bb565b9150602083013580151581146129d557600080fd5b809150509250929050565b600080604083850312156129f357600080fd5b50508035926020909101359150565b600080600060608486031215612a1757600080fd5b8335612a22816124bb565b9250602084013567ffffffffffffffff80821115612a3f57600080fd5b612a4b8783880161264e565b93506040860135915080821115612a6157600080fd5b50612a6e8682870161264e565b9150509250925092565b60008060408385031215612a8b57600080fd5b8235612a96816124bb565b915060208301356129d5816124bb565b600080600080600060a08688031215612abe57600080fd5b8535612ac9816124bb565b94506020860135612ad9816124bb565b93506040860135925060608601359150608086013567ffffffffffffffff811115612b0357600080fd5b6127d4888289016126bf565b600181811c90821680612b2357607f821691505b602082108103612b4357634e487b7160e01b600052602260045260246000fd5b50919050565b634e487b7160e01b600052603260045260246000fd5b60008151612b71818560208601612536565b9290920192915050565b7f7b2274726169745f74797065223a2022546f7020426f6e7573222c202276616c81527f7565223a20220000000000000000000000000000000000000000000000000000602082015260008551612bd9816026850160208a01612536565b7f227d2c207b2274726169745f74797065223a2022526967687420426f6e7573226026918401918201527f2c202276616c7565223a2022000000000000000000000000000000000000000060468201528551612c3c816052840160208a01612536565b7f227d2c207b2274726169745f74797065223a2022426f74746f6d20426f6e7573605292909101918201527f222c202276616c7565223a20220000000000000000000000000000000000000060728201528451612ca081607f840160208901612536565b7f227d2c207b2274726169745f74797065223a20224c65667420426f6e7573222c607f92909101918201527f202276616c7565223a2022000000000000000000000000000000000000000000609f820152612d2a612d0160aa830186612b5f565b7f227d000000000000000000000000000000000000000000000000000000000000815260020190565b979650505050505050565b60008154612d4281612b0f565b60018281168015612d5a5760018114612d6f57612d9e565b60ff1984168752821515830287019450612d9e565b8560005260208060002060005b85811015612d955781548a820152908401908201612d7c565b50505082870194505b5050505092915050565b6000612db48285612d35565b8351612dc4818360208801612536565b01949350505050565b600061252f8284612d35565b600087516020612dec8285838d01612536565b885191840191612dff8184848d01612536565b8851920191612e118184848c01612536565b8751920191612e238184848b01612536565b8651920191612e358184848a01612536565b8551920191612e478184848901612536565b919091019998505050505050505050565b6000808335601e19843603018112612e6f57600080fd5b83018035915067ffffffffffffffff821115612e8a57600080fd5b602001915036819003821315612e9f57600080fd5b9250929050565b601f821115610acd57600081815260208120601f850160051c81016020861015612ecd5750805b601f850160051c820191505b8181101561170857828155600101612ed9565b67ffffffffffffffff831115612f0457612f046125e7565b612f1883612f128354612b0f565b83612ea6565b6000601f841160018114612f4c5760008515612f345750838201355b600019600387901b1c1916600186901b178355610b6d565b600083815260209020601f19861690835b82811015612f7d5786850135825560209485019460019092019101612f5d565b5086821015612f9a5760001960f88860031b161c19848701351681555b505060018560011b0183555050505050565b634e487b7160e01b600052601160045260246000fd5b80820281158282048414176104b9576104b9612fac565b8160005b60048110156119c657813583820155602090910190600101612fdd565b813581556001808201602061301181860186612e58565b67ffffffffffffffff811115613029576130296125e7565b61303d816130378654612b0f565b86612ea6565b6000601f82116001811461307157600083156130595750838201355b600019600385901b1c1916600184901b1786556130c6565b600086815260209020601f19841690835b8281101561309f5786850135825593870193908901908701613082565b50848210156130bc5760001960f88660031b161c19848701351681555b50508683881b0186555b505050505050506130da6040830183612e58565b6130e8818360028601612eec565b50506130f76060830183612e58565b613105818360038601612eec565b50506131146080830183612e58565b613122818360048601612eec565b505061313160a0830183612e58565b61313f818360058601612eec565b5050610d8460c0830160068301612fd9565b60006001820161316357613163612fac565b5060010190565b6000808335601e1984360301811261318157600080fd5b830160208101925035905067ffffffffffffffff8111156131a157600080fd5b803603821315612e9f57600080fd5b81835281816020850137506000828201602090810191909152601f909101601f19169091010190565b602081528135602082015260006131f3602084018461316a565b610140604085015261320a610160850182846131b0565b91505061321a604085018561316a565b601f19808685030160608701526132328483856131b0565b9350613241606088018861316a565b935091508086850301608087015261325a8484846131b0565b9350613269608088018861316a565b93509150808685030160a08701526132828484846131b0565b935061329160a088018861316a565b93509150808685030160c0870152506132ab8383836131b0565b92505050608060c0850160e08501379392505050565b6000826132de57634e487b7160e01b600052601260045260246000fd5b500490565b808201808211156104b9576104b9612fac565b60408152600061330960408301856128ea565b828103602084015261331b81856128ea565b95945050505050565b60006001600160a01b03808816835280871660208401525084604083015283606083015260a06080830152612d2a60a083018461255a565b60006020828403121561336e57600080fd5b815161252f816124fc565b600060033d11156133925760046000803e5060005160e01c5b90565b600060443d10156133a35790565b6040516003193d81016004833e81513d67ffffffffffffffff81602484011181841117156133d357505050505090565b82850191508151818111156133eb5750505050505090565b843d87010160208285010111156134055750505050505090565b613414602082860101876125fd565b509095945050505050565b60006001600160a01b03808816835280871660208401525060a0604083015261344b60a08301866128ea565b828103606084015261345d81866128ea565b90508281036080840152613471818561255a565b98975050505050505050565b815167ffffffffffffffff811115613497576134976125e7565b6134ab816134a58454612b0f565b84612ea6565b602080601f8311600181146134e057600084156134c85750858301515b600019600386901b1c1916600185901b178555611708565b600085815260208120601f198616915b8281101561350f578886015182559484019460019091019084016134f0565b508582101561352d5787850151600019600388901b60f8161c191681555b5050505050600190811b0190555056fe646174613a6170706c69636174696f6e2f6a736f6e3b757466382c7b226e616d65223a22a26469706673582212205aee151a6f625dba8e3f21b5051b9bb74540bf1ade972b6945dffaafeeaba3c064736f6c63430008110033",
  "linkReferences": {},
  "deployedLinkReferences": {}
}