{
  "_format": "hh-sol-artifact-1",
  "contractName": "Wuzzles",
  "sourceName": "contracts/Wuzzles.sol",
  "abi": [
    {
      "inputs": [
        {
          "internalType": "string",
          "name": "unrevealedURI",
          "type": "string"
        }
      ],
      "stateMutability": "nonpayable",
      "type": "constructor"
    },
    {
      "anonymous": false,
      "inputs": [
        {
          "indexed": true,
          "internalType": "address",
          "name": "owner",
          "type": "address"
        },
        {
          "indexed": true,
          "internalType": "address",
          "name": "approved",
          "type": "address"
        },
        {
          "indexed": true,
          "internalType": "uint256",
          "name": "tokenId",
          "type": "uint256"
        }
      ],
      "name": "Approval",
      "type": "event"
    },
    {
      "anonymous": false,
      "inputs": [
        {
          "indexed": true,
          "internalType": "address",
          "name": "owner",
          "type": "address"
        },
        {
          "indexed": true,
          "internalType": "address",
          "name": "operator",
          "type": "address"
        },
        {
          "indexed": false,
          "internalType": "bool",
          "name": "approved",
          "type": "bool"
        }
      ],
      "name": "ApprovalForAll",
      "type": "event"
    },
    {
      "anonymous": false,
      "inputs": [
        {
          "indexed": true,
          "internalType": "address",
          "name": "from",
          "type": "address"
        },
        {
          "indexed": true,
          "internalType": "address",
          "name": "to",
          "type": "address"
        },
        {
          "indexed": true,
          "internalType": "uint256",
          "name": "tokenId",
          "type": "uint256"
        }
      ],
      "name": "Transfer",
      "type": "event"
    },
    {
      "inputs": [
        {
          "internalType": "address",
          "name": "",
          "type": "address"
        }
      ],
      "name": "_isAdmin",
      "outputs": [
        {
          "internalType": "bool",
          "name": "",
          "type": "bool"
        }
      ],
      "stateMutability": "view",
      "type": "function"
    },
    {
      "inputs": [],
      "name": "_maxSupply",
      "outputs": [
        {
          "internalType": "uint256",
          "name": "",
          "type": "uint256"
        }
      ],
      "stateMutability": "view",
      "type": "function"
    },
    {
      "inputs": [],
      "name": "_tokenId",
      "outputs": [
        {
          "internalType": "uint256",
          "name": "",
          "type": "uint256"
        }
      ],
      "stateMutability": "view",
      "type": "function"
    },
    {
      "inputs": [
        {
          "internalType": "address",
          "name": "to",
          "type": "address"
        },
        {
          "internalType": "uint256",
          "name": "tokenId",
          "type": "uint256"
        }
      ],
      "name": "approve",
      "outputs": [],
      "stateMutability": "nonpayable",
      "type": "function"
    },
    {
      "inputs": [
        {
          "internalType": "address",
          "name": "owner",
          "type": "address"
        }
      ],
      "name": "balanceOf",
      "outputs": [
        {
          "internalType": "uint256",
          "name": "",
          "type": "uint256"
        }
      ],
      "stateMutability": "view",
      "type": "function"
    },
    {
      "inputs": [
        {
          "internalType": "uint256",
          "name": "tokenId",
          "type": "uint256"
        }
      ],
      "name": "getApproved",
      "outputs": [
        {
          "internalType": "address",
          "name": "",
          "type": "address"
        }
      ],
      "stateMutability": "view",
      "type": "function"
    },
    {
      "inputs": [
        {
          "internalType": "address",
          "name": "owner",
          "type": "address"
        },
        {
          "internalType": "address",
          "name": "operator",
          "type": "address"
        }
      ],
      "name": "isApprovedForAll",
      "outputs": [
        {
          "internalType": "bool",
          "name": "",
          "type": "bool"
        }
      ],
      "stateMutability": "view",
      "type": "function"
    },
    {
      "inputs": [
        {
          "internalType": "address",
          "name": "to",
          "type": "address"
        }
      ],
      "name": "mint",
      "outputs": [],
      "stateMutability": "nonpayable",
      "type": "function"
    },
    {
      "inputs": [],
      "name": "name",
      "outputs": [
        {
          "internalType": "string",
          "name": "",
          "type": "string"
        }
      ],
      "stateMutability": "view",
      "type": "function"
    },
    {
      "inputs": [
        {
          "internalType": "uint256",
          "name": "tokenId",
          "type": "uint256"
        }
      ],
      "name": "ownerOf",
      "outputs": [
        {
          "internalType": "address",
          "name": "",
          "type": "address"
        }
      ],
      "stateMutability": "view",
      "type": "function"
    },
    {
      "inputs": [
        {
          "internalType": "string",
          "name": "revealedURI",
          "type": "string"
        }
      ],
      "name": "reveal",
      "outputs": [],
      "stateMutability": "nonpayable",
      "type": "function"
    },
    {
      "inputs": [
        {
          "internalType": "uint256",
          "name": "salePrice",
          "type": "uint256"
        }
      ],
      "name": "royaltyInfo",
      "outputs": [
        {
          "internalType": "address",
          "name": "",
          "type": "address"
        },
        {
          "internalType": "uint256",
          "name": "",
          "type": "uint256"
        }
      ],
      "stateMutability": "view",
      "type": "function"
    },
    {
      "inputs": [
        {
          "internalType": "address",
          "name": "from",
          "type": "address"
        },
        {
          "internalType": "address",
          "name": "to",
          "type": "address"
        },
        {
          "internalType": "uint256",
          "name": "tokenId",
          "type": "uint256"
        }
      ],
      "name": "safeTransferFrom",
      "outputs": [],
      "stateMutability": "nonpayable",
      "type": "function"
    },
    {
      "inputs": [
        {
          "internalType": "address",
          "name": "from",
          "type": "address"
        },
        {
          "internalType": "address",
          "name": "to",
          "type": "address"
        },
        {
          "internalType": "uint256",
          "name": "tokenId",
          "type": "uint256"
        },
        {
          "internalType": "bytes",
          "name": "data",
          "type": "bytes"
        }
      ],
      "name": "safeTransferFrom",
      "outputs": [],
      "stateMutability": "nonpayable",
      "type": "function"
    },
    {
      "inputs": [
        {
          "internalType": "address",
          "name": "operator",
          "type": "address"
        },
        {
          "internalType": "bool",
          "name": "approved",
          "type": "bool"
        }
      ],
      "name": "setApprovalForAll",
      "outputs": [],
      "stateMutability": "nonpayable",
      "type": "function"
    },
    {
      "inputs": [
        {
          "internalType": "address payable",
          "name": "_recipient",
          "type": "address"
        },
        {
          "internalType": "uint256",
          "name": "_royaltyPerCent",
          "type": "uint256"
        }
      ],
      "name": "setRoyalties",
      "outputs": [],
      "stateMutability": "nonpayable",
      "type": "function"
    },
    {
      "inputs": [
        {
          "internalType": "string",
          "name": "uri",
          "type": "string"
        }
      ],
      "name": "setURI",
      "outputs": [],
      "stateMutability": "nonpayable",
      "type": "function"
    },
    {
      "inputs": [
        {
          "internalType": "bytes4",
          "name": "interfaceId",
          "type": "bytes4"
        }
      ],
      "name": "supportsInterface",
      "outputs": [
        {
          "internalType": "bool",
          "name": "",
          "type": "bool"
        }
      ],
      "stateMutability": "view",
      "type": "function"
    },
    {
      "inputs": [],
      "name": "symbol",
      "outputs": [
        {
          "internalType": "string",
          "name": "",
          "type": "string"
        }
      ],
      "stateMutability": "view",
      "type": "function"
    },
    {
      "inputs": [
        {
          "internalType": "address",
          "name": "admin",
          "type": "address"
        }
      ],
      "name": "toggleAdmin",
      "outputs": [],
      "stateMutability": "nonpayable",
      "type": "function"
    },
    {
      "inputs": [
        {
          "internalType": "uint256",
          "name": "tokenId",
          "type": "uint256"
        }
      ],
      "name": "tokenURI",
      "outputs": [
        {
          "internalType": "string",
          "name": "",
          "type": "string"
        }
      ],
      "stateMutability": "view",
      "type": "function"
    },
    {
      "inputs": [
        {
          "internalType": "address",
          "name": "from",
          "type": "address"
        },
        {
          "internalType": "address",
          "name": "to",
          "type": "address"
        },
        {
          "internalType": "uint256",
          "name": "tokenId",
          "type": "uint256"
        }
      ],
      "name": "transferFrom",
      "outputs": [],
      "stateMutability": "nonpayable",
      "type": "function"
    },
    {
      "inputs": [
        {
          "internalType": "address",
          "name": "recipient",
          "type": "address"
        }
      ],
      "name": "withdraw",
      "outputs": [],
      "stateMutability": "nonpayable",
      "type": "function"
    }
  ],
  "bytecode": "0x608060405261038460095534801562000016575f80fd5b5060405162002570380380620025708339810160408190526200003991620002a6565b6040518060400160405280600781526020016657757a7a6c657360c81b8152506040518060400160405280600381526020016215d69360ea1b815250815f9081620000859190620003fe565b506001620000948282620003fe565b5050506040518060a001604052806040518060600160405280602481526020016200254c6024913981526040805180820182526012815271111610113232b9b1b934b83a34b7b7111d1160711b6020828101919091528084019190915281518083018352600c81526b1116101134b6b0b3b2911d1160a11b818301528284015281518083018352601081526f1116101134b6b0b3b2afbab936111d1160811b81830152606084015281518083019092526002825261227d60f01b908201526080909101526200016890600a906005620001c2565b50335f818152600e602052604090208054600160ff199182168117909255600680546001600160a01b0319169093179092556102ee600755600855600d80549091169055600c620001ba8282620003fe565b5050620004ca565b828054828255905f5260205f209081019282156200020b579160200282015b828111156200020b5782518290620001fa9082620003fe565b5091602001919060010190620001e1565b50620002199291506200021d565b5090565b8082111562000219575f6200023382826200023d565b506001016200021d565b5080546200024b9062000374565b5f825580601f106200025b575050565b601f0160209004905f5260205f20908101906200027991906200027c565b50565b5b8082111562000219575f81556001016200027d565b634e487b7160e01b5f52604160045260245ffd5b5f6020808385031215620002b8575f80fd5b82516001600160401b0380821115620002cf575f80fd5b818501915085601f830112620002e3575f80fd5b815181811115620002f857620002f862000292565b604051601f8201601f19908116603f0116810190838211818310171562000323576200032362000292565b8160405282815288868487010111156200033b575f80fd5b5f93505b828410156200035e57848401860151818501870152928501926200033f565b5f86848301015280965050505050505092915050565b600181811c908216806200038957607f821691505b602082108103620003a857634e487b7160e01b5f52602260045260245ffd5b50919050565b601f821115620003f957805f5260205f20601f840160051c81016020851015620003d55750805b601f840160051c820191505b81811015620003f6575f8155600101620003e1565b50505b505050565b81516001600160401b038111156200041a576200041a62000292565b62000432816200042b845462000374565b84620003ae565b602080601f83116001811462000468575f8415620004505750858301515b5f19600386901b1c1916600185901b178555620004c2565b5f85815260208120601f198616915b82811015620004985788860151825594840194600190910190840162000477565b5085821015620004b657878501515f19600388901b60f8161c191681555b505060018460011b0185555b505050505050565b61207480620004d85f395ff3fe608060405234801561000f575f80fd5b5060043610610184575f3560e01c80636352211e116100dd578063b88d4fde11610088578063d3b8614111610063578063d3b8614114610343578063e985e9c514610356578063e9e43f1f14610391575f80fd5b8063b88d4fde146102eb578063c87b56dd146102fe578063cef6d36814610311575f80fd5b80638c7ea24b116100b85780638c7ea24b146102bd57806395d89b41146102d0578063a22cb465146102d8575f80fd5b80636352211e146102845780636a6278421461029757806370a08231146102aa575f80fd5b806322f4596f1161013d57806342842e0e1161011857806342842e0e1461024b5780634c2612471461025e57806351cff8d914610271575f80fd5b806322f4596f1461021857806323b872dd1461022f5780632482251414610242575f80fd5b806306fdde031161016d57806306fdde03146101c5578063081812fc146101da578063095ea7b314610205575f80fd5b806301ffc9a71461018857806302fe5305146101b0575b5f80fd5b61019b610196366004611845565b6103b3565b60405190151581526020015b60405180910390f35b6101c36101be366004611867565b610406565b005b6101cd610486565b6040516101a79190611920565b6101ed6101e8366004611932565b610515565b6040516001600160a01b0390911681526020016101a7565b6101c361021336600461195d565b61053a565b61022160095481565b6040519081526020016101a7565b6101c361023d366004611987565b610682565b61022160085481565b6101c3610259366004611987565b6106f9565b6101c361026c366004611a4c565b610713565b6101c361027f366004611a91565b610799565b6101ed610292366004611932565b610838565b6101c36102a5366004611a91565b61089c565b6102216102b8366004611a91565b61097c565b6101c36102cb36600461195d565b610a14565b6101cd610ab0565b6101c36102e6366004611aac565b610abf565b6101c36102f9366004611ae7565b610aca565b6101cd61030c366004611932565b610b48565b61032461031f366004611932565b610d96565b604080516001600160a01b0390931683526020830191909152016101a7565b6101c3610351366004611a91565b610de8565b61019b610364366004611b62565b6001600160a01b039182165f90815260056020908152604080832093909416825291909152205460ff1690565b61019b61039f366004611a91565b600e6020525f908152604090205460ff1681565b5f6103bd82610e79565b806103f157506001600160e01b031982167f2a55205a00000000000000000000000000000000000000000000000000000000145b80610400575061040082610e79565b92915050565b335f908152600e602052604090205460ff166104745760405162461bcd60e51b815260206004820152602260248201527f4f6e6c792061646d696e732063616e20706572666f6d2074686973206163746960448201526137b760f11b60648201526084015b60405180910390fd5b600b610481828483611c11565b505050565b60605f805461049490611b8e565b80601f01602080910402602001604051908101604052809291908181526020018280546104c090611b8e565b801561050b5780601f106104e25761010080835404028352916020019161050b565b820191905f5260205f20905b8154815290600101906020018083116104ee57829003601f168201915b5050505050905090565b5f61051f82610f13565b505f908152600460205260409020546001600160a01b031690565b5f61054482610838565b9050806001600160a01b0316836001600160a01b0316036105cd5760405162461bcd60e51b815260206004820152602160248201527f4552433732313a20617070726f76616c20746f2063757272656e74206f776e6560448201527f7200000000000000000000000000000000000000000000000000000000000000606482015260840161046b565b336001600160a01b038216148061060657506001600160a01b0381165f90815260056020908152604080832033845290915290205460ff165b6106785760405162461bcd60e51b815260206004820152603d60248201527f4552433732313a20617070726f76652063616c6c6572206973206e6f7420746f60448201527f6b656e206f776e6572206f7220617070726f76656420666f7220616c6c000000606482015260840161046b565b6104818383610f79565b61068c3382610ff3565b6106ee5760405162461bcd60e51b815260206004820152602d60248201527f4552433732313a2063616c6c6572206973206e6f7420746f6b656e206f776e6560448201526c1c881bdc88185c1c1c9bdd9959609a1b606482015260840161046b565b610481838383611070565b61048183838360405180602001604052805f815250610aca565b335f908152600e602052604090205460ff1661077c5760405162461bcd60e51b815260206004820152602260248201527f4f6e6c792061646d696e732063616e20706572666f6d2074686973206163746960448201526137b760f11b606482015260840161046b565b600b6107888282611ccb565b5050600d805460ff19166001179055565b335f908152600e602052604090205460ff166108025760405162461bcd60e51b815260206004820152602260248201527f4f6e6c792061646d696e732063616e20706572666f6d2074686973206163746960448201526137b760f11b606482015260840161046b565b6040516001600160a01b038216904780156108fc02915f818181858888f19350505050158015610834573d5f803e3d5ffd5b5050565b5f818152600260205260408120546001600160a01b0316806104005760405162461bcd60e51b815260206004820152601860248201527f4552433732313a20696e76616c696420746f6b656e2049440000000000000000604482015260640161046b565b335f908152600e602052604090205460ff166109055760405162461bcd60e51b815260206004820152602260248201527f4f6e6c792061646d696e732063616e20706572666f6d2074686973206163746960448201526137b760f11b606482015260840161046b565b60095460085411156109595760405162461bcd60e51b815260206004820152601260248201527f4d617820737570706c7920726561636865640000000000000000000000000000604482015260640161046b565b61096581600854611274565b60088054905f61097483611d9f565b919050555050565b5f6001600160a01b0382166109f95760405162461bcd60e51b815260206004820152602960248201527f4552433732313a2061646472657373207a65726f206973206e6f74206120766160448201527f6c6964206f776e65720000000000000000000000000000000000000000000000606482015260840161046b565b506001600160a01b03165f9081526003602052604090205490565b335f908152600e602052604090205460ff16610a7d5760405162461bcd60e51b815260206004820152602260248201527f4f6e6c792061646d696e732063616e20706572666f6d2074686973206163746960448201526137b760f11b606482015260840161046b565b6006805473ffffffffffffffffffffffffffffffffffffffff19166001600160a01b039390931692909217909155600755565b60606001805461049490611b8e565b610834338383611409565b610ad43383610ff3565b610b365760405162461bcd60e51b815260206004820152602d60248201527f4552433732313a2063616c6c6572206973206e6f7420746f6b656e206f776e6560448201526c1c881bdc88185c1c1c9bdd9959609a1b606482015260840161046b565b610b42848484846114d6565b50505050565b5f818152600260205260409020546060906001600160a01b0316610bd45760405162461bcd60e51b815260206004820152602f60248201527f4552433732314d657461646174613a2055524920717565727920666f72206e6f60448201527f6e6578697374656e7420746f6b656e0000000000000000000000000000000000606482015260840161046b565b6060806060610be28561155f565b604051602001610bf29190611db7565b60408051601f1981840301815260a083019091526063808352909450611fdc6020830139600d5490925060ff16610c4b57600c604051602001610c359190611e6a565b6040516020818303038152906040529050610c79565b600b610c568661155f565b604051602001610c67929190611e75565b60405160208183030381529060405290505b5f600a5f81548110610c8d57610c8d611ec1565b905f5260205f200184604051602001610ca7929190611ed5565b604051602081830303815290604052600a600181548110610cca57610cca611ec1565b905f5260205f200184604051602001610ce4929190611ed5565b604051602081830303815290604052600a600281548110610d0757610d07611ec1565b905f5260205f200184604051602001610d21929190611ed5565b604051602081830303815290604052600a600481548110610d4457610d44611ec1565b905f5260205f2001604051602001610d5c9190611e6a565b60408051601f1981840301815290829052610d7c94939291602001611ef9565b60408051601f198184030181529190529695505050505050565b6006545f9081906001600160a01b031615610dde576006546007546001600160a01b039091169061271090610dcb9086611f4f565b610dd59190611f66565b91509150915091565b505f928392509050565b335f908152600e602052604090205460ff16610e515760405162461bcd60e51b815260206004820152602260248201527f4f6e6c792061646d696e732063616e20706572666f6d2074686973206163746960448201526137b760f11b606482015260840161046b565b6001600160a01b03165f908152600e60205260409020805460ff19811660ff90911615179055565b5f6001600160e01b031982167f80ac58cd000000000000000000000000000000000000000000000000000000001480610edb57506001600160e01b031982167f5b5e139f00000000000000000000000000000000000000000000000000000000145b8061040057507f01ffc9a7000000000000000000000000000000000000000000000000000000006001600160e01b0319831614610400565b5f818152600260205260409020546001600160a01b0316610f765760405162461bcd60e51b815260206004820152601860248201527f4552433732313a20696e76616c696420746f6b656e2049440000000000000000604482015260640161046b565b50565b5f818152600460205260409020805473ffffffffffffffffffffffffffffffffffffffff19166001600160a01b0384169081179091558190610fba82610838565b6001600160a01b03167f8c5be1e5ebec7d5bd14f71427d1e84f3dd0314c0f7b2291e5b200ac8c7c3b92560405160405180910390a45050565b5f80610ffe83610838565b9050806001600160a01b0316846001600160a01b0316148061104457506001600160a01b038082165f9081526005602090815260408083209388168352929052205460ff165b806110685750836001600160a01b031661105d84610515565b6001600160a01b0316145b949350505050565b826001600160a01b031661108382610838565b6001600160a01b0316146110e75760405162461bcd60e51b815260206004820152602560248201527f4552433732313a207472616e736665722066726f6d20696e636f72726563742060448201526437bbb732b960d91b606482015260840161046b565b6001600160a01b0382166111625760405162461bcd60e51b8152602060048201526024808201527f4552433732313a207472616e7366657220746f20746865207a65726f2061646460448201527f7265737300000000000000000000000000000000000000000000000000000000606482015260840161046b565b826001600160a01b031661117582610838565b6001600160a01b0316146111d95760405162461bcd60e51b815260206004820152602560248201527f4552433732313a207472616e736665722066726f6d20696e636f72726563742060448201526437bbb732b960d91b606482015260840161046b565b5f818152600460209081526040808320805473ffffffffffffffffffffffffffffffffffffffff199081169091556001600160a01b038781168086526003855283862080545f1901905590871680865283862080546001019055868652600290945282852080549092168417909155905184937fddf252ad1be2c89b69c2b068fc378daa952ba7f163c4a11628f55a4df523b3ef91a4505050565b6001600160a01b0382166112ca5760405162461bcd60e51b815260206004820181905260248201527f4552433732313a206d696e7420746f20746865207a65726f2061646472657373604482015260640161046b565b5f818152600260205260409020546001600160a01b03161561132e5760405162461bcd60e51b815260206004820152601c60248201527f4552433732313a20746f6b656e20616c7265616479206d696e74656400000000604482015260640161046b565b5f818152600260205260409020546001600160a01b0316156113925760405162461bcd60e51b815260206004820152601c60248201527f4552433732313a20746f6b656e20616c7265616479206d696e74656400000000604482015260640161046b565b6001600160a01b0382165f818152600360209081526040808320805460010190558483526002909152808220805473ffffffffffffffffffffffffffffffffffffffff19168417905551839291907fddf252ad1be2c89b69c2b068fc378daa952ba7f163c4a11628f55a4df523b3ef908290a45050565b816001600160a01b0316836001600160a01b03160361146a5760405162461bcd60e51b815260206004820152601960248201527f4552433732313a20617070726f766520746f2063616c6c657200000000000000604482015260640161046b565b6001600160a01b038381165f81815260056020908152604080832094871680845294825291829020805460ff191686151590811790915591519182527f17307eab39ab6107e8899845ad3d59bd9653f200f220920489ca2b5937696c31910160405180910390a3505050565b6114e1848484611070565b6114ed848484846115fc565b610b425760405162461bcd60e51b815260206004820152603260248201527f4552433732313a207472616e7366657220746f206e6f6e20455243373231526560448201527f63656976657220696d706c656d656e7465720000000000000000000000000000606482015260840161046b565b60605f61156b8361174f565b60010190505f8167ffffffffffffffff81111561158a5761158a6119c5565b6040519080825280601f01601f1916602001820160405280156115b4576020820181803683370190505b5090508181016020015b5f19017f3031323334353637383961626364656600000000000000000000000000000000600a86061a8153600a85049450846115be57509392505050565b5f6001600160a01b0384163b1561174457604051630a85bd0160e11b81526001600160a01b0385169063150b7a029061163f903390899088908890600401611f85565b6020604051808303815f875af1925050508015611679575060408051601f3d908101601f1916820190925261167691810190611fc0565b60015b61172a573d8080156116a6576040519150601f19603f3d011682016040523d82523d5f602084013e6116ab565b606091505b5080515f036117225760405162461bcd60e51b815260206004820152603260248201527f4552433732313a207472616e7366657220746f206e6f6e20455243373231526560448201527f63656976657220696d706c656d656e7465720000000000000000000000000000606482015260840161046b565b805181602001fd5b6001600160e01b031916630a85bd0160e11b149050611068565b506001949350505050565b5f807a184f03e93ff9f4daa797ed6e38ed64bf6a1f0100000000000000008310611797577a184f03e93ff9f4daa797ed6e38ed64bf6a1f010000000000000000830492506040015b6d04ee2d6d415b85acef810000000083106117c3576d04ee2d6d415b85acef8100000000830492506020015b662386f26fc1000083106117e157662386f26fc10000830492506010015b6305f5e10083106117f9576305f5e100830492506008015b612710831061180d57612710830492506004015b6064831061181f576064830492506002015b600a83106104005760010192915050565b6001600160e01b031981168114610f76575f80fd5b5f60208284031215611855575f80fd5b813561186081611830565b9392505050565b5f8060208385031215611878575f80fd5b823567ffffffffffffffff8082111561188f575f80fd5b818501915085601f8301126118a2575f80fd5b8135818111156118b0575f80fd5b8660208285010111156118c1575f80fd5b60209290920196919550909350505050565b5f5b838110156118ed5781810151838201526020016118d5565b50505f910152565b5f815180845261190c8160208601602086016118d3565b601f01601f19169290920160200192915050565b602081525f61186060208301846118f5565b5f60208284031215611942575f80fd5b5035919050565b6001600160a01b0381168114610f76575f80fd5b5f806040838503121561196e575f80fd5b823561197981611949565b946020939093013593505050565b5f805f60608486031215611999575f80fd5b83356119a481611949565b925060208401356119b481611949565b929592945050506040919091013590565b634e487b7160e01b5f52604160045260245ffd5b5f67ffffffffffffffff808411156119f3576119f36119c5565b604051601f8501601f19908116603f01168101908282118183101715611a1b57611a1b6119c5565b81604052809350858152868686011115611a33575f80fd5b858560208301375f602087830101525050509392505050565b5f60208284031215611a5c575f80fd5b813567ffffffffffffffff811115611a72575f80fd5b8201601f81018413611a82575f80fd5b611068848235602084016119d9565b5f60208284031215611aa1575f80fd5b813561186081611949565b5f8060408385031215611abd575f80fd5b8235611ac881611949565b915060208301358015158114611adc575f80fd5b809150509250929050565b5f805f8060808587031215611afa575f80fd5b8435611b0581611949565b93506020850135611b1581611949565b925060408501359150606085013567ffffffffffffffff811115611b37575f80fd5b8501601f81018713611b47575f80fd5b611b56878235602084016119d9565b91505092959194509250565b5f8060408385031215611b73575f80fd5b8235611b7e81611949565b91506020830135611adc81611949565b600181811c90821680611ba257607f821691505b602082108103611bc057634e487b7160e01b5f52602260045260245ffd5b50919050565b601f82111561048157805f5260205f20601f840160051c81016020851015611beb5750805b601f840160051c820191505b81811015611c0a575f8155600101611bf7565b5050505050565b67ffffffffffffffff831115611c2957611c296119c5565b611c3d83611c378354611b8e565b83611bc6565b5f601f841160018114611c6e575f8515611c575750838201355b5f19600387901b1c1916600186901b178355611c0a565b5f83815260208120601f198716915b82811015611c9d5786850135825560209485019460019092019101611c7d565b5086821015611cb9575f1960f88860031b161c19848701351681555b505060018560011b0183555050505050565b815167ffffffffffffffff811115611ce557611ce56119c5565b611cf981611cf38454611b8e565b84611bc6565b602080601f831160018114611d2c575f8415611d155750858301515b5f19600386901b1c1916600185901b178555611d83565b5f85815260208120601f198616915b82811015611d5a57888601518255948401946001909101908401611d3b565b5085821015611d7757878501515f19600388901b60f8161c191681555b505060018460011b0185555b505050505050565b634e487b7160e01b5f52601160045260245ffd5b5f60018201611db057611db0611d8b565b5060010190565b7f57757a7a6c65202300000000000000000000000000000000000000000000000081525f8251611dee8160088501602087016118d3565b9190910160080192915050565b5f8154611e0781611b8e565b60018281168015611e1f5760018114611e3457611e60565b60ff1984168752821515830287019450611e60565b855f526020805f205f5b85811015611e575781548a820152908401908201611e3e565b50505082870194505b5050505092915050565b5f6118608284611dfb565b5f611e808285611dfb565b8351611e908183602088016118d3565b7f2e737667000000000000000000000000000000000000000000000000000000009101908152600401949350505050565b634e487b7160e01b5f52603260045260245ffd5b5f611ee08285611dfb565b8351611ef08183602088016118d3565b01949350505050565b5f8551611f0a818460208a016118d3565b855190830190611f1e818360208a016118d3565b8551910190611f318183602089016118d3565b8451910190611f448183602088016118d3565b019695505050505050565b808202811582820484141761040057610400611d8b565b5f82611f8057634e487b7160e01b5f52601260045260245ffd5b500490565b5f6001600160a01b03808716835280861660208401525083604083015260806060830152611fb660808301846118f5565b9695505050505050565b5f60208284031215611fd0575f80fd5b81516118608161183056fe61206272616e6420666f722065766572796f6e652e206e6f206c696d6974732e206e6f207265737472696374696f6e732e20617661696c61626c6520696e20616c6c207368617065732c2073697a65732c20616e6420636f6c6f72732e202863633029a2646970667358221220ae5ed7e1d039b42591a4ce35114edf594328ce9af58c05f486df35e8daeb140664736f6c63430008180033646174613a6170706c69636174696f6e2f6a736f6e3b757466382c7b226e616d65223a22",
  "linkReferences": {},
  "deployedLinkReferences": {}
}