{
  "_format": "hh-sol-artifact-1",
  "contractName": "KillingTimeMint",
  "sourceName": "contracts/KillingTimeMint.sol",
  "abi": [
    {
      "inputs": [
        {
          "internalType": "address",
          "name": "killingTimeAddress",
          "type": "address"
        }
      ],
      "stateMutability": "nonpayable",
      "type": "constructor"
    },
    {
      "inputs": [],
      "name": "_insuranceCounter",
      "outputs": [
        {
          "internalType": "uint256",
          "name": "",
          "type": "uint256"
        }
      ],
      "stateMutability": "view",
      "type": "function"
    },
    {
      "inputs": [],
      "name": "_insurancePrice",
      "outputs": [
        {
          "internalType": "uint256",
          "name": "",
          "type": "uint256"
        }
      ],
      "stateMutability": "view",
      "type": "function"
    },
    {
      "inputs": [
        {
          "internalType": "address",
          "name": "",
          "type": "address"
        }
      ],
      "name": "_isAdmin",
      "outputs": [
        {
          "internalType": "bool",
          "name": "",
          "type": "bool"
        }
      ],
      "stateMutability": "view",
      "type": "function"
    },
    {
      "inputs": [],
      "name": "_killingTimeAddress",
      "outputs": [
        {
          "internalType": "address",
          "name": "",
          "type": "address"
        }
      ],
      "stateMutability": "view",
      "type": "function"
    },
    {
      "inputs": [],
      "name": "_maxInsurance",
      "outputs": [
        {
          "internalType": "uint256",
          "name": "",
          "type": "uint256"
        }
      ],
      "stateMutability": "view",
      "type": "function"
    },
    {
      "inputs": [],
      "name": "_mintOpened",
      "outputs": [
        {
          "internalType": "bool",
          "name": "",
          "type": "bool"
        }
      ],
      "stateMutability": "view",
      "type": "function"
    },
    {
      "inputs": [],
      "name": "_price",
      "outputs": [
        {
          "internalType": "uint256",
          "name": "",
          "type": "uint256"
        }
      ],
      "stateMutability": "view",
      "type": "function"
    },
    {
      "inputs": [
        {
          "internalType": "bool",
          "name": "isInsured",
          "type": "bool"
        }
      ],
      "name": "mint",
      "outputs": [],
      "stateMutability": "payable",
      "type": "function"
    },
    {
      "inputs": [
        {
          "internalType": "address",
          "name": "killingTimeAddress",
          "type": "address"
        }
      ],
      "name": "setKillingTimeAddress",
      "outputs": [],
      "stateMutability": "nonpayable",
      "type": "function"
    },
    {
      "inputs": [
        {
          "internalType": "address",
          "name": "recipient",
          "type": "address"
        }
      ],
      "name": "setRecipient",
      "outputs": [],
      "stateMutability": "nonpayable",
      "type": "function"
    },
    {
      "inputs": [
        {
          "internalType": "address",
          "name": "newAdmin",
          "type": "address"
        }
      ],
      "name": "toggleAdmin",
      "outputs": [],
      "stateMutability": "nonpayable",
      "type": "function"
    },
    {
      "inputs": [],
      "name": "toggleMintOpened",
      "outputs": [],
      "stateMutability": "nonpayable",
      "type": "function"
    }
  ],
  "bytecode": "0x60806040526678cad1e25d0000600055667c585087238000600155601460025534801561002b57600080fd5b5060405161077e38038061077e83398101604081905261004a9161008e565b60006003819055600480546001600160a01b0319166001600160a01b039390931692909217909155338152600660205260409020805460ff191660011790556100be565b6000602082840312156100a057600080fd5b81516001600160a01b03811681146100b757600080fd5b9392505050565b6106b1806100cd6000396000f3fe6080604052600436106100c75760003560e01c8063d34246b011610074578063e8e5cc1a1161004e578063e8e5cc1a146101dc578063e9e43f1f14610214578063f3af755f1461024457600080fd5b8063d34246b014610187578063d3b86141146101a7578063dccee69b146101c757600080fd5b80633bbed4a0116100a55780633bbed4a01461013b578063a413147e1461015b578063aa7792081461017157600080fd5b806318c41a80146100cc57806319981dd1146100e1578063235b6ea114610117575b600080fd5b6100df6100da3660046105c8565b61025a565b005b3480156100ed57600080fd5b5060055461010290600160a01b900460ff1681565b60405190151581526020015b60405180910390f35b34801561012357600080fd5b5061012d60005481565b60405190815260200161010e565b34801561014757600080fd5b506100df6101563660046105f1565b610495565b34801561016757600080fd5b5061012d60025481565b34801561017d57600080fd5b5061012d60035481565b34801561019357600080fd5b506100df6101a23660046105f1565b6104e0565b3480156101b357600080fd5b506100df6101c23660046105f1565b61052b565b3480156101d357600080fd5b506100df610570565b3480156101e857600080fd5b506004546101fc906001600160a01b031681565b6040516001600160a01b03909116815260200161010e565b34801561022057600080fd5b5061010261022f3660046105f1565b60066020526000908152604090205460ff1681565b34801561025057600080fd5b5061012d60015481565b600554600160a01b900460ff166102b85760405162461bcd60e51b815260206004820152600b60248201527f4d696e7420636c6f73656400000000000000000000000000000000000000000060448201526064015b60405180910390fd5b600254600354111561030c5760405162461bcd60e51b815260206004820152601e60248201527f496e737572616e636573206e6f206c6f6e67657220617661696c61626c65000060448201526064016102af565b60008161031b5760005461032b565b60015460005461032b9190610649565b90508034101561037d5760405162461bcd60e51b815260206004820152601060248201527f4e6f7420656e6f7567682066756e64730000000000000000000000000000000060448201526064016102af565b6005546040516000916001600160a01b03169083156108fc0290849084818181858888f193505050509050806103f55760405162461bcd60e51b815260206004820152601860248201527f46756e647320636f756c64206e6f74207472616e73666572000000000000000060448201526064016102af565b600480546040517f2097d3fb000000000000000000000000000000000000000000000000000000008152339281019290925284151560248301526001600160a01b031690632097d3fb90604401600060405180830381600087803b15801561045c57600080fd5b505af1158015610470573d6000803e3d6000fd5b505050508215610490576003805490600061048a83610662565b91905055505b505050565b3360009081526006602052604090205460ff166104b157600080fd5b6005805473ffffffffffffffffffffffffffffffffffffffff19166001600160a01b0392909216919091179055565b3360009081526006602052604090205460ff166104fc57600080fd5b6004805473ffffffffffffffffffffffffffffffffffffffff19166001600160a01b0392909216919091179055565b3360009081526006602052604090205460ff1661054757600080fd5b6001600160a01b03166000908152600660205260409020805460ff19811660ff90911615179055565b3360009081526006602052604090205460ff1661058c57600080fd5b600580547fffffffffffffffffffffff00ffffffffffffffffffffffffffffffffffffffff8116600160a01b9182900460ff1615909102179055565b6000602082840312156105da57600080fd5b813580151581146105ea57600080fd5b9392505050565b60006020828403121561060357600080fd5b81356001600160a01b03811681146105ea57600080fd5b7f4e487b7100000000000000000000000000000000000000000000000000000000600052601160045260246000fd5b8082018082111561065c5761065c61061a565b92915050565b6000600182016106745761067461061a565b506001019056fea2646970667358221220c048c61ed267bf175e0eeda11b9489457c279aad56368f54edb0cd9dedead98464736f6c63430008110033",
  "linkReferences": {},
  "deployedLinkReferences": {}
}