{
  "_format": "hh-sol-artifact-1",
  "contractName": "WuzzlesMint",
  "sourceName": "contracts/WuzzlesMint.sol",
  "abi": [
    {
      "inputs": [
        {
          "internalType": "address",
          "name": "wuzzlesAddress",
          "type": "address"
        }
      ],
      "stateMutability": "nonpayable",
      "type": "constructor"
    },
    {
      "inputs": [
        {
          "internalType": "address",
          "name": "",
          "type": "address"
        }
      ],
      "name": "_isAdmin",
      "outputs": [
        {
          "internalType": "bool",
          "name": "",
          "type": "bool"
        }
      ],
      "stateMutability": "view",
      "type": "function"
    },
    {
      "inputs": [
        {
          "internalType": "address",
          "name": "",
          "type": "address"
        }
      ],
      "name": "_minted",
      "outputs": [
        {
          "internalType": "bool",
          "name": "",
          "type": "bool"
        }
      ],
      "stateMutability": "view",
      "type": "function"
    },
    {
      "inputs": [],
      "name": "_price",
      "outputs": [
        {
          "internalType": "uint256",
          "name": "",
          "type": "uint256"
        }
      ],
      "stateMutability": "view",
      "type": "function"
    },
    {
      "inputs": [],
      "name": "_privateMintOpened",
      "outputs": [
        {
          "internalType": "bool",
          "name": "",
          "type": "bool"
        }
      ],
      "stateMutability": "view",
      "type": "function"
    },
    {
      "inputs": [],
      "name": "_publicMintOpened",
      "outputs": [
        {
          "internalType": "bool",
          "name": "",
          "type": "bool"
        }
      ],
      "stateMutability": "view",
      "type": "function"
    },
    {
      "inputs": [],
      "name": "_wuzzlesAddress",
      "outputs": [
        {
          "internalType": "address",
          "name": "",
          "type": "address"
        }
      ],
      "stateMutability": "view",
      "type": "function"
    },
    {
      "inputs": [
        {
          "internalType": "uint8",
          "name": "v",
          "type": "uint8"
        },
        {
          "internalType": "bytes32",
          "name": "r",
          "type": "bytes32"
        },
        {
          "internalType": "bytes32",
          "name": "s",
          "type": "bytes32"
        }
      ],
      "name": "privateMint",
      "outputs": [],
      "stateMutability": "payable",
      "type": "function"
    },
    {
      "inputs": [],
      "name": "publicMint",
      "outputs": [],
      "stateMutability": "payable",
      "type": "function"
    },
    {
      "inputs": [
        {
          "internalType": "address",
          "name": "recipient",
          "type": "address"
        }
      ],
      "name": "setRecipient",
      "outputs": [],
      "stateMutability": "nonpayable",
      "type": "function"
    },
    {
      "inputs": [
        {
          "internalType": "address",
          "name": "signer",
          "type": "address"
        }
      ],
      "name": "setSigner",
      "outputs": [],
      "stateMutability": "nonpayable",
      "type": "function"
    },
    {
      "inputs": [
        {
          "internalType": "address",
          "name": "wuzzlesAddress",
          "type": "address"
        }
      ],
      "name": "setWuzzlesAddress",
      "outputs": [],
      "stateMutability": "nonpayable",
      "type": "function"
    },
    {
      "inputs": [
        {
          "internalType": "address",
          "name": "newAdmin",
          "type": "address"
        }
      ],
      "name": "toggleAdmin",
      "outputs": [],
      "stateMutability": "nonpayable",
      "type": "function"
    },
    {
      "inputs": [],
      "name": "togglePrivateMintStatus",
      "outputs": [],
      "stateMutability": "nonpayable",
      "type": "function"
    },
    {
      "inputs": [],
      "name": "togglePublicMintStatus",
      "outputs": [],
      "stateMutability": "nonpayable",
      "type": "function"
    }
  ],
  "bytecode": "0x6080604052661ff973cafa80005f55348015610019575f80fd5b506040516109be3803806109be8339810160408190526100389161008e565b60038054336001600160a01b0319918216811790925560028054821683179055600180549091166001600160a01b03939093169290921782555f908152600460205260409020805460ff191690911790556100bb565b5f6020828403121561009e575f80fd5b81516001600160a01b03811681146100b4575f80fd5b9392505050565b6108f6806100c85f395ff3fe6080604052600436106100d9575f3560e01c806397f5ec671161007c578063d3b8614111610057578063d3b8614114610234578063e5da932a14610253578063e9e43f1f14610267578063ec6d836514610295575f80fd5b806397f5ec67146101e1578063acb4f941146101f5578063bff669f214610215575f80fd5b806326092b83116100b757806326092b831461016b5780633bbed4a0146101755780636c19e783146101945780637de77ecc146101b3575f80fd5b806312de47c0146100dd5780631884d0a914610119578063235b6ea114610149575b5f80fd5b3480156100e8575f80fd5b506001546100fc906001600160a01b031681565b6040516001600160a01b0390911681526020015b60405180910390f35b348015610124575f80fd5b5060035461013990600160a01b900460ff1681565b6040519015158152602001610110565b348015610154575f80fd5b5061015d5f5481565b604051908152602001610110565b6101736102a8565b005b348015610180575f80fd5b5061017361018f36600461085c565b610310565b34801561019f575f80fd5b506101736101ae36600461085c565b610359565b3480156101be575f80fd5b506101396101cd36600461085c565b60056020525f908152604090205460ff1681565b3480156101ec575f80fd5b506101736103a2565b348015610200575f80fd5b5060035461013990600160a81b900460ff1681565b348015610220575f80fd5b5061017361022f36600461085c565b6103f8565b34801561023f575f80fd5b5061017361024e36600461085c565b610441565b34801561025e575f80fd5b50610173610483565b348015610272575f80fd5b5061013961028136600461085c565b60046020525f908152604090205460ff1681565b6101736102a3366004610889565b6104d9565b600354600160a81b900460ff166103065760405162461bcd60e51b815260206004820152601260248201527f5075626c6963204d696e7420636c6f736564000000000000000000000000000060448201526064015b60405180910390fd5b61030e6106a7565b565b335f9081526004602052604090205460ff1661032a575f80fd5b6003805473ffffffffffffffffffffffffffffffffffffffff19166001600160a01b0392909216919091179055565b335f9081526004602052604090205460ff16610373575f80fd5b6002805473ffffffffffffffffffffffffffffffffffffffff19166001600160a01b0392909216919091179055565b335f9081526004602052604090205460ff166103bc575f80fd5b600380547fffffffffffffffffffff00ffffffffffffffffffffffffffffffffffffffffff8116600160a81b9182900460ff1615909102179055565b335f9081526004602052604090205460ff16610412575f80fd5b6001805473ffffffffffffffffffffffffffffffffffffffff19166001600160a01b0392909216919091179055565b335f9081526004602052604090205460ff1661045b575f80fd5b6001600160a01b03165f908152600460205260409020805460ff19811660ff90911615179055565b335f9081526004602052604090205460ff1661049d575f80fd5b600380547fffffffffffffffffffffff00ffffffffffffffffffffffffffffffffffffffff8116600160a01b9182900460ff1615909102179055565b60018054335f818152600560209081526040918290205491516bffffffffffffffffffffffff19606094851b8116928201929092529390921b909116603483015260ff16151560f81b60488201528491849184919060490160408051601f198184030181529082905280516020918201207f19457468657265756d205369676e6564204d6573736167653a0a33320000000091830191909152603c820152605c0160408051601f1981840301815282825280516020918201205f84529083018083525260ff861690820152606081018490526080810183905260a0016020604051602081039080840390855afa1580156105d5573d5f803e3d5ffd5b5050604051601f1901516002546001600160a01b03908116911614905061063e5760405162461bcd60e51b815260206004820152601160248201527f496e76616c6964207369676e617475726500000000000000000000000000000060448201526064016102fd565b600354600160a01b900460ff166106975760405162461bcd60e51b815260206004820152601360248201527f50726976617465204d696e7420636c6f7365640000000000000000000000000060448201526064016102fd565b61069f6106a7565b505050505050565b5f543410156106f85760405162461bcd60e51b815260206004820152601060248201527f4e6f7420656e6f7567682066756e64730000000000000000000000000000000060448201526064016102fd565b335f9081526005602052604090205460ff16156107575760405162461bcd60e51b815260206004820152601760248201527f4f6e6c79206f6e65204e4654207065722077616c6c657400000000000000000060448201526064016102fd565b335f90815260056020526040808220805460ff19166001179055600354825491516001600160a01b03919091169180156108fc029184818181858888f193505050509050806107e85760405162461bcd60e51b815260206004820152601860248201527f46756e647320636f756c64206e6f74207472616e73666572000000000000000060448201526064016102fd565b6001546040517f6a6278420000000000000000000000000000000000000000000000000000000081523360048201526001600160a01b0390911690636a627842906024015f604051808303815f87803b158015610843575f80fd5b505af1158015610855573d5f803e3d5ffd5b5050505050565b5f6020828403121561086c575f80fd5b81356001600160a01b0381168114610882575f80fd5b9392505050565b5f805f6060848603121561089b575f80fd5b833560ff811681146108ab575f80fd5b9560208501359550604090940135939250505056fea2646970667358221220f0f50019550ef5804d26ca159067cd14ad419194b2e3b5e0ab3ad78de8aac7f964736f6c63430008180033",
  "linkReferences": {},
  "deployedLinkReferences": {}
}