{
  "_format": "hh-sol-artifact-1",
  "contractName": "Void2122Unit",
  "sourceName": "contracts/Unit.sol",
  "abi": [
    {
      "inputs": [
        {
          "internalType": "uint256",
          "name": "",
          "type": "uint256"
        }
      ],
      "name": "ModBalanceInsufficient",
      "type": "error"
    },
    {
      "inputs": [
        {
          "internalType": "uint256",
          "name": "",
          "type": "uint256"
        }
      ],
      "name": "ModPositionInvalid",
      "type": "error"
    },
    {
      "inputs": [],
      "name": "NoModSpaceAvailable",
      "type": "error"
    },
    {
      "inputs": [],
      "name": "Unauthorized",
      "type": "error"
    },
    {
      "anonymous": false,
      "inputs": [
        {
          "indexed": true,
          "internalType": "address",
          "name": "owner",
          "type": "address"
        },
        {
          "indexed": true,
          "internalType": "address",
          "name": "approved",
          "type": "address"
        },
        {
          "indexed": true,
          "internalType": "uint256",
          "name": "tokenId",
          "type": "uint256"
        }
      ],
      "name": "Approval",
      "type": "event"
    },
    {
      "anonymous": false,
      "inputs": [
        {
          "indexed": true,
          "internalType": "address",
          "name": "owner",
          "type": "address"
        },
        {
          "indexed": true,
          "internalType": "address",
          "name": "operator",
          "type": "address"
        },
        {
          "indexed": false,
          "internalType": "bool",
          "name": "approved",
          "type": "bool"
        }
      ],
      "name": "ApprovalForAll",
      "type": "event"
    },
    {
      "anonymous": false,
      "inputs": [
        {
          "indexed": false,
          "internalType": "uint8",
          "name": "version",
          "type": "uint8"
        }
      ],
      "name": "Initialized",
      "type": "event"
    },
    {
      "anonymous": false,
      "inputs": [
        {
          "indexed": false,
          "internalType": "uint256",
          "name": "",
          "type": "uint256"
        },
        {
          "indexed": false,
          "internalType": "uint256",
          "name": "",
          "type": "uint256"
        }
      ],
      "name": "ModAdded",
      "type": "event"
    },
    {
      "anonymous": false,
      "inputs": [
        {
          "indexed": true,
          "internalType": "address",
          "name": "from",
          "type": "address"
        },
        {
          "indexed": true,
          "internalType": "address",
          "name": "to",
          "type": "address"
        },
        {
          "indexed": true,
          "internalType": "uint256",
          "name": "tokenId",
          "type": "uint256"
        }
      ],
      "name": "Transfer",
      "type": "event"
    },
    {
      "anonymous": false,
      "inputs": [
        {
          "components": [
            {
              "internalType": "uint256",
              "name": "id",
              "type": "uint256"
            },
            {
              "internalType": "string",
              "name": "name",
              "type": "string"
            },
            {
              "internalType": "uint256",
              "name": "level",
              "type": "uint256"
            },
            {
              "internalType": "uint256",
              "name": "generation",
              "type": "uint256"
            },
            {
              "internalType": "string",
              "name": "corporation",
              "type": "string"
            },
            {
              "internalType": "string",
              "name": "model",
              "type": "string"
            },
            {
              "internalType": "string",
              "name": "description",
              "type": "string"
            },
            {
              "internalType": "string",
              "name": "image",
              "type": "string"
            },
            {
              "internalType": "string",
              "name": "animation",
              "type": "string"
            },
            {
              "internalType": "string[]",
              "name": "uris",
              "type": "string[]"
            },
            {
              "internalType": "uint256[]",
              "name": "values",
              "type": "uint256[]"
            },
            {
              "internalType": "string",
              "name": "rarity",
              "type": "string"
            },
            {
              "internalType": "uint256",
              "name": "modSlots",
              "type": "uint256"
            }
          ],
          "indexed": false,
          "internalType": "struct IUnit.UnitTemplate",
          "name": "",
          "type": "tuple"
        }
      ],
      "name": "UnitTemplateCreated",
      "type": "event"
    },
    {
      "inputs": [
        {
          "internalType": "uint256",
          "name": "_tokenId",
          "type": "uint256"
        },
        {
          "internalType": "uint256",
          "name": "_modId",
          "type": "uint256"
        }
      ],
      "name": "addMod",
      "outputs": [],
      "stateMutability": "nonpayable",
      "type": "function"
    },
    {
      "inputs": [
        {
          "internalType": "address",
          "name": "to",
          "type": "address"
        },
        {
          "internalType": "uint256",
          "name": "tokenId",
          "type": "uint256"
        }
      ],
      "name": "approve",
      "outputs": [],
      "stateMutability": "nonpayable",
      "type": "function"
    },
    {
      "inputs": [
        {
          "internalType": "address",
          "name": "owner",
          "type": "address"
        }
      ],
      "name": "balanceOf",
      "outputs": [
        {
          "internalType": "uint256",
          "name": "",
          "type": "uint256"
        }
      ],
      "stateMutability": "view",
      "type": "function"
    },
    {
      "inputs": [
        {
          "internalType": "uint256",
          "name": "_tokenId",
          "type": "uint256"
        }
      ],
      "name": "burn",
      "outputs": [],
      "stateMutability": "nonpayable",
      "type": "function"
    },
    {
      "inputs": [],
      "name": "contractName",
      "outputs": [
        {
          "internalType": "string",
          "name": "",
          "type": "string"
        }
      ],
      "stateMutability": "view",
      "type": "function"
    },
    {
      "inputs": [],
      "name": "corporationAddress",
      "outputs": [
        {
          "internalType": "address",
          "name": "",
          "type": "address"
        }
      ],
      "stateMutability": "view",
      "type": "function"
    },
    {
      "inputs": [
        {
          "components": [
            {
              "internalType": "uint256",
              "name": "id",
              "type": "uint256"
            },
            {
              "internalType": "string",
              "name": "name",
              "type": "string"
            },
            {
              "internalType": "uint256",
              "name": "level",
              "type": "uint256"
            },
            {
              "internalType": "uint256",
              "name": "generation",
              "type": "uint256"
            },
            {
              "internalType": "string",
              "name": "corporation",
              "type": "string"
            },
            {
              "internalType": "string",
              "name": "model",
              "type": "string"
            },
            {
              "internalType": "string",
              "name": "description",
              "type": "string"
            },
            {
              "internalType": "string",
              "name": "image",
              "type": "string"
            },
            {
              "internalType": "string",
              "name": "animation",
              "type": "string"
            },
            {
              "internalType": "string[]",
              "name": "uris",
              "type": "string[]"
            },
            {
              "internalType": "uint256[]",
              "name": "values",
              "type": "uint256[]"
            },
            {
              "internalType": "string",
              "name": "rarity",
              "type": "string"
            },
            {
              "internalType": "uint256",
              "name": "modSlots",
              "type": "uint256"
            }
          ],
          "internalType": "struct IUnit.UnitTemplate",
          "name": "_unitTemplate",
          "type": "tuple"
        }
      ],
      "name": "createUnitTemplate",
      "outputs": [],
      "stateMutability": "nonpayable",
      "type": "function"
    },
    {
      "inputs": [
        {
          "internalType": "uint256",
          "name": "_tokenId",
          "type": "uint256"
        },
        {
          "internalType": "uint256",
          "name": "_positionOfModToDestroy",
          "type": "uint256"
        }
      ],
      "name": "destroyMod",
      "outputs": [],
      "stateMutability": "nonpayable",
      "type": "function"
    },
    {
      "inputs": [
        {
          "internalType": "uint256",
          "name": "tokenId",
          "type": "uint256"
        }
      ],
      "name": "getApproved",
      "outputs": [
        {
          "internalType": "address",
          "name": "",
          "type": "address"
        }
      ],
      "stateMutability": "view",
      "type": "function"
    },
    {
      "inputs": [
        {
          "internalType": "uint256",
          "name": "_tokenId",
          "type": "uint256"
        }
      ],
      "name": "getCorporation",
      "outputs": [
        {
          "internalType": "bytes",
          "name": "",
          "type": "bytes"
        }
      ],
      "stateMutability": "view",
      "type": "function"
    },
    {
      "inputs": [],
      "name": "initialize",
      "outputs": [],
      "stateMutability": "nonpayable",
      "type": "function"
    },
    {
      "inputs": [
        {
          "internalType": "address",
          "name": "owner",
          "type": "address"
        },
        {
          "internalType": "address",
          "name": "operator",
          "type": "address"
        }
      ],
      "name": "isApprovedForAll",
      "outputs": [
        {
          "internalType": "bool",
          "name": "",
          "type": "bool"
        }
      ],
      "stateMutability": "view",
      "type": "function"
    },
    {
      "inputs": [
        {
          "internalType": "address",
          "name": "_to",
          "type": "address"
        },
        {
          "internalType": "uint256",
          "name": "_unitTemplate",
          "type": "uint256"
        }
      ],
      "name": "mint",
      "outputs": [],
      "stateMutability": "nonpayable",
      "type": "function"
    },
    {
      "inputs": [],
      "name": "modAddress",
      "outputs": [
        {
          "internalType": "address",
          "name": "",
          "type": "address"
        }
      ],
      "stateMutability": "view",
      "type": "function"
    },
    {
      "inputs": [],
      "name": "name",
      "outputs": [
        {
          "internalType": "string",
          "name": "",
          "type": "string"
        }
      ],
      "stateMutability": "view",
      "type": "function"
    },
    {
      "inputs": [
        {
          "internalType": "uint256",
          "name": "tokenId",
          "type": "uint256"
        }
      ],
      "name": "ownerOf",
      "outputs": [
        {
          "internalType": "address",
          "name": "",
          "type": "address"
        }
      ],
      "stateMutability": "view",
      "type": "function"
    },
    {
      "inputs": [
        {
          "internalType": "uint256",
          "name": "_tokenId",
          "type": "uint256"
        },
        {
          "internalType": "uint256",
          "name": "_modId",
          "type": "uint256"
        },
        {
          "internalType": "uint256",
          "name": "_positionOfModToReplace",
          "type": "uint256"
        }
      ],
      "name": "replaceMod",
      "outputs": [],
      "stateMutability": "nonpayable",
      "type": "function"
    },
    {
      "inputs": [],
      "name": "royalties_recipient",
      "outputs": [
        {
          "internalType": "address",
          "name": "",
          "type": "address"
        }
      ],
      "stateMutability": "view",
      "type": "function"
    },
    {
      "inputs": [],
      "name": "royaltyAmount",
      "outputs": [
        {
          "internalType": "uint256",
          "name": "",
          "type": "uint256"
        }
      ],
      "stateMutability": "view",
      "type": "function"
    },
    {
      "inputs": [
        {
          "internalType": "uint256",
          "name": "salePrice",
          "type": "uint256"
        }
      ],
      "name": "royaltyInfo",
      "outputs": [
        {
          "internalType": "address",
          "name": "",
          "type": "address"
        },
        {
          "internalType": "uint256",
          "name": "",
          "type": "uint256"
        }
      ],
      "stateMutability": "view",
      "type": "function"
    },
    {
      "inputs": [
        {
          "internalType": "address",
          "name": "from",
          "type": "address"
        },
        {
          "internalType": "address",
          "name": "to",
          "type": "address"
        },
        {
          "internalType": "uint256",
          "name": "tokenId",
          "type": "uint256"
        }
      ],
      "name": "safeTransferFrom",
      "outputs": [],
      "stateMutability": "nonpayable",
      "type": "function"
    },
    {
      "inputs": [
        {
          "internalType": "address",
          "name": "from",
          "type": "address"
        },
        {
          "internalType": "address",
          "name": "to",
          "type": "address"
        },
        {
          "internalType": "uint256",
          "name": "tokenId",
          "type": "uint256"
        },
        {
          "internalType": "bytes",
          "name": "data",
          "type": "bytes"
        }
      ],
      "name": "safeTransferFrom",
      "outputs": [],
      "stateMutability": "nonpayable",
      "type": "function"
    },
    {
      "inputs": [
        {
          "internalType": "address",
          "name": "operator",
          "type": "address"
        },
        {
          "internalType": "bool",
          "name": "approved",
          "type": "bool"
        }
      ],
      "name": "setApprovalForAll",
      "outputs": [],
      "stateMutability": "nonpayable",
      "type": "function"
    },
    {
      "inputs": [
        {
          "internalType": "address",
          "name": "_corporationAddress",
          "type": "address"
        }
      ],
      "name": "setCorporationAddress",
      "outputs": [],
      "stateMutability": "nonpayable",
      "type": "function"
    },
    {
      "inputs": [
        {
          "internalType": "address",
          "name": "_modAddress",
          "type": "address"
        }
      ],
      "name": "setModAddress",
      "outputs": [],
      "stateMutability": "nonpayable",
      "type": "function"
    },
    {
      "inputs": [
        {
          "internalType": "address payable",
          "name": "_recipient",
          "type": "address"
        },
        {
          "internalType": "uint256",
          "name": "_royaltyPerCent",
          "type": "uint256"
        }
      ],
      "name": "setRoyalties",
      "outputs": [],
      "stateMutability": "nonpayable",
      "type": "function"
    },
    {
      "inputs": [
        {
          "internalType": "bytes4",
          "name": "interfaceId",
          "type": "bytes4"
        }
      ],
      "name": "supportsInterface",
      "outputs": [
        {
          "internalType": "bool",
          "name": "",
          "type": "bool"
        }
      ],
      "stateMutability": "view",
      "type": "function"
    },
    {
      "inputs": [
        {
          "internalType": "uint256",
          "name": "_tokenId",
          "type": "uint256"
        },
        {
          "internalType": "uint256",
          "name": "_visual",
          "type": "uint256"
        }
      ],
      "name": "switchVisual",
      "outputs": [],
      "stateMutability": "nonpayable",
      "type": "function"
    },
    {
      "inputs": [],
      "name": "symbol",
      "outputs": [
        {
          "internalType": "string",
          "name": "",
          "type": "string"
        }
      ],
      "stateMutability": "view",
      "type": "function"
    },
    {
      "inputs": [
        {
          "internalType": "address",
          "name": "_admin",
          "type": "address"
        }
      ],
      "name": "toggleAdmin",
      "outputs": [],
      "stateMutability": "nonpayable",
      "type": "function"
    },
    {
      "inputs": [],
      "name": "tokenId",
      "outputs": [
        {
          "internalType": "uint256",
          "name": "",
          "type": "uint256"
        }
      ],
      "stateMutability": "view",
      "type": "function"
    },
    {
      "inputs": [
        {
          "internalType": "uint256",
          "name": "_tokenId",
          "type": "uint256"
        }
      ],
      "name": "tokenURI",
      "outputs": [
        {
          "internalType": "string",
          "name": "",
          "type": "string"
        }
      ],
      "stateMutability": "view",
      "type": "function"
    },
    {
      "inputs": [
        {
          "internalType": "address",
          "name": "from",
          "type": "address"
        },
        {
          "internalType": "address",
          "name": "to",
          "type": "address"
        },
        {
          "internalType": "uint256",
          "name": "tokenId",
          "type": "uint256"
        }
      ],
      "name": "transferFrom",
      "outputs": [],
      "stateMutability": "nonpayable",
      "type": "function"
    },
    {
      "inputs": [],
      "name": "unitIds",
      "outputs": [
        {
          "internalType": "uint256",
          "name": "",
          "type": "uint256"
        }
      ],
      "stateMutability": "view",
      "type": "function"
    },
    {
      "inputs": [
        {
          "internalType": "address",
          "name": "recipient",
          "type": "address"
        }
      ],
      "name": "withdraw",
      "outputs": [],
      "stateMutability": "nonpayable",
      "type": "function"
    }
  ],
  "bytecode": "0x608060405234801561001057600080fd5b50614721806100206000396000f3fe608060405234801561001057600080fd5b50600436106102415760003560e01c80638129fc1c11610145578063cef6d368116100bd578063dc7fd3431161008c578063e985e9c511610071578063e985e9c514610509578063f147896314610545578063f810dea61461055857600080fd5b8063dc7fd343146104e3578063e8df2b95146104f657600080fd5b8063cef6d36814610478578063cf26b44d146104aa578063d1832f8a146104bd578063d3b86141146104d057600080fd5b8063aa30121b11610114578063b88d4fde116100f9578063b88d4fde1461042f578063b8e7e2a714610442578063c87b56dd1461046557600080fd5b8063aa30121b14610409578063afe5a1c91461041c57600080fd5b80638129fc1c146103d35780638c7ea24b146103db57806395d89b41146103ee578063a22cb465146103f657600080fd5b806342842e0e116101d85780636352211e116101a757806370a082311161018c57806370a082311461037b57806375d0c0dc1461038e5780637c6e551d146103ca57600080fd5b80636352211e1461035f578063703f037a1461037257600080fd5b806342842e0e1461031357806342966c681461032657806351cff8d91461033957806355056ba51461034c57600080fd5b806317d70f7c1161021457806317d70f7c146102c357806323b872dd146102da578063309a7793146102ed57806340c10f191461030057600080fd5b806301ffc9a71461024657806306fdde031461026e578063081812fc14610283578063095ea7b3146102ae575b600080fd5b610259610254366004613442565b61056b565b60405190151581526020015b60405180910390f35b6102766105bf565b60405161026591906134b6565b6102966102913660046134c9565b610651565b6040516001600160a01b039091168152602001610265565b6102c16102bc3660046134f7565b610678565b005b6102cc60985481565b604051908152602001610265565b6102c16102e8366004613523565b6107cc565b609b54610296906001600160a01b031681565b6102c161030e3660046134f7565b610843565b6102c1610321366004613523565b6108f3565b6102c16103343660046134c9565b61090e565b6102c1610347366004613564565b61091a565b6102c161035a366004613581565b610982565b61029661036d3660046134c9565b6109df565b6102cc60975481565b6102cc610389366004613564565b610a44565b6102766040518060400160405280601181526020017f566f69642032313232202d20556e69747300000000000000000000000000000081525081565b6102cc60995481565b6102c1610ade565b6102c16103e93660046134f7565b610ded565b610276610e42565b6102c16104043660046135a3565b610e51565b6102766104173660046134c9565b610e5c565b609a54610296906001600160a01b031681565b6102c161043d366004613650565b610f64565b6102c1610450366004613581565b6000918252609d602052604090912060010155565b6102766104733660046134c9565b610fe2565b61048b6104863660046134c9565b6118d6565b604080516001600160a01b039093168352602083019190915201610265565b609c54610296906001600160a01b031681565b6102c16104cb3660046136ff565b611929565b6102c16104de366004613564565b61198c565b6102c16104f136600461373b565b6119e4565b6102c1610504366004613581565b612004565b610259610517366004613767565b6001600160a01b039182166000908152606a6020908152604080832093909416825291909152205460ff1690565b6102c1610553366004613564565b61262d565b6102c1610566366004613564565b61267e565b6000610576826126cf565b806105aa57506001600160e01b031982167f2a55205a00000000000000000000000000000000000000000000000000000000145b806105b957506105b9826126cf565b92915050565b6060606580546105ce90613795565b80601f01602080910402602001604051908101604052809291908181526020018280546105fa90613795565b80156106475780601f1061061c57610100808354040283529160200191610647565b820191906000526020600020905b81548152906001019060200180831161062a57829003601f168201915b5050505050905090565b600061065c8261276a565b506000908152606960205260409020546001600160a01b031690565b6000610683826109df565b9050806001600160a01b0316836001600160a01b0316036107115760405162461bcd60e51b815260206004820152602160248201527f4552433732313a20617070726f76616c20746f2063757272656e74206f776e6560448201527f720000000000000000000000000000000000000000000000000000000000000060648201526084015b60405180910390fd5b336001600160a01b038216148061074b57506001600160a01b0381166000908152606a6020908152604080832033845290915290205460ff165b6107bd5760405162461bcd60e51b815260206004820152603d60248201527f4552433732313a20617070726f76652063616c6c6572206973206e6f7420746f60448201527f6b656e206f776e6572206f7220617070726f76656420666f7220616c6c0000006064820152608401610708565b6107c783836127ce565b505050565b6107d6338261283c565b6108385760405162461bcd60e51b815260206004820152602d60248201527f4552433732313a2063616c6c6572206973206e6f7420746f6b656e206f776e6560448201526c1c881bdc88185c1c1c9bdd9959609a1b6064820152608401610708565b6107c78383836128bb565b336000908152609f602052604090205460ff16610872576040516282b42960e81b815260040160405180910390fd5b6040805160608101825282815260006020808301828152845183815280830186528486019081526098548452609d835294909220835181559151600183015592518051929384936108c99260028501920190613323565b509050506108d983609854612ab4565b609880549060006108e9836137df565b9190505550505050565b6107c783838360405180602001604052806000815250610f64565b61091781612c3f565b50565b336000908152609f602052604090205460ff16610949576040516282b42960e81b815260040160405180910390fd5b6040516001600160a01b038216904780156108fc02916000818181858888f1935050505015801561097e573d6000803e3d6000fd5b5050565b6000828152609d60205260409020600281015482106109b75760405163e47b6db360e01b815260048101839052602401610708565b60008160020183815481106109ce576109ce6137f8565b600091825260209091200155505050565b6000818152606760205260408120546001600160a01b0316806105b95760405162461bcd60e51b815260206004820152601860248201527f4552433732313a20696e76616c696420746f6b656e20494400000000000000006044820152606401610708565b60006001600160a01b038216610ac25760405162461bcd60e51b815260206004820152602960248201527f4552433732313a2061646472657373207a65726f206973206e6f74206120766160448201527f6c6964206f776e657200000000000000000000000000000000000000000000006064820152608401610708565b506001600160a01b031660009081526068602052604090205490565b600054610100900460ff1615808015610afe5750600054600160ff909116105b80610b185750303b158015610b18575060005460ff166001145b610b8a5760405162461bcd60e51b815260206004820152602e60248201527f496e697469616c697a61626c653a20636f6e747261637420697320616c72656160448201527f647920696e697469616c697a65640000000000000000000000000000000000006064820152608401610708565b6000805460ff191660011790558015610bad576000805461ff0019166101001790555b610c216040518060400160405280601181526020017f566f69642032313232202d20556e6974730000000000000000000000000000008152506040518060400160405280600a81526020017f5632313232556e69747300000000000000000000000000000000000000000000815250612cd4565b600160978190556098819055600a609955609a80546001600160a01b031916339081179091556000908152609f602052604090819020805460ff191690921790915580516101208101909152602460c0820181815282916146c860e08401398152604080518082018252601281527f222c20226465736372697074696f6e223a2200000000000000000000000000006020828101919091528084019190915281518083018352600c81527f222c2022696d616765223a220000000000000000000000000000000000000000818301528284015281518083018352601081527f222c2022616e696d6174696f6e223a220000000000000000000000000000000081830152606084015281518083018352601181527f222c202261747472696275746573223a5b0000000000000000000000000000008183015260808401528151808301909252600282527f5d7d0000000000000000000000000000000000000000000000000000000000009082015260a090910152610da39060a190600661336e565b508015610917576000805461ff0019169055604051600181527f7f26b83ff96e1f2b6a682f133852f6798a09c465da95921460cefb3847402498906020015b60405180910390a150565b336000908152609f602052604090205460ff16610e1c576040516282b42960e81b815260040160405180910390fd5b609a80546001600160a01b0319166001600160a01b039390931692909217909155609955565b6060606680546105ce90613795565b61097e338383612d49565b609b546060906000906001600160a01b031663d3d25377610e7c856109df565b6040516001600160e01b031960e084901b1681526001600160a01b039091166004820152602401600060405180830381865afa158015610ec0573d6000803e3d6000fd5b505050506040513d6000823e601f3d908101601f19168201604052610ee8919081019061380e565b60408051600081526020810180835281519020929350610f0a918491016138a1565b6040516020818303038152906040528051906020012003610f4d5780604051602001610f3691906138a1565b604051602081830303815290604052915050919050565b80604051602001610f3691906138bd565b50919050565b610f6e338361283c565b610fd05760405162461bcd60e51b815260206004820152602d60248201527f4552433732313a2063616c6c6572206973206e6f7420746f6b656e206f776e6560448201526c1c881bdc88185c1c1c9bdd9959609a1b6064820152608401610708565b610fdc84848484612e17565b50505050565b6000818152609d60209081526040808320815160608181018452825482526001830154828601526002830180548551818802810188018752818152929796939586019383018282801561105457602002820191906000526020600020905b815481526020019060010190808311611040575b50505050508152505090506000609e600083600001518152602001908152602001600020604051806101a00160405290816000820154815260200160018201805461109e90613795565b80601f01602080910402602001604051908101604052809291908181526020018280546110ca90613795565b80156111175780601f106110ec57610100808354040283529160200191611117565b820191906000526020600020905b8154815290600101906020018083116110fa57829003601f168201915b50505050508152602001600282015481526020016003820154815260200160048201805461114490613795565b80601f016020809104026020016040519081016040528092919081815260200182805461117090613795565b80156111bd5780601f10611192576101008083540402835291602001916111bd565b820191906000526020600020905b8154815290600101906020018083116111a057829003601f168201915b505050505081526020016005820180546111d690613795565b80601f016020809104026020016040519081016040528092919081815260200182805461120290613795565b801561124f5780601f106112245761010080835404028352916020019161124f565b820191906000526020600020905b81548152906001019060200180831161123257829003601f168201915b5050505050815260200160068201805461126890613795565b80601f016020809104026020016040519081016040528092919081815260200182805461129490613795565b80156112e15780601f106112b6576101008083540402835291602001916112e1565b820191906000526020600020905b8154815290600101906020018083116112c457829003601f168201915b505050505081526020016007820180546112fa90613795565b80601f016020809104026020016040519081016040528092919081815260200182805461132690613795565b80156113735780601f1061134857610100808354040283529160200191611373565b820191906000526020600020905b81548152906001019060200180831161135657829003601f168201915b5050505050815260200160088201805461138c90613795565b80601f01602080910402602001604051908101604052809291908181526020018280546113b890613795565b80156114055780601f106113da57610100808354040283529160200191611405565b820191906000526020600020905b8154815290600101906020018083116113e857829003601f168201915b5050505050815260200160098201805480602002602001604051908101604052809291908181526020016000905b828210156114df57838290600052602060002001805461145290613795565b80601f016020809104026020016040519081016040528092919081815260200182805461147e90613795565b80156114cb5780601f106114a0576101008083540402835291602001916114cb565b820191906000526020600020905b8154815290600101906020018083116114ae57829003601f168201915b505050505081526020019060010190611433565b505050508152602001600a820180548060200260200160405190810160405280929190818152602001828054801561153657602002820191906000526020600020905b815481526020019060010190808311611522575b50505050508152602001600b8201805461154f90613795565b80601f016020809104026020016040519081016040528092919081815260200182805461157b90613795565b80156115c85780601f1061159d576101008083540402835291602001916115c8565b820191906000526020600020905b8154815290600101906020018083116115ab57829003601f168201915b50505050508152602001600c82015481525050905060006115e885610e5c565b905060006115f98360400151612ea0565b6116068460600151612ea0565b838560a00151866101600151604051602001611626959493929190613917565b604051602081830303815290604052611643846101800151612ea0565b61166b85610140015160008151811061165e5761165e6137f8565b6020026020010151612ea0565b61168686610140015160018151811061165e5761165e6137f8565b6116a187610140015160028151811061165e5761165e6137f8565b6116bc88610140015160038151811061165e5761165e6137f8565b6040516020016116d0959493929190613b00565b60408051601f19818403018152908290526116ee9291602001613c9f565b6040516020818303038152906040529050600060a1600081548110611715576117156137f8565b906000526020600020018460200151604051602001611735929190613d41565b60405160208183030381529060405260a1600181548110611758576117586137f8565b906000526020600020018560c00151604051602001611778929190613d41565b60405160208183030381529060405260a160028154811061179b5761179b6137f8565b906000526020600020018661012001518860200151815181106117c0576117c06137f8565b60200260200101516040516020016117d9929190613d41565b60405160208183030381529060405260a16003815481106117fc576117fc6137f8565b9060005260206000200187610100015160405160200161181d929190613d41565b60405160208183030381529060405260a1600481548110611840576118406137f8565b906000526020600020018660405160200161185c929190613d41565b60405160208183030381529060405260a160058154811061187f5761187f6137f8565b906000526020600020016040516020016118999190613d5d565b60408051601f19818403018152908290526118bb969594939291602001613d69565b60408051601f19818403018152919052979650505050505050565b609a5460009081906001600160a01b03161561191e57609a546099546001600160a01b039091169060649061190b9086613de8565b6119159190613dff565b91509150915091565b506000928392509050565b6097546000908152609e6020526040902081906119468282614140565b505060978054906000611958836137df565b91905055507f6bb522b6bdaaccb470d91c648cf4d1f934e0c71ecb2528299f5767c3a75d694181604051610de291906143d0565b336000908152609f602052604090205460ff166119bb576040516282b42960e81b815260040160405180910390fd5b6001600160a01b03166000908152609f60205260409020805460ff19811660ff90911615179055565b6000838152609d6020908152604080832080548452609e835281842082516101a0810190935280548352600181018054929594919291840191611a2690613795565b80601f0160208091040260200160405190810160405280929190818152602001828054611a5290613795565b8015611a9f5780601f10611a7457610100808354040283529160200191611a9f565b820191906000526020600020905b815481529060010190602001808311611a8257829003601f168201915b505050505081526020016002820154815260200160038201548152602001600482018054611acc90613795565b80601f0160208091040260200160405190810160405280929190818152602001828054611af890613795565b8015611b455780601f10611b1a57610100808354040283529160200191611b45565b820191906000526020600020905b815481529060010190602001808311611b2857829003601f168201915b50505050508152602001600582018054611b5e90613795565b80601f0160208091040260200160405190810160405280929190818152602001828054611b8a90613795565b8015611bd75780601f10611bac57610100808354040283529160200191611bd7565b820191906000526020600020905b815481529060010190602001808311611bba57829003601f168201915b50505050508152602001600682018054611bf090613795565b80601f0160208091040260200160405190810160405280929190818152602001828054611c1c90613795565b8015611c695780601f10611c3e57610100808354040283529160200191611c69565b820191906000526020600020905b815481529060010190602001808311611c4c57829003601f168201915b50505050508152602001600782018054611c8290613795565b80601f0160208091040260200160405190810160405280929190818152602001828054611cae90613795565b8015611cfb5780601f10611cd057610100808354040283529160200191611cfb565b820191906000526020600020905b815481529060010190602001808311611cde57829003601f168201915b50505050508152602001600882018054611d1490613795565b80601f0160208091040260200160405190810160405280929190818152602001828054611d4090613795565b8015611d8d5780601f10611d6257610100808354040283529160200191611d8d565b820191906000526020600020905b815481529060010190602001808311611d7057829003601f168201915b5050505050815260200160098201805480602002602001604051908101604052809291908181526020016000905b82821015611e67578382906000526020600020018054611dda90613795565b80601f0160208091040260200160405190810160405280929190818152602001828054611e0690613795565b8015611e535780601f10611e2857610100808354040283529160200191611e53565b820191906000526020600020905b815481529060010190602001808311611e3657829003601f168201915b505050505081526020019060010190611dbb565b505050508152602001600a8201805480602002602001604051908101604052809291908181526020018280548015611ebe57602002820191906000526020600020905b815481526020019060010190808311611eaa575b50505050508152602001600b82018054611ed790613795565b80601f0160208091040260200160405190810160405280929190818152602001828054611f0390613795565b8015611f505780601f10611f2557610100808354040283529160200191611f50565b820191906000526020600020905b815481529060010190602001808311611f3357829003601f168201915b50505050508152602001600c8201548152505090508061018001518310611f8d5760405163e47b6db360e01b815260048101849052602401610708565b611f978285612f40565b83826002018481548110611fad57611fad6137f8565b90600052602060002001819055507f826c03ef69a7ad72d4482caf1140127ab9b208b45363fd150e8b1fc0e02acd1e8585604051611ff5929190918252602082015260400190565b60405180910390a15050505050565b6000828152609d6020908152604080832080548452609e835281842082516101a081019093528054835260018101805492959491929184019161204690613795565b80601f016020809104026020016040519081016040528092919081815260200182805461207290613795565b80156120bf5780601f10612094576101008083540402835291602001916120bf565b820191906000526020600020905b8154815290600101906020018083116120a257829003601f168201915b5050505050815260200160028201548152602001600382015481526020016004820180546120ec90613795565b80601f016020809104026020016040519081016040528092919081815260200182805461211890613795565b80156121655780601f1061213a57610100808354040283529160200191612165565b820191906000526020600020905b81548152906001019060200180831161214857829003601f168201915b5050505050815260200160058201805461217e90613795565b80601f01602080910402602001604051908101604052809291908181526020018280546121aa90613795565b80156121f75780601f106121cc576101008083540402835291602001916121f7565b820191906000526020600020905b8154815290600101906020018083116121da57829003601f168201915b5050505050815260200160068201805461221090613795565b80601f016020809104026020016040519081016040528092919081815260200182805461223c90613795565b80156122895780601f1061225e57610100808354040283529160200191612289565b820191906000526020600020905b81548152906001019060200180831161226c57829003601f168201915b505050505081526020016007820180546122a290613795565b80601f01602080910402602001604051908101604052809291908181526020018280546122ce90613795565b801561231b5780601f106122f05761010080835404028352916020019161231b565b820191906000526020600020905b8154815290600101906020018083116122fe57829003601f168201915b5050505050815260200160088201805461233490613795565b80601f016020809104026020016040519081016040528092919081815260200182805461236090613795565b80156123ad5780601f10612382576101008083540402835291602001916123ad565b820191906000526020600020905b81548152906001019060200180831161239057829003601f168201915b5050505050815260200160098201805480602002602001604051908101604052809291908181526020016000905b828210156124875783829060005260206000200180546123fa90613795565b80601f016020809104026020016040519081016040528092919081815260200182805461242690613795565b80156124735780601f1061244857610100808354040283529160200191612473565b820191906000526020600020905b81548152906001019060200180831161245657829003601f168201915b5050505050815260200190600101906123db565b505050508152602001600a82018054806020026020016040519081016040528092919081815260200182805480156124de57602002820191906000526020600020905b8154815260200190600101908083116124ca575b50505050508152602001600b820180546124f790613795565b80601f016020809104026020016040519081016040528092919081815260200182805461252390613795565b80156125705780601f1061254557610100808354040283529160200191612570565b820191906000526020600020905b81548152906001019060200180831161255357829003601f168201915b50505050508152602001600c8201548152505090508061018001518260020180549050106125ca576040517ff6fa7bb600000000000000000000000000000000000000000000000000000000815260040160405180910390fd5b6125d48284612f40565b600282018054600181018255600091825260209182902001849055604080518681529182018590527f826c03ef69a7ad72d4482caf1140127ab9b208b45363fd150e8b1fc0e02acd1e910160405180910390a150505050565b336000908152609f602052604090205460ff1661265c576040516282b42960e81b815260040160405180910390fd5b609c80546001600160a01b0319166001600160a01b0392909216919091179055565b336000908152609f602052604090205460ff166126ad576040516282b42960e81b815260040160405180910390fd5b609b80546001600160a01b0319166001600160a01b0392909216919091179055565b60006001600160e01b031982167f80ac58cd00000000000000000000000000000000000000000000000000000000148061273257506001600160e01b031982167f5b5e139f00000000000000000000000000000000000000000000000000000000145b806105b957507f01ffc9a7000000000000000000000000000000000000000000000000000000006001600160e01b03198316146105b9565b6000818152606760205260409020546001600160a01b03166109175760405162461bcd60e51b815260206004820152601860248201527f4552433732313a20696e76616c696420746f6b656e20494400000000000000006044820152606401610708565b600081815260696020526040902080546001600160a01b0319166001600160a01b0384169081179091558190612803826109df565b6001600160a01b03167f8c5be1e5ebec7d5bd14f71427d1e84f3dd0314c0f7b2291e5b200ac8c7c3b92560405160405180910390a45050565b600080612848836109df565b9050806001600160a01b0316846001600160a01b0316148061288f57506001600160a01b038082166000908152606a602090815260408083209388168352929052205460ff165b806128b35750836001600160a01b03166128a884610651565b6001600160a01b0316145b949350505050565b826001600160a01b03166128ce826109df565b6001600160a01b0316146129325760405162461bcd60e51b815260206004820152602560248201527f4552433732313a207472616e736665722066726f6d20696e636f72726563742060448201526437bbb732b960d91b6064820152608401610708565b6001600160a01b0382166129ad5760405162461bcd60e51b8152602060048201526024808201527f4552433732313a207472616e7366657220746f20746865207a65726f2061646460448201527f72657373000000000000000000000000000000000000000000000000000000006064820152608401610708565b826001600160a01b03166129c0826109df565b6001600160a01b031614612a245760405162461bcd60e51b815260206004820152602560248201527f4552433732313a207472616e736665722066726f6d20696e636f72726563742060448201526437bbb732b960d91b6064820152608401610708565b600081815260696020908152604080832080546001600160a01b03199081169091556001600160a01b0387811680865260688552838620805460001901905590871680865283862080546001019055868652606790945282852080549092168417909155905184937fddf252ad1be2c89b69c2b068fc378daa952ba7f163c4a11628f55a4df523b3ef91a4505050565b6001600160a01b038216612b0a5760405162461bcd60e51b815260206004820181905260248201527f4552433732313a206d696e7420746f20746865207a65726f20616464726573736044820152606401610708565b6000818152606760205260409020546001600160a01b031615612b6f5760405162461bcd60e51b815260206004820152601c60248201527f4552433732313a20746f6b656e20616c7265616479206d696e746564000000006044820152606401610708565b6000818152606760205260409020546001600160a01b031615612bd45760405162461bcd60e51b815260206004820152601c60248201527f4552433732313a20746f6b656e20616c7265616479206d696e746564000000006044820152606401610708565b6001600160a01b038216600081815260686020908152604080832080546001019055848352606790915280822080546001600160a01b0319168417905551839291907fddf252ad1be2c89b69c2b068fc378daa952ba7f163c4a11628f55a4df523b3ef908290a45050565b6000612c4a826109df565b9050612c55826109df565b600083815260696020908152604080832080546001600160a01b03199081169091556001600160a01b0385168085526068845282852080546000190190558785526067909352818420805490911690555192935084927fddf252ad1be2c89b69c2b068fc378daa952ba7f163c4a11628f55a4df523b3ef908390a45050565b600054610100900460ff16612d3f5760405162461bcd60e51b815260206004820152602b60248201527f496e697469616c697a61626c653a20636f6e7472616374206973206e6f74206960448201526a6e697469616c697a696e6760a81b6064820152608401610708565b61097e8282613066565b816001600160a01b0316836001600160a01b031603612daa5760405162461bcd60e51b815260206004820152601960248201527f4552433732313a20617070726f766520746f2063616c6c6572000000000000006044820152606401610708565b6001600160a01b038381166000818152606a6020908152604080832094871680845294825291829020805460ff191686151590811790915591519182527f17307eab39ab6107e8899845ad3d59bd9653f200f220920489ca2b5937696c31910160405180910390a3505050565b612e228484846128bb565b612e2e848484846130ea565b610fdc5760405162461bcd60e51b815260206004820152603260248201527f4552433732313a207472616e7366657220746f206e6f6e20455243373231526560448201527f63656976657220696d706c656d656e74657200000000000000000000000000006064820152608401610708565b60606000612ead83613241565b600101905060008167ffffffffffffffff811115612ecd57612ecd6135e1565b6040519080825280601f01601f191660200182016040528015612ef7576020820181803683370190505b5090508181016020015b600019017f3031323334353637383961626364656600000000000000000000000000000000600a86061a8153600a8504945084612f0157509392505050565b600160005b600284015460ff82161015612f9d5782846002018260ff1681548110612f6d57612f6d6137f8565b906000526020600020015403612f8b5781612f8781614576565b9250505b80612f9581614576565b915050612f45565b50609c546040517efdd58e0000000000000000000000000000000000000000000000000000000081523360048201526024810184905260ff8316916001600160a01b03169062fdd58e90604401602060405180830381865afa158015613007573d6000803e3d6000fd5b505050506040513d601f19601f8201168201806040525081019061302b9190614595565b10156107c7576040517f755d193b00000000000000000000000000000000000000000000000000000000815260048101839052602401610708565b600054610100900460ff166130d15760405162461bcd60e51b815260206004820152602b60248201527f496e697469616c697a61626c653a20636f6e7472616374206973206e6f74206960448201526a6e697469616c697a696e6760a81b6064820152608401610708565b60656130dd83826145ae565b5060666107c782826145ae565b60006001600160a01b0384163b1561323657604051630a85bd0160e11b81526001600160a01b0385169063150b7a029061312e90339089908890889060040161466e565b6020604051808303816000875af1925050508015613169575060408051601f3d908101601f19168201909252613166918101906146aa565b60015b61321c573d808015613197576040519150601f19603f3d011682016040523d82523d6000602084013e61319c565b606091505b5080516000036132145760405162461bcd60e51b815260206004820152603260248201527f4552433732313a207472616e7366657220746f206e6f6e20455243373231526560448201527f63656976657220696d706c656d656e74657200000000000000000000000000006064820152608401610708565b805181602001fd5b6001600160e01b031916630a85bd0160e11b1490506128b3565b506001949350505050565b6000807a184f03e93ff9f4daa797ed6e38ed64bf6a1f010000000000000000831061328a577a184f03e93ff9f4daa797ed6e38ed64bf6a1f010000000000000000830492506040015b6d04ee2d6d415b85acef810000000083106132b6576d04ee2d6d415b85acef8100000000830492506020015b662386f26fc1000083106132d457662386f26fc10000830492506010015b6305f5e10083106132ec576305f5e100830492506008015b612710831061330057612710830492506004015b60648310613312576064830492506002015b600a83106105b95760010192915050565b82805482825590600052602060002090810192821561335e579160200282015b8281111561335e578251825591602001919060010190613343565b5061336a9291506133c0565b5090565b8280548282559060005260206000209081019282156133b4579160200282015b828111156133b457825182906133a490826145ae565b509160200191906001019061338e565b5061336a9291506133d5565b5b8082111561336a57600081556001016133c1565b8082111561336a5760006133e982826133f2565b506001016133d5565b5080546133fe90613795565b6000825580601f1061340e575050565b601f01602090049060005260206000209081019061091791906133c0565b6001600160e01b03198116811461091757600080fd5b60006020828403121561345457600080fd5b813561345f8161342c565b9392505050565b60005b83811015613481578181015183820152602001613469565b50506000910152565b600081518084526134a2816020860160208601613466565b601f01601f19169290920160200192915050565b60208152600061345f602083018461348a565b6000602082840312156134db57600080fd5b5035919050565b6001600160a01b038116811461091757600080fd5b6000806040838503121561350a57600080fd5b8235613515816134e2565b946020939093013593505050565b60008060006060848603121561353857600080fd5b8335613543816134e2565b92506020840135613553816134e2565b929592945050506040919091013590565b60006020828403121561357657600080fd5b813561345f816134e2565b6000806040838503121561359457600080fd5b50508035926020909101359150565b600080604083850312156135b657600080fd5b82356135c1816134e2565b9150602083013580151581146135d657600080fd5b809150509250929050565b634e487b7160e01b600052604160045260246000fd5b604051601f8201601f1916810167ffffffffffffffff81118282101715613620576136206135e1565b604052919050565b600067ffffffffffffffff821115613642576136426135e1565b50601f01601f191660200190565b6000806000806080858703121561366657600080fd5b8435613671816134e2565b93506020850135613681816134e2565b925060408501359150606085013567ffffffffffffffff8111156136a457600080fd5b8501601f810187136136b557600080fd5b80356136c86136c382613628565b6135f7565b8181528860208385010111156136dd57600080fd5b8160208401602083013760006020838301015280935050505092959194509250565b60006020828403121561371157600080fd5b813567ffffffffffffffff81111561372857600080fd5b82016101a0818503121561345f57600080fd5b60008060006060848603121561375057600080fd5b505081359360208301359350604090920135919050565b6000806040838503121561377a57600080fd5b8235613785816134e2565b915060208301356135d6816134e2565b600181811c908216806137a957607f821691505b602082108103610f5e57634e487b7160e01b600052602260045260246000fd5b634e487b7160e01b600052601160045260246000fd5b6000600182016137f1576137f16137c9565b5060010190565b634e487b7160e01b600052603260045260246000fd5b60006020828403121561382057600080fd5b815167ffffffffffffffff81111561383757600080fd5b8201601f8101841361384857600080fd5b80516138566136c382613628565b81815285602083850101111561386b57600080fd5b61387c826020830160208601613466565b95945050505050565b60008151613897818560208601613466565b9290920192915050565b600082516138b3818460208701613466565b9190910192915050565b7f227d2c207b2274726169745f74797065223a2022436f72706f726174696f6e2281526b1610113b30b63ab2911d101160a11b60208201526000825161390a81602c850160208701613466565b91909101602c0192915050565b7f7b2274726169745f74797065223a20224c6576656c222c202276616c7565223a81527f2022000000000000000000000000000000000000000000000000000000000000602082015260008651613975816022850160208b01613466565b7f227d2c207b2274726169745f74797065223a202247656e65726174696f6e222c6022918401918201526a10113b30b63ab2911d101160a91b604282015286516139c681604d840160208b01613466565b86519101906139dc81604d840160208a01613466565b7f227d2c207b2274726169745f74797065223a20224d6f64656c222c202276616c604d92909101918201527f7565223a20220000000000000000000000000000000000000000000000000000606d8201528451613a40816073840160208901613466565b613af3613aa4613a9e6073848601017f227d2c207b2274726169745f74797065223a2022526172697479222c2022766181527f6c7565223a202200000000000000000000000000000000000000000000000000602082015260270190565b87613885565b7f227d2c207b2274726169745f74797065223a2022546f74616c204d6f6473204181527f7661696c61626c65222c202276616c7565223a20220000000000000000000000602082015260350190565b9998505050505050505050565b60008651613b12818460208b01613466565b80830190507f227d2c207b2274726169745f74797065223a202256616c756520546f70222c2081527f2276616c7565223a20220000000000000000000000000000000000000000000060208201528651613b7381602a840160208b01613466565b7f227d2c207b2274726169745f74797065223a202256616c756520526967687422602a92909101918201526b1610113b30b63ab2911d101160a11b604a8201528551613bc6816056840160208a01613466565b7f227d2c207b2274726169745f74797065223a202256616c756520426f74746f6d605692909101918201527f222c202276616c7565223a20220000000000000000000000000000000000000060768201528451613c2a816083840160208901613466565b613af3613c76613a9e6083848601017f227d2c207b2274726169745f74797065223a202256616c7565204c656674222c81526a10113b30b63ab2911d101160a91b6020820152602b0190565b7f227d000000000000000000000000000000000000000000000000000000000000815260020190565b60008351613cb1818460208801613466565b835190830190613cc5818360208801613466565b01949350505050565b60008154613cdb81613795565b60018281168015613cf35760018114613d0857613d37565b60ff1984168752821515830287019450613d37565b8560005260208060002060005b85811015613d2e5781548a820152908401908201613d15565b50505082870194505b5050505092915050565b6000613d4d8285613cce565b8351613cc5818360208801613466565b600061345f8284613cce565b600087516020613d7c8285838d01613466565b885191840191613d8f8184848d01613466565b8851920191613da18184848c01613466565b8751920191613db38184848b01613466565b8651920191613dc58184848a01613466565b8551920191613dd78184848901613466565b919091019998505050505050505050565b80820281158282048414176105b9576105b96137c9565b600082613e1c57634e487b7160e01b600052601260045260246000fd5b500490565b6000808335601e19843603018112613e3857600080fd5b83018035915067ffffffffffffffff821115613e5357600080fd5b602001915036819003821315613e6857600080fd5b9250929050565b5b8181101561097e5760008155600101613e70565b601f8211156107c757806000526020600020601f840160051c81016020851015613eab5750805b613ebd601f850160051c830182613e6f565b5050505050565b67ffffffffffffffff831115613edc57613edc6135e1565b613ef083613eea8354613795565b83613e84565b6000601f841160018114613f245760008515613f0c5750838201355b600019600387901b1c1916600186901b178355613ebd565b600083815260209020601f19861690835b82811015613f555786850135825560209485019460019092019101613f35565b5086821015613f725760001960f88860031b161c19848701351681555b505060018560011b0183555050505050565b6000808335601e19843603018112613f9b57600080fd5b83018035915067ffffffffffffffff821115613fb657600080fd5b6020019150600581901b3603821315613e6857600080fd5b68010000000000000000831115613fe757613fe76135e1565b805483825580841015614070576000828152602081208581019083015b8082101561406c576140168254613795565b801561406057601f808211600181146140315785855561405d565b60008581526020902061404e83850160051c820160018301613e6f565b50600085815260208120818755555b50505b50600182019150614004565b5050505b5060008181526020812083915b858110156140af5761408f8386613e21565b61409a818386613ec4565b5050602092909201916001918201910161407d565b505050505050565b67ffffffffffffffff8311156140cf576140cf6135e1565b680100000000000000008311156140e8576140e86135e1565b80548382558084101561410e5781600052602060002061410c828201868301613e6f565b505b50818160005260208060002060005b86811015614137578335828201559282019260010161411d565b50505050505050565b813581556141516020830183613e21565b61415f818360018601613ec4565b505060408201356002820155606082013560038201556141826080830183613e21565b614190818360048601613ec4565b505061419f60a0830183613e21565b6141ad818360058601613ec4565b50506141bc60c0830183613e21565b6141ca818360068601613ec4565b50506141d960e0830183613e21565b6141e7818360078601613ec4565b50506141f7610100830183613e21565b614205818360088601613ec4565b5050614215610120830183613f84565b614223818360098601613fce565b5050614233610140830183613f84565b6142418183600a86016140b7565b5050614251610160830183613e21565b61425f8183600b8601613ec4565b5050610180820135600c8201555050565b6000808335601e1984360301811261428757600080fd5b830160208101925035905067ffffffffffffffff8111156142a757600080fd5b803603821315613e6857600080fd5b81835281816020850137506000828201602090810191909152601f909101601f19169091010190565b6000808335601e198436030181126142f657600080fd5b830160208101925035905067ffffffffffffffff81111561431657600080fd5b8060051b3603821315613e6857600080fd5b81835260006020808501808196508560051b810191508460005b878110156143785782840389526143598288614270565b6143648682846142b6565b9a87019a9550505090840190600101614342565b5091979650505050505050565b81835260007f07ffffffffffffffffffffffffffffffffffffffffffffffffffffffffffffff8311156143b757600080fd5b8260051b80836020870137939093016020019392505050565b602081528135602082015260006143ea6020840184614270565b6101a08060408601526144026101c0860183856142b6565b925060408601356060860152606086013560808601526144256080870187614270565b9250601f19808786030160a088015261443f8585846142b6565b945061444e60a0890189614270565b94509150808786030160c08801526144678585846142b6565b945061447660c0890189614270565b94509150808786030160e088015261448f8585846142b6565b945061449e60e0890189614270565b945091506101008188870301818901526144b98686856142b6565b95506144c7818a018a614270565b95509250506101208188870301818901526144e38686856142b6565b95506144f1818a018a6142df565b955092505061014081888703018189015261450d868685614328565b955061451b818a018a6142df565b9550925050610160818887030181890152614537868685614385565b9550614545818a018a614270565b95509250506101808188870301818901526145618686856142b6565b98013596909201959095525093949350505050565b600060ff821660ff810361458c5761458c6137c9565b60010192915050565b6000602082840312156145a757600080fd5b5051919050565b815167ffffffffffffffff8111156145c8576145c86135e1565b6145dc816145d68454613795565b84613e84565b602080601f83116001811461461157600084156145f95750858301515b600019600386901b1c1916600185901b1785556140af565b600085815260208120601f198616915b8281101561464057888601518255948401946001909101908401614621565b508582101561465e5787850151600019600388901b60f8161c191681555b5050505050600190811b01905550565b60006001600160a01b038087168352808616602084015250836040830152608060608301526146a0608083018461348a565b9695505050505050565b6000602082840312156146bc57600080fd5b815161345f8161342c56fe646174613a6170706c69636174696f6e2f6a736f6e3b757466382c7b226e616d65223a22a2646970667358221220e28b573d9cdbf832c494e2f085ef80de4428f207add309e514a0c178fed2fcc964736f6c63430008110033",
  "linkReferences": {},
  "deployedLinkReferences": {}
}